{
	"data": {
		"bytecode": {
			"linkReferences": {},
			"object": "608060405234801561001057600080fd5b50616fc380620000216000396000f3fe6080604052600436106103355760003560e01c8063817b1cd2116101ab578063b0c07972116100f7578063cc351d0011610095578063e631e3461161006f578063e631e34614610b97578063e985e9c514610bc2578063f2c4ce1e14610bff578063f2fde38b14610c2857610335565b8063cc351d0014610b06578063e3f34a3d14610b43578063e449f34114610b6e57610335565b8063c62bfd8f116100d1578063c62bfd8f14610a5c578063c87b56dd14610a87578063cadd3e0c14610ac4578063cbccefb214610adb57610335565b8063b0c07972146109df578063b88d4fde14610a08578063bde708f414610a3157610335565b806395d89b4111610164578063a475b5dd1161013e578063a475b5dd14610949578063a84894b814610960578063aaee88131461098b578063ab5d2ce6146109a257610335565b806395d89b41146108b657806397c0ffbf146108e1578063a22cb4651461092057610335565b8063817b1cd2146107b657806382698af2146107e15780638456cb591461080c5780638da5cb5b146108235780638f5e2e441461084e578063949fb49c1461087957610335565b80633f0c31351161028557806355f804b3116102235780636ae29de9116101fd5780636ae29de91461070e5780636ba4c1381461073957806370a0823114610762578063715018a61461079f57610335565b806355f804b31461067d5780635c975abb146106a65780636352211e146106d157610335565b806342842e0e1161025f57806342842e0e146105c15780634c7d857d146105ea578063518302271461062757806354214f691461065257610335565b80633f0c3135146105635780633f3554761461058e5780633f4ba83a146105aa57610335565b8063144b3cb8116102f257806323b872dd116102cc57806323b872dd146104cc5780632e8781e3146104f557806332eae8a41461051e5780633d5efefe1461053a57610335565b8063144b3cb81461045a57806315b448f21461048557806318160ddd146104a157610335565b806301ffc9a71461033a57806306fdde0314610377578063077f224a146103a2578063081812fc146103cb578063095ea7b3146104085780630fbf0a9314610431575b600080fd5b34801561034657600080fd5b50610361600480360381019061035c919061545c565b610c51565b60405161036e9190615e62565b60405180910390f35b34801561038357600080fd5b5061038c610ce3565b6040516103999190615ef8565b60405180910390f35b3480156103ae57600080fd5b506103c960048036038101906103c4919061554c565b610d7e565b005b3480156103d757600080fd5b506103f260048036038101906103ed91906155d7565b611059565b6040516103ff9190615d8f565b60405180910390f35b34801561041457600080fd5b5061042f600480360381019061042a91906153cf565b6110de565b005b34801561043d57600080fd5b506104586004803603810190610453919061540f565b611228565b005b34801561046657600080fd5b5061046f611405565b60405161047c919061629a565b60405180910390f35b61049f600480360381019061049a91906155d7565b61140f565b005b3480156104ad57600080fd5b506104b6611763565b6040516104c3919061629a565b60405180910390f35b3480156104d857600080fd5b506104f360048036038101906104ee9190615259565b61178c565b005b34801561050157600080fd5b5061051c600480360381019061051791906155d7565b611ae7565b005b61053860048036038101906105339190615604565b611b6d565b005b34801561054657600080fd5b50610561600480360381019061055c91906155d7565b611f7d565b005b34801561056f57600080fd5b50610578611fd1565b604051610585919061629a565b60405180910390f35b6105a860048036038101906105a391906153cf565b611fd7565b005b3480156105b657600080fd5b506105bf6121c0565b005b3480156105cd57600080fd5b506105e860048036038101906105e39190615259565b612246565b005b3480156105f657600080fd5b50610611600480360381019061060c919061532f565b612266565b60405161061e919061629a565b60405180910390f35b34801561063357600080fd5b5061063c6123f6565b6040516106499190615e62565b60405180910390f35b34801561065e57600080fd5b50610667612409565b6040516106749190615e62565b60405180910390f35b34801561068957600080fd5b506106a4600480360381019061069f9190615503565b612420565b005b3480156106b257600080fd5b506106bb612527565b6040516106c89190615e62565b60405180910390f35b3480156106dd57600080fd5b506106f860048036038101906106f391906155d7565b61253e565b6040516107059190615d8f565b60405180910390f35b34801561071a57600080fd5b50610723612550565b604051610730919061629a565b60405180910390f35b34801561074557600080fd5b50610760600480360381019061075b919061540f565b61255a565b005b34801561076e57600080fd5b50610789600480360381019061078491906151ec565b61256b565b604051610796919061629a565b60405180910390f35b3480156107ab57600080fd5b506107b461262d565b005b3480156107c257600080fd5b506107cb6126b5565b6040516107d8919061629a565b60405180910390f35b3480156107ed57600080fd5b506107f66126bb565b604051610803919061629a565b60405180910390f35b34801561081857600080fd5b506108216126c5565b005b34801561082f57600080fd5b5061083861274b565b6040516108459190615d8f565b60405180910390f35b34801561085a57600080fd5b50610863612775565b604051610870919061629a565b60405180910390f35b34801561088557600080fd5b506108a0600480360381019061089b91906151ec565b61277b565b6040516108ad919061629a565b60405180910390f35b3480156108c257600080fd5b506108cb612793565b6040516108d89190615ef8565b60405180910390f35b3480156108ed57600080fd5b50610908600480360381019061090391906155d7565b61282e565b604051610917939291906162de565b60405180910390f35b34801561092c57600080fd5b506109476004803603810190610942919061538f565b612878565b005b34801561095557600080fd5b5061095e6129f9565b005b34801561096c57600080fd5b50610975612b05565b6040516109829190615e62565b60405180910390f35b34801561099757600080fd5b506109a0612b18565b005b3480156109ae57600080fd5b506109c960048036038101906109c491906151ec565b612c09565b6040516109d69190615e40565b60405180910390f35b3480156109eb57600080fd5b50610a066004803603810190610a0191906155d7565b612dcf565b005b348015610a1457600080fd5b50610a2f6004803603810190610a2a91906152ac565b612e55565b005b348015610a3d57600080fd5b50610a46612ec8565b604051610a53919061629a565b60405180910390f35b348015610a6857600080fd5b50610a71612ece565b604051610a7e9190615e62565b60405180910390f35b348015610a9357600080fd5b50610aae6004803603810190610aa991906155d7565b612ee1565b604051610abb9190615ef8565b60405180910390f35b348015610ad057600080fd5b50610ad9613003565b005b348015610ae757600080fd5b50610af06130f4565b604051610afd9190615ec2565b60405180910390f35b348015610b1257600080fd5b50610b2d6004803603810190610b2891906154b6565b613107565b604051610b3a9190615d8f565b60405180910390f35b348015610b4f57600080fd5b50610b58613198565b604051610b65919061629a565b60405180910390f35b348015610b7a57600080fd5b50610b956004803603810190610b90919061540f565b61319e565b005b348015610ba357600080fd5b50610bac6131af565b604051610bb99190615e62565b60405180910390f35b348015610bce57600080fd5b50610be96004803603810190610be49190615219565b6131c2565b604051610bf69190615e62565b60405180910390f35b348015610c0b57600080fd5b50610c266004803603810190610c219190615503565b61325f565b005b348015610c3457600080fd5b50610c4f6004803603810190610c4a91906151ec565b613366565b005b60006301ffc9a760e01b827bffffffffffffffffffffffffffffffffffffffffffffffffffffffff19161480610cac57506380ac58cd60e01b827bffffffffffffffffffffffffffffffffffffffffffffffffffffffff1916145b80610cdc5750635b5e139f60e01b827bffffffffffffffffffffffffffffffffffffffffffffffffffffffff1916145b9050919050565b6060610ced61345e565b6002018054610cfb90616658565b80601f0160208091040260200160405190810160405280929190818152602001828054610d2790616658565b8015610d745780601f10610d4957610100808354040283529160200191610d74565b820191906000526020600020905b815481529060010190602001808311610d5757829003601f168201915b5050505050905090565b610d8661348b565b60000160019054906101000a900460ff16610dba57610da361348b565b60000160009054906101000a900460ff1615610dc3565b610dc26134b8565b5b610e02576040517f08c379a0000000000000000000000000000000000000000000000000000000008152600401610df9906160da565b60405180910390fd5b6000610e0c61348b565b60000160019054906101000a900460ff161590508015610e6f576001610e3061348b565b60000160016101000a81548160ff0219169083151502179055506001610e5461348b565b60000160006101000a81548160ff0219169083151502179055505b6000610e7b60016134cf565b90508015610e9f576001600060016101000a81548160ff0219169083151502179055505b610ea985856135bf565b610eb1613625565b610eb961367e565b610ec16136d7565b8260ca60006101000a81548173ffffffffffffffffffffffffffffffffffffffff021916908373ffffffffffffffffffffffffffffffffffffffff160217905550609660d381905550600060ca60146101000a81548160ff02191690836004811115610f3057610f2f6167c1565b5b021790555061c35060cb819055506658d15e1762800060cc8190555066470de4df82000060cd81905550600360ce81905550600060d460006101000a81548160ff021916908315150217905550600060d460016101000a81548160ff021916908315150217905550600160d460026101000a81548160ff021916908315150217905550600160d460036101000a81548160ff02191690831515021790555080156110275760008060016101000a81548160ff0219169083151502179055507f7f26b83ff96e1f2b6a682f133852f6798a09c465da95921460cefb3847402498600160405161101e9190615edd565b60405180910390a15b50801561105357600061103861348b565b60000160016101000a81548160ff0219169083151502179055505b50505050565b600061106482613730565b61109a576040517fcf4700e400000000000000000000000000000000000000000000000000000000815260040160405180910390fd5b6110a261345e565b600601600083815260200190815260200160002060009054906101000a900473ffffffffffffffffffffffffffffffffffffffff169050919050565b60006110e98261253e565b90508073ffffffffffffffffffffffffffffffffffffffff1661110a6137a1565b73ffffffffffffffffffffffffffffffffffffffff161461116d57611136816111316137a1565b6131c2565b61116c576040517fcfb3b94200000000000000000000000000000000000000000000000000000000815260040160405180910390fd5b5b8261117661345e565b600601600084815260200190815260200160002060006101000a81548173ffffffffffffffffffffffffffffffffffffffff021916908373ffffffffffffffffffffffffffffffffffffffff160217905550818373ffffffffffffffffffffffffffffffffffffffff168273ffffffffffffffffffffffffffffffffffffffff167f8c5be1e5ebec7d5bd14f71427d1e84f3dd0314c0f7b2291e5b200ac8c7c3b92560405160405180910390a4505050565b60008282905060cf600082825461123f919061642d565b9250508190555060005b838390508110156113ff578383828181106112675761126661681f565b5b9050602002013591503373ffffffffffffffffffffffffffffffffffffffff166112908361253e565b73ffffffffffffffffffffffffffffffffffffffff16146112e6576040517f08c379a00000000000000000000000000000000000000000000000000000000081526004016112dd9061609a565b60405180910390fd5b600060d66000848152602001908152602001600020600101541461133f576040517f08c379a0000000000000000000000000000000000000000000000000000000008152600401611336906161ba565b60405180910390fd5b61134a33308461178c565b60405180606001604052808381526020014281526020013373ffffffffffffffffffffffffffffffffffffffff1681525060d66000848152602001908152602001600020600082015181600001556020820151816001015560408201518160020160006101000a81548173ffffffffffffffffffffffffffffffffffffffff021916908373ffffffffffffffffffffffffffffffffffffffff16021790555090505080806113f7906166bb565b915050611249565b50505050565b600060cc54905090565b60026001541415611455576040517f08c379a000000000000000000000000000000000000000000000000000000000815260040161144c9061623a565b60405180910390fd5b6002600181905550611465612527565b156114a5576040517f08c379a000000000000000000000000000000000000000000000000000000000815260040161149c9061605a565b60405180910390fd5b60006114af611763565b905060cb546114bc611763565b106114fc576040517f08c379a00000000000000000000000000000000000000000000000000000000081526004016114f390615ffa565b60405180910390fd5b600260048111156115105761150f6167c1565b5b60ca60149054906101000a900460ff166004811115611532576115316167c1565b5b14611572576040517f08c379a00000000000000000000000000000000000000000000000000000000081526004016115699061619a565b60405180910390fd5b60ce5460d560003373ffffffffffffffffffffffffffffffffffffffff1673ffffffffffffffffffffffffffffffffffffffff1681526020019081526020016000205411156115f6576040517f08c379a00000000000000000000000000000000000000000000000000000000081526004016115ed90615fda565b60405180910390fd5b60cb548282611605919061642d565b1115611646576040517f08c379a000000000000000000000000000000000000000000000000000000000815260040161163d9061611a565b60405180910390fd5b8160cc5461165491906164b4565b341015611696576040517f08c379a000000000000000000000000000000000000000000000000000000000815260040161168d906161da565b60405180910390fd5b60cb5482826116a5919061642d565b14156116d757600360ca60146101000a81548160ff021916908360048111156116d1576116d06167c1565b5b02179055505b6116e133836137a9565b6000600190505b8281116117575760d560003373ffffffffffffffffffffffffffffffffffffffff1673ffffffffffffffffffffffffffffffffffffffff168152602001908152602001600020600081548092919061173f906166bb565b9190505550808061174f906166bb565b9150506116e8565b50506001808190555050565b600061176d6137c7565b61177561345e565b6001015461178161345e565b600001540303905090565b6000611797826137cc565b90508373ffffffffffffffffffffffffffffffffffffffff168173ffffffffffffffffffffffffffffffffffffffff16146117fe576040517fa114810000000000000000000000000000000000000000000000000000000000815260040160405180910390fd5b60008061180a846138b5565b91509150611820818761181b6137a1565b6138e0565b61186c57611835866118306137a1565b6131c2565b61186b576040517f59c896be00000000000000000000000000000000000000000000000000000000815260040160405180910390fd5b5b600073ffffffffffffffffffffffffffffffffffffffff168573ffffffffffffffffffffffffffffffffffffffff1614156118d3576040517fea553b3400000000000000000000000000000000000000000000000000000000815260040160405180910390fd5b6118e08686866001613924565b80156118eb57600082555b6118f361345e565b60050160008773ffffffffffffffffffffffffffffffffffffffff1673ffffffffffffffffffffffffffffffffffffffff16815260200190815260200160002060008154600190039190508190555061194a61345e565b60050160008673ffffffffffffffffffffffffffffffffffffffff1673ffffffffffffffffffffffffffffffffffffffff16815260200190815260200160002060008154600101919050819055506119cb856119a788888761392a565b7c020000000000000000000000000000000000000000000000000000000017613952565b6119d361345e565b60040160008681526020019081526020016000208190555060007c020000000000000000000000000000000000000000000000000000000084161415611a775760006001850190506000611a2561345e565b6004016000838152602001908152602001600020541415611a7557611a4861345e565b600001548114611a745783611a5b61345e565b6004016000838152602001908152602001600020819055505b5b505b838573ffffffffffffffffffffffffffffffffffffffff168773ffffffffffffffffffffffffffffffffffffffff167fddf252ad1be2c89b69c2b068fc378daa952ba7f163c4a11628f55a4df523b3ef60405160405180910390a4611adf868686600161397d565b505050505050565b611aef613983565b73ffffffffffffffffffffffffffffffffffffffff16611b0d61274b565b73ffffffffffffffffffffffffffffffffffffffff1614611b63576040517f08c379a0000000000000000000000000000000000000000000000000000000008152600401611b5a9061613a565b60405180910390fd5b8060cc8190555050565b60026001541415611bb3576040517f08c379a0000000000000000000000000000000000000000000000000000000008152600401611baa9061623a565b60405180910390fd5b6002600181905550611bc3612527565b15611c03576040517f08c379a0000000000000000000000000000000000000000000000000000000008152600401611bfa9061605a565b60405180910390fd5b6000611c0d611763565b905060cb54611c1a611763565b10611c5a576040517f08c379a0000000000000000000000000000000000000000000000000000000008152600401611c5190615ffa565b60405180910390fd5b60016004811115611c6e57611c6d6167c1565b5b60ca60149054906101000a900460ff166004811115611c9057611c8f6167c1565b5b14611cd0576040517f08c379a0000000000000000000000000000000000000000000000000000000008152600401611cc79061621a565b60405180910390fd5b60ce5460d560003373ffffffffffffffffffffffffffffffffffffffff1673ffffffffffffffffffffffffffffffffffffffff168152602001908152602001600020541115611d54576040517f08c379a0000000000000000000000000000000000000000000000000000000008152600401611d4b90615fda565b60405180910390fd5b60cb548482611d63919061642d565b1115611da4576040517f08c379a0000000000000000000000000000000000000000000000000000000008152600401611d9b9061611a565b60405180910390fd5b8360cd54611db291906164b4565b341015611df4576040517f08c379a0000000000000000000000000000000000000000000000000000000008152600401611deb906161da565b60405180910390fd5b611e7b83838080601f016020809104026020016040519081016040528093929190818152602001838380828437600081840152601f19601f82011690508083019250505050505050611e6d3033604051602001611e52929190615cdf565b6040516020818303038152906040528051906020012061398b565b6139bb90919063ffffffff16565b73ffffffffffffffffffffffffffffffffffffffff16611e9961274b565b73ffffffffffffffffffffffffffffffffffffffff1614611eef576040517f08c379a0000000000000000000000000000000000000000000000000000000008152600401611ee690615f5a565b60405180910390fd5b611ef933856137a9565b6000600190505b848111611f6f5760d560003373ffffffffffffffffffffffffffffffffffffffff1673ffffffffffffffffffffffffffffffffffffffff1681526020019081526020016000206000815480929190611f57906166bb565b91905055508080611f67906166bb565b915050611f00565b505060018081905550505050565b611f85612527565b15611fc5576040517f08c379a0000000000000000000000000000000000000000000000000000000008152600401611fbc9061605a565b60405180910390fd5b611fce816139e2565b50565b60cb5481565b611fdf613983565b73ffffffffffffffffffffffffffffffffffffffff16611ffd61274b565b73ffffffffffffffffffffffffffffffffffffffff1614612053576040517f08c379a000000000000000000000000000000000000000000000000000000000815260040161204a9061613a565b60405180910390fd5b61205b612527565b1561209b576040517f08c379a00000000000000000000000000000000000000000000000000000000081526004016120929061605a565b60405180910390fd5b60006120a5611763565b9050600082116120ea576040517f08c379a00000000000000000000000000000000000000000000000000000000081526004016120e19061625a565b60405180910390fd5b60cb5482826120f9919061642d565b111561213a576040517f08c379a00000000000000000000000000000000000000000000000000000000081526004016121319061601a565b60405180910390fd5b61214483836137a9565b6000600190505b8281116121ba5760d560008573ffffffffffffffffffffffffffffffffffffffff1673ffffffffffffffffffffffffffffffffffffffff16815260200190815260200160002060008154809291906121a2906166bb565b919050555080806121b2906166bb565b91505061214b565b50505050565b6121c8613983565b73ffffffffffffffffffffffffffffffffffffffff166121e661274b565b73ffffffffffffffffffffffffffffffffffffffff161461223c576040517f08c379a00000000000000000000000000000000000000000000000000000000081526004016122339061613a565b60405180910390fd5b6122446139f0565b565b61226183838360405180602001604052806000815250612e55565b505050565b60008060008060005b868690508110156123e85786868281811061228d5761228c61681f565b5b905060200201359350600060d6600086815260200190815260200160002060405180606001604052908160008201548152602001600182015481526020016002820160009054906101000a900473ffffffffffffffffffffffffffffffffffffffff1673ffffffffffffffffffffffffffffffffffffffff1673ffffffffffffffffffffffffffffffffffffffff168152505090508873ffffffffffffffffffffffffffffffffffffffff16816040015173ffffffffffffffffffffffffffffffffffffffff1614612394576040517f08c379a000000000000000000000000000000000000000000000000000000000815260040161238b9061607a565b60405180910390fd5b600081602001519050610e1060d35482426123af919061650e565b6123b991906164b4565b6123c39190616483565b945084846123d1919061642d565b9350505080806123e0906166bb565b91505061226f565b508093505050509392505050565b60d460009054906101000a900460ff1681565b600060d460009054906101000a900460ff16905090565b612428613983565b73ffffffffffffffffffffffffffffffffffffffff1661244661274b565b73ffffffffffffffffffffffffffffffffffffffff161461249c576040517f08c379a00000000000000000000000000000000000000000000000000000000081526004016124939061613a565b60405180910390fd5b6001151560d460029054906101000a900460ff161515146124f2576040517f08c379a00000000000000000000000000000000000000000000000000000000081526004016124e99061617a565b60405180910390fd5b8060d09080519060200190612508929190614f3f565b50600060d460026101000a81548160ff02191690831515021790555050565b6000609760009054906101000a900460ff16905090565b6000612549826137cc565b9050919050565b600060cb54905090565b6125673383836000613a92565b5050565b60008073ffffffffffffffffffffffffffffffffffffffff168273ffffffffffffffffffffffffffffffffffffffff1614156125d3576040517f8f4eb60400000000000000000000000000000000000000000000000000000000815260040160405180910390fd5b67ffffffffffffffff6125e461345e565b60050160008473ffffffffffffffffffffffffffffffffffffffff1673ffffffffffffffffffffffffffffffffffffffff16815260200190815260200160002054169050919050565b612635613983565b73ffffffffffffffffffffffffffffffffffffffff1661265361274b565b73ffffffffffffffffffffffffffffffffffffffff16146126a9576040517f08c379a00000000000000000000000000000000000000000000000000000000081526004016126a09061613a565b60405180910390fd5b6126b36000613dca565b565b60cf5481565b600060cd54905090565b6126cd613983565b73ffffffffffffffffffffffffffffffffffffffff166126eb61274b565b73ffffffffffffffffffffffffffffffffffffffff1614612741576040517f08c379a00000000000000000000000000000000000000000000000000000000081526004016127389061613a565b60405180910390fd5b612749613e90565b565b6000606560009054906101000a900473ffffffffffffffffffffffffffffffffffffffff16905090565b60cd5481565b60d56020528060005260406000206000915090505481565b606061279d61345e565b60030180546127ab90616658565b80601f01602080910402602001604051908101604052809291908181526020018280546127d790616658565b80156128245780601f106127f957610100808354040283529160200191612824565b820191906000526020600020905b81548152906001019060200180831161280757829003601f168201915b5050505050905090565b60d66020528060005260406000206000915090508060000154908060010154908060020160009054906101000a900473ffffffffffffffffffffffffffffffffffffffff16905083565b6128806137a1565b73ffffffffffffffffffffffffffffffffffffffff168273ffffffffffffffffffffffffffffffffffffffff1614156128e5576040517fb06307db00000000000000000000000000000000000000000000000000000000815260040160405180910390fd5b806128ee61345e565b60070160006128fb6137a1565b73ffffffffffffffffffffffffffffffffffffffff1673ffffffffffffffffffffffffffffffffffffffff16815260200190815260200160002060008473ffffffffffffffffffffffffffffffffffffffff1673ffffffffffffffffffffffffffffffffffffffff16815260200190815260200160002060006101000a81548160ff0219169083151502179055508173ffffffffffffffffffffffffffffffffffffffff166129a86137a1565b73ffffffffffffffffffffffffffffffffffffffff167f17307eab39ab6107e8899845ad3d59bd9653f200f220920489ca2b5937696c31836040516129ed9190615e62565b60405180910390a35050565b612a01613983565b73ffffffffffffffffffffffffffffffffffffffff16612a1f61274b565b73ffffffffffffffffffffffffffffffffffffffff1614612a75576040517f08c379a0000000000000000000000000000000000000000000000000000000008152600401612a6c9061613a565b60405180910390fd5b612a7d612527565b15612abd576040517f08c379a0000000000000000000000000000000000000000000000000000000008152600401612ab49061605a565b60405180910390fd5b600460ca60146101000a81548160ff02191690836004811115612ae357612ae26167c1565b5b0217905550600160d460006101000a81548160ff021916908315150217905550565b60d460029054906101000a900460ff1681565b612b20613983565b73ffffffffffffffffffffffffffffffffffffffff16612b3e61274b565b73ffffffffffffffffffffffffffffffffffffffff1614612b94576040517f08c379a0000000000000000000000000000000000000000000000000000000008152600401612b8b9061613a565b60405180910390fd5b612b9c612527565b15612bdc576040517f08c379a0000000000000000000000000000000000000000000000000000000008152600401612bd39061605a565b60405180910390fd5b600160ca60146101000a81548160ff02191690836004811115612c0257612c016167c1565b5b0217905550565b60606000612c15611763565b905060008167ffffffffffffffff811115612c3357612c3261684e565b5b604051908082528060200260200182016040528015612c615781602001602082028036833780820191505090505b5090506000805b83811015612d1c578573ffffffffffffffffffffffffffffffffffffffff1660d6600083815260200190815260200160002060020160009054906101000a900473ffffffffffffffffffffffffffffffffffffffff1673ffffffffffffffffffffffffffffffffffffffff161415612d095780838381518110612cee57612ced61681f565b5b6020026020010181815250508180612d05906166bb565b9250505b8080612d14906166bb565b915050612c68565b5060008167ffffffffffffffff811115612d3957612d3861684e565b5b604051908082528060200260200182016040528015612d675781602001602082028036833780820191505090505b50905060005b82811015612dc257838181518110612d8857612d8761681f565b5b6020026020010151828281518110612da357612da261681f565b5b6020026020010181815250508080612dba906166bb565b915050612d6d565b5080945050505050919050565b612dd7613983565b73ffffffffffffffffffffffffffffffffffffffff16612df561274b565b73ffffffffffffffffffffffffffffffffffffffff1614612e4b576040517f08c379a0000000000000000000000000000000000000000000000000000000008152600401612e429061613a565b60405180910390fd5b8060cd8190555050565b612e6084848461178c565b60008373ffffffffffffffffffffffffffffffffffffffff163b14612ec257612e8b84848484613f33565b612ec1576040517fd1a57ed600000000000000000000000000000000000000000000000000000000815260040160405180910390fd5b5b50505050565b60ce5481565b60d460019054906101000a900460ff1681565b6060612eec82613730565b612f2b576040517f08c379a0000000000000000000000000000000000000000000000000000000008152600401612f229061615a565b60405180910390fd5b6000151560d460009054906101000a900460ff1615151415612fa557600060d18054612f5690616658565b905011612f725760405180602001604052806000815250612f9e565b60d1612f7d83614093565b604051602001612f8e929190615d3a565b6040516020818303038152906040525b9050612ffe565b6000612faf6141f4565b90506000815111612fcf5760405180602001604052806000815250612ffa565b80612fd984614093565b604051602001612fea929190615d0b565b6040516020818303038152906040525b9150505b919050565b61300b613983565b73ffffffffffffffffffffffffffffffffffffffff1661302961274b565b73ffffffffffffffffffffffffffffffffffffffff161461307f576040517f08c379a00000000000000000000000000000000000000000000000000000000081526004016130769061613a565b60405180910390fd5b613087612527565b156130c7576040517f08c379a00000000000000000000000000000000000000000000000000000000081526004016130be9061605a565b60405180910390fd5b600260ca60146101000a81548160ff021916908360048111156130ed576130ec6167c1565b5b0217905550565b60ca60149054906101000a900460ff1681565b600061319083838080601f016020809104026020016040519081016040528093929190818152602001838380828437600081840152601f19601f820116905080830192505050505050506131823033604051602001613167929190615cdf565b6040516020818303038152906040528051906020012061398b565b6139bb90919063ffffffff16565b905092915050565b60cc5481565b6131ab3383836001613a92565b5050565b60d460039054906101000a900460ff1681565b60006131cc61345e565b60070160008473ffffffffffffffffffffffffffffffffffffffff1673ffffffffffffffffffffffffffffffffffffffff16815260200190815260200160002060008373ffffffffffffffffffffffffffffffffffffffff1673ffffffffffffffffffffffffffffffffffffffff16815260200190815260200160002060009054906101000a900460ff16905092915050565b613267613983565b73ffffffffffffffffffffffffffffffffffffffff1661328561274b565b73ffffffffffffffffffffffffffffffffffffffff16146132db576040517f08c379a00000000000000000000000000000000000000000000000000000000081526004016132d29061613a565b60405180910390fd5b6001151560d460039054906101000a900460ff16151514613331576040517f08c379a00000000000000000000000000000000000000000000000000000000081526004016133289061617a565b60405180910390fd5b8060d19080519060200190613347929190614f3f565b50600060d460036101000a81548160ff02191690831515021790555050565b61336e613983565b73ffffffffffffffffffffffffffffffffffffffff1661338c61274b565b73ffffffffffffffffffffffffffffffffffffffff16146133e2576040517f08c379a00000000000000000000000000000000000000000000000000000000081526004016133d99061613a565b60405180910390fd5b600073ffffffffffffffffffffffffffffffffffffffff168173ffffffffffffffffffffffffffffffffffffffff161415613452576040517f08c379a000000000000000000000000000000000000000000000000000000000815260040161344990615fba565b60405180910390fd5b61345b81613dca565b50565b6000807f2569078dfb4b0305704d3008e7403993ae9601b85f7ae5e742de3de8f8011c4090508091505090565b6000807fee151c8401928dc223602bb187aff91b9a56c7cae5476ef1b3287b085a16c85f90508091505090565b6000803090506000813b9050600081149250505090565b60008060019054906101000a900460ff16156135465760018260ff161480156134fe57506134fc30614286565b155b61353d576040517f08c379a0000000000000000000000000000000000000000000000000000000008152600401613534906160ba565b60405180910390fd5b600090506135ba565b8160ff1660008054906101000a900460ff1660ff161061359b576040517f08c379a0000000000000000000000000000000000000000000000000000000008152600401613592906160ba565b60405180910390fd5b816000806101000a81548160ff021916908360ff160217905550600190505b919050565b6135c761348b565b60000160019054906101000a900460ff16613617576040517f08c379a000000000000000000000000000000000000000000000000000000000815260040161360e90615f9a565b60405180910390fd5b61362182826142a9565b5050565b600060019054906101000a900460ff16613674576040517f08c379a000000000000000000000000000000000000000000000000000000000815260040161366b906161fa565b60405180910390fd5b61367c61435c565b565b600060019054906101000a900460ff166136cd576040517f08c379a00000000000000000000000000000000000000000000000000000000081526004016136c4906161fa565b60405180910390fd5b6136d56143bd565b565b600060019054906101000a900460ff16613726576040517f08c379a000000000000000000000000000000000000000000000000000000000815260040161371d906161fa565b60405180910390fd5b61372e614429565b565b60008161373b6137c7565b11158015613753575061374c61345e565b6000015482105b801561379a575060007c010000000000000000000000000000000000000000000000000000000061378261345e565b60040160008581526020019081526020016000205416145b9050919050565b600033905090565b6137c3828260405180602001604052806000815250614481565b5050565b600090565b600080829050806137db6137c7565b1161387e576137e861345e565b6000015481101561387d5760006137fd61345e565b600401600083815260200190815260200160002054905060007c01000000000000000000000000000000000000000000000000000000008216141561387b575b60008114156138715761384e61345e565b60040160008360019003935083815260200190815260200160002054905061383d565b80925050506138b0565b505b5b6040517fdf2d9b4200000000000000000000000000000000000000000000000000000000815260040160405180910390fd5b919050565b60008060006138c261345e565b60060190508360005280602052604060002092508254915050915091565b600073ffffffffffffffffffffffffffffffffffffffff8316925073ffffffffffffffffffffffffffffffffffffffff821691508382148383141790509392505050565b50505050565b60008060e883901c905060e8613941868684614531565b62ffffff16901b9150509392505050565b600073ffffffffffffffffffffffffffffffffffffffff83169250814260a01b178317905092915050565b50505050565b600033905090565b60008160405160200161399e9190615d69565b604051602081830303815290604052805190602001209050919050565b60008060006139ca858561453a565b915091506139d7816145bd565b819250505092915050565b6139ed816000614792565b50565b6139f8612527565b613a37576040517f08c379a0000000000000000000000000000000000000000000000000000000008152600401613a2e90615f3a565b60405180910390fd5b6000609760006101000a81548160ff0219169083151502179055507f5db9ee0a495bf2e6ff9c91a7834c1ba4fdd244a5e8aa4e537bd38aeae4b073aa613a7b613983565b604051613a889190615d8f565b60405180910390a1565b600080600080600090505b86869050811015613cc557868682818110613abb57613aba61681f565b5b905060200201359350600060d6600086815260200190815260200160002060405180606001604052908160008201548152602001600182015481526020016002820160009054906101000a900473ffffffffffffffffffffffffffffffffffffffff1673ffffffffffffffffffffffffffffffffffffffff1673ffffffffffffffffffffffffffffffffffffffff168152505090508873ffffffffffffffffffffffffffffffffffffffff16816040015173ffffffffffffffffffffffffffffffffffffffff1614613bc2576040517f08c379a0000000000000000000000000000000000000000000000000000000008152600401613bb99061607a565b60405180910390fd5b600081602001519050610e1060d3548242613bdd919061650e565b613be791906164b4565b613bf19190616483565b94508484613bff919061642d565b935060405180606001604052808762ffffff1681526020014265ffffffffffff1681526020018b73ffffffffffffffffffffffffffffffffffffffff1681525060d66000888152602001908152602001600020600082015181600001556020820151816001015560408201518160020160006101000a81548173ffffffffffffffffffffffffffffffffffffffff021916908373ffffffffffffffffffffffffffffffffffffffff16021790555090505050508080613cbd906166bb565b915050613a9d565b506000811115613d615760ca60009054906101000a900473ffffffffffffffffffffffffffffffffffffffff1673ffffffffffffffffffffffffffffffffffffffff1663731133e98885846040518463ffffffff1660e01b8152600401613d2e93929190615df6565b600060405180830381600087803b158015613d4857600080fd5b505af1158015613d5c573d6000803e3d6000fd5b505050505b8315613d7357613d72878787614a1c565b5b8673ffffffffffffffffffffffffffffffffffffffff167fd8138f8a3f377c5259ca548e70e4c2de94f129f5a11036a15b69513cba2b426a82604051613db9919061629a565b60405180910390a250505050505050565b6000606560009054906101000a900473ffffffffffffffffffffffffffffffffffffffff16905081606560006101000a81548173ffffffffffffffffffffffffffffffffffffffff021916908373ffffffffffffffffffffffffffffffffffffffff1602179055508173ffffffffffffffffffffffffffffffffffffffff168173ffffffffffffffffffffffffffffffffffffffff167f8be0079c531659141344cd1fd0a4f28419497f9722a3daafe3b4186f6b6457e060405160405180910390a35050565b613e98612527565b15613ed8576040517f08c379a0000000000000000000000000000000000000000000000000000000008152600401613ecf9061605a565b60405180910390fd5b6001609760006101000a81548160ff0219169083151502179055507f62e78cea01bee320cd4e420270b5ea74000d11b0c9f74754ebdbfc544b05a258613f1c613983565b604051613f299190615d8f565b60405180910390a1565b60008373ffffffffffffffffffffffffffffffffffffffff1663150b7a02613f596137a1565b8786866040518563ffffffff1660e01b8152600401613f7b9493929190615daa565b602060405180830381600087803b158015613f9557600080fd5b505af1925050508015613fc657506040513d601f19601f82011682018060405250810190613fc39190615489565b60015b614040573d8060008114613ff6576040519150601f19603f3d011682016040523d82523d6000602084013e613ffb565b606091505b50600081511415614038576040517fd1a57ed600000000000000000000000000000000000000000000000000000000815260040160405180910390fd5b805181602001fd5b63150b7a0260e01b7bffffffffffffffffffffffffffffffffffffffffffffffffffffffff1916817bffffffffffffffffffffffffffffffffffffffffffffffffffffffff191614915050949350505050565b606060008214156140db576040518060400160405280600181526020017f300000000000000000000000000000000000000000000000000000000000000081525090506141ef565b600082905060005b6000821461410d5780806140f6906166bb565b915050600a826141069190616483565b91506140e3565b60008167ffffffffffffffff8111156141295761412861684e565b5b6040519080825280601f01601f19166020018201604052801561415b5781602001600182028036833780820191505090505b5090505b600085146141e857600182614174919061650e565b9150600a856141839190616732565b603061418f919061642d565b60f81b8183815181106141a5576141a461681f565b5b60200101907effffffffffffffffffffffffffffffffffffffffffffffffffffffffffffff1916908160001a905350600a856141e19190616483565b945061415f565b8093505050505b919050565b606060d0805461420390616658565b80601f016020809104026020016040519081016040528092919081815260200182805461422f90616658565b801561427c5780601f106142515761010080835404028352916020019161427c565b820191906000526020600020905b81548152906001019060200180831161425f57829003601f168201915b5050505050905090565b6000808273ffffffffffffffffffffffffffffffffffffffff163b119050919050565b6142b161348b565b60000160019054906101000a900460ff16614301576040517f08c379a00000000000000000000000000000000000000000000000000000000081526004016142f890615f9a565b60405180910390fd5b8161430a61345e565b6002019080519060200190614320929190614f3f565b508061432a61345e565b6003019080519060200190614340929190614f3f565b506143496137c7565b61435161345e565b600001819055505050565b600060019054906101000a900460ff166143ab576040517f08c379a00000000000000000000000000000000000000000000000000000000081526004016143a2906161fa565b60405180910390fd5b6143bb6143b6613983565b613dca565b565b600060019054906101000a900460ff1661440c576040517f08c379a0000000000000000000000000000000000000000000000000000000008152600401614403906161fa565b60405180910390fd5b6000609760006101000a81548160ff021916908315150217905550565b600060019054906101000a900460ff16614478576040517f08c379a000000000000000000000000000000000000000000000000000000000815260040161446f906161fa565b60405180910390fd5b60018081905550565b61448b8383614bca565b60008373ffffffffffffffffffffffffffffffffffffffff163b1461452c5760006144b461345e565b600001549050600083820390505b6144d56000868380600101945086613f33565b61450b576040517fd1a57ed600000000000000000000000000000000000000000000000000000000815260040160405180910390fd5b8181106144c2578161451b61345e565b600001541461452957600080fd5b50505b505050565b60009392505050565b60008060418351141561457c5760008060006020860151925060408601519150606086015160001a905061457087828585614dc3565b945094505050506145b6565b6040835114156145ad5760008060208501519150604085015190506145a2868383614ed0565b9350935050506145b6565b60006002915091505b9250929050565b600060048111156145d1576145d06167c1565b5b8160048111156145e4576145e36167c1565b5b14156145ef5761478f565b60016004811115614603576146026167c1565b5b816004811115614616576146156167c1565b5b1415614657576040517f08c379a000000000000000000000000000000000000000000000000000000000815260040161464e90615f1a565b60405180910390fd5b6002600481111561466b5761466a6167c1565b5b81600481111561467e5761467d6167c1565b5b14156146bf576040517f08c379a00000000000000000000000000000000000000000000000000000000081526004016146b690615f7a565b60405180910390fd5b600360048111156146d3576146d26167c1565b5b8160048111156146e6576146e56167c1565b5b1415614727576040517f08c379a000000000000000000000000000000000000000000000000000000000815260040161471e9061603a565b60405180910390fd5b60048081111561473a576147396167c1565b5b81600481111561474d5761474c6167c1565b5b141561478e576040517f08c379a0000000000000000000000000000000000000000000000000000000008152600401614785906160fa565b60405180910390fd5b5b50565b600061479d836137cc565b905060008190506000806147b0866138b5565b915091508415614819576147cc81846147c76137a1565b6138e0565b614818576147e1836147dc6137a1565b6131c2565b614817576040517f59c896be00000000000000000000000000000000000000000000000000000000815260040160405180910390fd5b5b5b614827836000886001613924565b801561483257600082555b600160806001901b0361484361345e565b60050160008573ffffffffffffffffffffffffffffffffffffffff1673ffffffffffffffffffffffffffffffffffffffff168152602001908152602001600020600082825401925050819055506148e3836148a08560008861392a565b7c02000000000000000000000000000000000000000000000000000000007c01000000000000000000000000000000000000000000000000000000001717613952565b6148eb61345e565b60040160008881526020019081526020016000208190555060007c02000000000000000000000000000000000000000000000000000000008516141561498f576000600187019050600061493d61345e565b600401600083815260200190815260200160002054141561498d5761496061345e565b60000154811461498c578461497361345e565b6004016000838152602001908152602001600020819055505b5b505b85600073ffffffffffffffffffffffffffffffffffffffff168473ffffffffffffffffffffffffffffffffffffffff167fddf252ad1be2c89b69c2b068fc378daa952ba7f163c4a11628f55a4df523b3ef60405160405180910390a46149f983600088600161397d565b614a0161345e565b60010160008154809291906001019190505550505050505050565b60008282905060cf6000828254614a33919061650e565b9250508190555060005b83839050811015614bc357838382818110614a5b57614a5a61681f565b5b9050602002013591503373ffffffffffffffffffffffffffffffffffffffff1660d6600084815260200190815260200160002060020160009054906101000a900473ffffffffffffffffffffffffffffffffffffffff1673ffffffffffffffffffffffffffffffffffffffff1614614b08576040517f08c379a0000000000000000000000000000000000000000000000000000000008152600401614aff9061627a565b60405180910390fd5b8473ffffffffffffffffffffffffffffffffffffffff167f7fc4727e062e336010f2c282598ef5f14facb3de68cf8195c2f23e1454b2b74e8342604051614b509291906162b5565b60405180910390a260d6600083815260200190815260200160002060008082016000905560018201600090556002820160006101000a81549073ffffffffffffffffffffffffffffffffffffffff02191690555050614bb030868461178c565b8080614bbb906166bb565b915050614a3d565b5050505050565b6000614bd461345e565b600001549050600073ffffffffffffffffffffffffffffffffffffffff168373ffffffffffffffffffffffffffffffffffffffff161415614c41576040517f2e07630000000000000000000000000000000000000000000000000000000000815260040160405180910390fd5b6000821415614c7c576040517fb562e8dd00000000000000000000000000000000000000000000000000000000815260040160405180910390fd5b614c896000848385613924565b600160406001901b178202614c9c61345e565b60050160008573ffffffffffffffffffffffffffffffffffffffff1673ffffffffffffffffffffffffffffffffffffffff16815260200190815260200160002060008282540192505081905550614d0983614cfa600086600061392a565b614d0385614f2f565b17613952565b614d1161345e565b6004016000838152602001908152602001600020819055506000819050600083830190505b818060010192508573ffffffffffffffffffffffffffffffffffffffff16600073ffffffffffffffffffffffffffffffffffffffff167fddf252ad1be2c89b69c2b068fc378daa952ba7f163c4a11628f55a4df523b3ef60405160405180910390a4808210614d365780614da861345e565b600001819055505050614dbe600084838561397d565b505050565b6000807f7fffffffffffffffffffffffffffffff5d576e7357a4501ddfe92f46681b20a08360001c1115614dfe576000600391509150614ec7565b601b8560ff1614158015614e165750601c8560ff1614155b15614e28576000600491509150614ec7565b600060018787878760405160008152602001604052604051614e4d9493929190615e7d565b6020604051602081039080840390855afa158015614e6f573d6000803e3d6000fd5b505050602060405103519050600073ffffffffffffffffffffffffffffffffffffffff168173ffffffffffffffffffffffffffffffffffffffff161415614ebe57600060019250925050614ec7565b80600092509250505b94509492505050565b60008060007f7fffffffffffffffffffffffffffffffffffffffffffffffffffffffffffffff60001b841690506000601b60ff8660001c901c614f13919061642d565b9050614f2187828885614dc3565b935093505050935093915050565b60006001821460e11b9050919050565b828054614f4b90616658565b90600052602060002090601f016020900481019282614f6d5760008555614fb4565b82601f10614f8657805160ff1916838001178555614fb4565b82800160010185558215614fb4579182015b82811115614fb3578251825591602001919060010190614f98565b5b509050614fc19190614fc5565b5090565b5b80821115614fde576000816000905550600101614fc6565b5090565b6000614ff5614ff08461633a565b616315565b9050828152602081018484840111156150115761501061688c565b5b61501c848285616616565b509392505050565b60006150376150328461636b565b616315565b9050828152602081018484840111156150535761505261688c565b5b61505e848285616616565b509392505050565b60008135905061507581616f1a565b92915050565b60008083601f84011261509157615090616882565b5b8235905067ffffffffffffffff8111156150ae576150ad61687d565b5b6020830191508360208202830111156150ca576150c9616887565b5b9250929050565b6000813590506150e081616f31565b92915050565b6000813590506150f581616f48565b92915050565b60008151905061510a81616f48565b92915050565b60008083601f84011261512657615125616882565b5b8235905067ffffffffffffffff8111156151435761514261687d565b5b60208301915083600182028301111561515f5761515e616887565b5b9250929050565b600082601f83011261517b5761517a616882565b5b813561518b848260208601614fe2565b91505092915050565b6000813590506151a381616f5f565b92915050565b600082601f8301126151be576151bd616882565b5b81356151ce848260208601615024565b91505092915050565b6000813590506151e681616f76565b92915050565b60006020828403121561520257615201616896565b5b600061521084828501615066565b91505092915050565b600080604083850312156152305761522f616896565b5b600061523e85828601615066565b925050602061524f85828601615066565b9150509250929050565b60008060006060848603121561527257615271616896565b5b600061528086828701615066565b935050602061529186828701615066565b92505060406152a2868287016151d7565b9150509250925092565b600080600080608085870312156152c6576152c5616896565b5b60006152d487828801615066565b94505060206152e587828801615066565b93505060406152f6878288016151d7565b925050606085013567ffffffffffffffff81111561531757615316616891565b5b61532387828801615166565b91505092959194509250565b60008060006040848603121561534857615347616896565b5b600061535686828701615066565b935050602084013567ffffffffffffffff81111561537757615376616891565b5b6153838682870161507b565b92509250509250925092565b600080604083850312156153a6576153a5616896565b5b60006153b485828601615066565b92505060206153c5858286016150d1565b9150509250929050565b600080604083850312156153e6576153e5616896565b5b60006153f485828601615066565b9250506020615405858286016151d7565b9150509250929050565b6000806020838503121561542657615425616896565b5b600083013567ffffffffffffffff81111561544457615443616891565b5b6154508582860161507b565b92509250509250929050565b60006020828403121561547257615471616896565b5b6000615480848285016150e6565b91505092915050565b60006020828403121561549f5761549e616896565b5b60006154ad848285016150fb565b91505092915050565b600080602083850312156154cd576154cc616896565b5b600083013567ffffffffffffffff8111156154eb576154ea616891565b5b6154f785828601615110565b92509250509250929050565b60006020828403121561551957615518616896565b5b600082013567ffffffffffffffff81111561553757615536616891565b5b615543848285016151a9565b91505092915050565b60008060006060848603121561556557615564616896565b5b600084013567ffffffffffffffff81111561558357615582616891565b5b61558f868287016151a9565b935050602084013567ffffffffffffffff8111156155b0576155af616891565b5b6155bc868287016151a9565b92505060406155cd86828701615194565b9150509250925092565b6000602082840312156155ed576155ec616896565b5b60006155fb848285016151d7565b91505092915050565b60008060006040848603121561561d5761561c616896565b5b600061562b868287016151d7565b935050602084013567ffffffffffffffff81111561564c5761564b616891565b5b61565886828701615110565b92509250509250925092565b60006156708383615cb2565b60208301905092915050565b61568581616542565b82525050565b61569c61569782616542565b616704565b82525050565b60006156ad826163c1565b6156b781856163ef565b93506156c28361639c565b8060005b838110156156f35781516156da8882615664565b97506156e5836163e2565b9250506001810190506156c6565b5085935050505092915050565b61570981616554565b82525050565b61571881616560565b82525050565b61572f61572a82616560565b616716565b82525050565b6000615740826163cc565b61574a8185616400565b935061575a818560208601616625565b6157638161689b565b840191505092915050565b615777816165f2565b82525050565b61578681616604565b82525050565b6000615797826163d7565b6157a18185616411565b93506157b1818560208601616625565b6157ba8161689b565b840191505092915050565b60006157d0826163d7565b6157da8185616422565b93506157ea818560208601616625565b80840191505092915050565b6000815461580381616658565b61580d8186616422565b9450600182166000811461582857600181146158395761586c565b60ff1983168652818601935061586c565b615842856163ac565b60005b8381101561586457815481890152600182019150602081019050615845565b838801955050505b50505092915050565b6000615882601883616411565b915061588d826168b9565b602082019050919050565b60006158a5601483616411565b91506158b0826168e2565b602082019050919050565b60006158c8601883616411565b91506158d38261690b565b602082019050919050565b60006158eb601f83616411565b91506158f682616934565b602082019050919050565b600061590e601c83616422565b91506159198261695d565b601c82019050919050565b6000615931603483616411565b915061593c82616986565b604082019050919050565b6000615954602683616411565b915061595f826169d5565b604082019050919050565b6000615977601f83616411565b915061598282616a24565b602082019050919050565b600061599a601483616411565b91506159a582616a4d565b602082019050919050565b60006159bd600d83616411565b91506159c882616a76565b602082019050919050565b60006159e0602283616411565b91506159eb82616a9f565b604082019050919050565b6000615a03601083616411565b9150615a0e82616aee565b602082019050919050565b6000615a26601b83616411565b9150615a3182616b17565b602082019050919050565b6000615a49600d83616411565b9150615a5482616b40565b602082019050919050565b6000615a6c602e83616411565b9150615a7782616b69565b604082019050919050565b6000615a8f603783616411565b9150615a9a82616bb8565b604082019050919050565b6000615ab2602283616411565b9150615abd82616c07565b604082019050919050565b6000615ad5600583616422565b9150615ae082616c56565b600582019050919050565b6000615af8603883616411565b9150615b0382616c7f565b604082019050919050565b6000615b1b602083616411565b9150615b2682616cce565b602082019050919050565b6000615b3e602f83616411565b9150615b4982616cf7565b604082019050919050565b6000615b61602083616411565b9150615b6c82616d46565b602082019050919050565b6000615b84601983616411565b9150615b8f82616d6f565b602082019050919050565b6000615ba7600e83616411565b9150615bb282616d98565b602082019050919050565b6000615bca600083616400565b9150615bd582616dc1565b600082019050919050565b6000615bed601c83616411565b9150615bf882616dc4565b602082019050919050565b6000615c10602b83616411565b9150615c1b82616ded565b604082019050919050565b6000615c33602483616411565b9150615c3e82616e3c565b604082019050919050565b6000615c56601f83616411565b9150615c6182616e8b565b602082019050919050565b6000615c79601b83616411565b9150615c8482616eb4565b602082019050919050565b6000615c9c600983616411565b9150615ca782616edd565b602082019050919050565b615cbb816165db565b82525050565b615cca816165db565b82525050565b615cd9816165e5565b82525050565b6000615ceb828561568b565b601482019150615cfb828461568b565b6014820191508190509392505050565b6000615d1782856157c5565b9150615d2382846157c5565b9150615d2e82615ac8565b91508190509392505050565b6000615d4682856157f6565b9150615d5282846157c5565b9150615d5d82615ac8565b91508190509392505050565b6000615d7482615901565b9150615d80828461571e565b60208201915081905092915050565b6000602082019050615da4600083018461567c565b92915050565b6000608082019050615dbf600083018761567c565b615dcc602083018661567c565b615dd96040830185615cc1565b8181036060830152615deb8184615735565b905095945050505050565b6000608082019050615e0b600083018661567c565b615e186020830185615cc1565b615e256040830184615cc1565b8181036060830152615e3681615bbd565b9050949350505050565b60006020820190508181036000830152615e5a81846156a2565b905092915050565b6000602082019050615e776000830184615700565b92915050565b6000608082019050615e92600083018761570f565b615e9f6020830186615cd0565b615eac604083018561570f565b615eb9606083018461570f565b95945050505050565b6000602082019050615ed7600083018461576e565b92915050565b6000602082019050615ef2600083018461577d565b92915050565b60006020820190508181036000830152615f12818461578c565b905092915050565b60006020820190508181036000830152615f3381615875565b9050919050565b60006020820190508181036000830152615f5381615898565b9050919050565b60006020820190508181036000830152615f73816158bb565b9050919050565b60006020820190508181036000830152615f93816158de565b9050919050565b60006020820190508181036000830152615fb381615924565b9050919050565b60006020820190508181036000830152615fd381615947565b9050919050565b60006020820190508181036000830152615ff38161596a565b9050919050565b600060208201905081810360008301526160138161598d565b9050919050565b60006020820190508181036000830152616033816159b0565b9050919050565b60006020820190508181036000830152616053816159d3565b9050919050565b60006020820190508181036000830152616073816159f6565b9050919050565b6000602082019050818103600083015261609381615a19565b9050919050565b600060208201905081810360008301526160b381615a3c565b9050919050565b600060208201905081810360008301526160d381615a5f565b9050919050565b600060208201905081810360008301526160f381615a82565b9050919050565b6000602082019050818103600083015261611381615aa5565b9050919050565b6000602082019050818103600083015261613381615aeb565b9050919050565b6000602082019050818103600083015261615381615b0e565b9050919050565b6000602082019050818103600083015261617381615b31565b9050919050565b6000602082019050818103600083015261619381615b54565b9050919050565b600060208201905081810360008301526161b381615b77565b9050919050565b600060208201905081810360008301526161d381615b9a565b9050919050565b600060208201905081810360008301526161f381615be0565b9050919050565b6000602082019050818103600083015261621381615c03565b9050919050565b6000602082019050818103600083015261623381615c26565b9050919050565b6000602082019050818103600083015261625381615c49565b9050919050565b6000602082019050818103600083015261627381615c6c565b9050919050565b6000602082019050818103600083015261629381615c8f565b9050919050565b60006020820190506162af6000830184615cc1565b92915050565b60006040820190506162ca6000830185615cc1565b6162d76020830184615cc1565b9392505050565b60006060820190506162f36000830186615cc1565b6163006020830185615cc1565b61630d604083018461567c565b949350505050565b600061631f616330565b905061632b828261668a565b919050565b6000604051905090565b600067ffffffffffffffff8211156163555761635461684e565b5b61635e8261689b565b9050602081019050919050565b600067ffffffffffffffff8211156163865761638561684e565b5b61638f8261689b565b9050602081019050919050565b6000819050602082019050919050565b60008190508160005260206000209050919050565b600081519050919050565b600081519050919050565b600081519050919050565b6000602082019050919050565b600082825260208201905092915050565b600082825260208201905092915050565b600082825260208201905092915050565b600081905092915050565b6000616438826165db565b9150616443836165db565b9250827fffffffffffffffffffffffffffffffffffffffffffffffffffffffffffffffff0382111561647857616477616763565b5b828201905092915050565b600061648e826165db565b9150616499836165db565b9250826164a9576164a8616792565b5b828204905092915050565b60006164bf826165db565b91506164ca836165db565b9250817fffffffffffffffffffffffffffffffffffffffffffffffffffffffffffffffff048311821515161561650357616502616763565b5b828202905092915050565b6000616519826165db565b9150616524836165db565b92508282101561653757616536616763565b5b828203905092915050565b600061654d826165bb565b9050919050565b60008115159050919050565b6000819050919050565b60007fffffffff0000000000000000000000000000000000000000000000000000000082169050919050565b60006165a182616542565b9050919050565b60008190506165b682616f06565b919050565b600073ffffffffffffffffffffffffffffffffffffffff82169050919050565b6000819050919050565b600060ff82169050919050565b60006165fd826165a8565b9050919050565b600061660f826165e5565b9050919050565b82818337600083830152505050565b60005b83811015616643578082015181840152602081019050616628565b83811115616652576000848401525b50505050565b6000600282049050600182168061667057607f821691505b60208210811415616684576166836167f0565b5b50919050565b6166938261689b565b810181811067ffffffffffffffff821117156166b2576166b161684e565b5b80604052505050565b60006166c6826165db565b91507fffffffffffffffffffffffffffffffffffffffffffffffffffffffffffffffff8214156166f9576166f8616763565b5b600182019050919050565b600061670f82616720565b9050919050565b6000819050919050565b600061672b826168ac565b9050919050565b600061673d826165db565b9150616748836165db565b92508261675857616757616792565b5b828206905092915050565b7f4e487b7100000000000000000000000000000000000000000000000000000000600052601160045260246000fd5b7f4e487b7100000000000000000000000000000000000000000000000000000000600052601260045260246000fd5b7f4e487b7100000000000000000000000000000000000000000000000000000000600052602160045260246000fd5b7f4e487b7100000000000000000000000000000000000000000000000000000000600052602260045260246000fd5b7f4e487b7100000000000000000000000000000000000000000000000000000000600052603260045260246000fd5b7f4e487b7100000000000000000000000000000000000000000000000000000000600052604160045260246000fd5b600080fd5b600080fd5b600080fd5b600080fd5b600080fd5b600080fd5b6000601f19601f8301169050919050565b60008160601b9050919050565b7f45434453413a20696e76616c6964207369676e61747572650000000000000000600082015250565b7f5061757361626c653a206e6f7420706175736564000000000000000000000000600082015250565b7f5369676e65722061646472657373206d69736d617463682e0000000000000000600082015250565b7f45434453413a20696e76616c6964207369676e6174757265206c656e67746800600082015250565b7f19457468657265756d205369676e6564204d6573736167653a0a333200000000600082015250565b7f455243373231415f5f496e697469616c697a61626c653a20636f6e747261637460008201527f206973206e6f7420696e697469616c697a696e67000000000000000000000000602082015250565b7f4f776e61626c653a206e6577206f776e657220697320746865207a65726f206160008201527f6464726573730000000000000000000000000000000000000000000000000000602082015250565b7f596f752063616e2774206d696e74206d6f7265207468616e2058206e66747300600082015250565b7f536f7272792c206e6f206e667473206c6566742e000000000000000000000000600082015250565b7f4d6178204e4654206c696d697400000000000000000000000000000000000000600082015250565b7f45434453413a20696e76616c6964207369676e6174757265202773272076616c60008201527f7565000000000000000000000000000000000000000000000000000000000000602082015250565b7f5061757361626c653a2070617573656400000000000000000000000000000000600082015250565b7f6e6f74206f776e65722063616e7420636c61696d207265776172640000000000600082015250565b7f4e6f7420746865206f776e657200000000000000000000000000000000000000600082015250565b7f496e697469616c697a61626c653a20636f6e747261637420697320616c72656160008201527f647920696e697469616c697a6564000000000000000000000000000000000000602082015250565b7f455243373231415f5f496e697469616c697a61626c653a20636f6e747261637460008201527f20697320616c726561647920696e697469616c697a6564000000000000000000602082015250565b7f45434453413a20696e76616c6964207369676e6174757265202776272076616c60008201527f7565000000000000000000000000000000000000000000000000000000000000602082015250565b7f2e6a736f6e000000000000000000000000000000000000000000000000000000600082015250565b7f53616c6520697320616c6d6f737420646f6e6520616e6420776520646f6e277460008201527f206861766520656e6f75676874204e465473206c6566742e0000000000000000602082015250565b7f4f776e61626c653a2063616c6c6572206973206e6f7420746865206f776e6572600082015250565b7f4552433732314d657461646174613a2055524920717565727920666f72206e6f60008201527f6e6578697374656e7420746f6b656e0000000000000000000000000000000000602082015250565b7f596f752063616e206368616e67652074686520757269206f6e6c79206f6e6365600082015250565b7f53616c6520686173206e6f742073746172746564207965742e00000000000000600082015250565b7f416c7265616479205374616b6564000000000000000000000000000000000000600082015250565b50565b7f596f7520646f6e2774206861766520656e6f7567682066756e64732e00000000600082015250565b7f496e697469616c697a61626c653a20636f6e7472616374206973206e6f74206960008201527f6e697469616c697a696e67000000000000000000000000000000000000000000602082015250565b7f57686974656c697374656453616c6520686173206e6f7420737461727465642060008201527f7965742e00000000000000000000000000000000000000000000000000000000602082015250565b7f5265656e7472616e637947756172643a207265656e7472616e742063616c6c00600082015250565b7f4e65656420746f206d696e74206174206c656173742031204e46540000000000600082015250565b7f6e6f74206f776e65720000000000000000000000000000000000000000000000600082015250565b60058110616f1757616f166167c1565b5b50565b616f2381616542565b8114616f2e57600080fd5b50565b616f3a81616554565b8114616f4557600080fd5b50565b616f518161656a565b8114616f5c57600080fd5b50565b616f6881616596565b8114616f7357600080fd5b50565b616f7f816165db565b8114616f8a57600080fd5b5056fea26469706673582212200120b80110a8614a30862592b19a6aae1c97811573c61e5a44816b4535e12fde64736f6c63430008070033",
			"opcodes": "PUSH1 0x80 PUSH1 0x40 MSTORE CALLVALUE DUP1 ISZERO PUSH2 0x10 JUMPI PUSH1 0x0 DUP1 REVERT JUMPDEST POP PUSH2 0x6FC3 DUP1 PUSH3 0x21 PUSH1 0x0 CODECOPY PUSH1 0x0 RETURN INVALID PUSH1 0x80 PUSH1 0x40 MSTORE PUSH1 0x4 CALLDATASIZE LT PUSH2 0x335 JUMPI PUSH1 0x0 CALLDATALOAD PUSH1 0xE0 SHR DUP1 PUSH4 0x817B1CD2 GT PUSH2 0x1AB JUMPI DUP1 PUSH4 0xB0C07972 GT PUSH2 0xF7 JUMPI DUP1 PUSH4 0xCC351D00 GT PUSH2 0x95 JUMPI DUP1 PUSH4 0xE631E346 GT PUSH2 0x6F JUMPI DUP1 PUSH4 0xE631E346 EQ PUSH2 0xB97 JUMPI DUP1 PUSH4 0xE985E9C5 EQ PUSH2 0xBC2 JUMPI DUP1 PUSH4 0xF2C4CE1E EQ PUSH2 0xBFF JUMPI DUP1 PUSH4 0xF2FDE38B EQ PUSH2 0xC28 JUMPI PUSH2 0x335 JUMP JUMPDEST DUP1 PUSH4 0xCC351D00 EQ PUSH2 0xB06 JUMPI DUP1 PUSH4 0xE3F34A3D EQ PUSH2 0xB43 JUMPI DUP1 PUSH4 0xE449F341 EQ PUSH2 0xB6E JUMPI PUSH2 0x335 JUMP JUMPDEST DUP1 PUSH4 0xC62BFD8F GT PUSH2 0xD1 JUMPI DUP1 PUSH4 0xC62BFD8F EQ PUSH2 0xA5C JUMPI DUP1 PUSH4 0xC87B56DD EQ PUSH2 0xA87 JUMPI DUP1 PUSH4 0xCADD3E0C EQ PUSH2 0xAC4 JUMPI DUP1 PUSH4 0xCBCCEFB2 EQ PUSH2 0xADB JUMPI PUSH2 0x335 JUMP JUMPDEST DUP1 PUSH4 0xB0C07972 EQ PUSH2 0x9DF JUMPI DUP1 PUSH4 0xB88D4FDE EQ PUSH2 0xA08 JUMPI DUP1 PUSH4 0xBDE708F4 EQ PUSH2 0xA31 JUMPI PUSH2 0x335 JUMP JUMPDEST DUP1 PUSH4 0x95D89B41 GT PUSH2 0x164 JUMPI DUP1 PUSH4 0xA475B5DD GT PUSH2 0x13E JUMPI DUP1 PUSH4 0xA475B5DD EQ PUSH2 0x949 JUMPI DUP1 PUSH4 0xA84894B8 EQ PUSH2 0x960 JUMPI DUP1 PUSH4 0xAAEE8813 EQ PUSH2 0x98B JUMPI DUP1 PUSH4 0xAB5D2CE6 EQ PUSH2 0x9A2 JUMPI PUSH2 0x335 JUMP JUMPDEST DUP1 PUSH4 0x95D89B41 EQ PUSH2 0x8B6 JUMPI DUP1 PUSH4 0x97C0FFBF EQ PUSH2 0x8E1 JUMPI DUP1 PUSH4 0xA22CB465 EQ PUSH2 0x920 JUMPI PUSH2 0x335 JUMP JUMPDEST DUP1 PUSH4 0x817B1CD2 EQ PUSH2 0x7B6 JUMPI DUP1 PUSH4 0x82698AF2 EQ PUSH2 0x7E1 JUMPI DUP1 PUSH4 0x8456CB59 EQ PUSH2 0x80C JUMPI DUP1 PUSH4 0x8DA5CB5B EQ PUSH2 0x823 JUMPI DUP1 PUSH4 0x8F5E2E44 EQ PUSH2 0x84E JUMPI DUP1 PUSH4 0x949FB49C EQ PUSH2 0x879 JUMPI PUSH2 0x335 JUMP JUMPDEST DUP1 PUSH4 0x3F0C3135 GT PUSH2 0x285 JUMPI DUP1 PUSH4 0x55F804B3 GT PUSH2 0x223 JUMPI DUP1 PUSH4 0x6AE29DE9 GT PUSH2 0x1FD JUMPI DUP1 PUSH4 0x6AE29DE9 EQ PUSH2 0x70E JUMPI DUP1 PUSH4 0x6BA4C138 EQ PUSH2 0x739 JUMPI DUP1 PUSH4 0x70A08231 EQ PUSH2 0x762 JUMPI DUP1 PUSH4 0x715018A6 EQ PUSH2 0x79F JUMPI PUSH2 0x335 JUMP JUMPDEST DUP1 PUSH4 0x55F804B3 EQ PUSH2 0x67D JUMPI DUP1 PUSH4 0x5C975ABB EQ PUSH2 0x6A6 JUMPI DUP1 PUSH4 0x6352211E EQ PUSH2 0x6D1 JUMPI PUSH2 0x335 JUMP JUMPDEST DUP1 PUSH4 0x42842E0E GT PUSH2 0x25F JUMPI DUP1 PUSH4 0x42842E0E EQ PUSH2 0x5C1 JUMPI DUP1 PUSH4 0x4C7D857D EQ PUSH2 0x5EA JUMPI DUP1 PUSH4 0x51830227 EQ PUSH2 0x627 JUMPI DUP1 PUSH4 0x54214F69 EQ PUSH2 0x652 JUMPI PUSH2 0x335 JUMP JUMPDEST DUP1 PUSH4 0x3F0C3135 EQ PUSH2 0x563 JUMPI DUP1 PUSH4 0x3F355476 EQ PUSH2 0x58E JUMPI DUP1 PUSH4 0x3F4BA83A EQ PUSH2 0x5AA JUMPI PUSH2 0x335 JUMP JUMPDEST DUP1 PUSH4 0x144B3CB8 GT PUSH2 0x2F2 JUMPI DUP1 PUSH4 0x23B872DD GT PUSH2 0x2CC JUMPI DUP1 PUSH4 0x23B872DD EQ PUSH2 0x4CC JUMPI DUP1 PUSH4 0x2E8781E3 EQ PUSH2 0x4F5 JUMPI DUP1 PUSH4 0x32EAE8A4 EQ PUSH2 0x51E JUMPI DUP1 PUSH4 0x3D5EFEFE EQ PUSH2 0x53A JUMPI PUSH2 0x335 JUMP JUMPDEST DUP1 PUSH4 0x144B3CB8 EQ PUSH2 0x45A JUMPI DUP1 PUSH4 0x15B448F2 EQ PUSH2 0x485 JUMPI DUP1 PUSH4 0x18160DDD EQ PUSH2 0x4A1 JUMPI PUSH2 0x335 JUMP JUMPDEST DUP1 PUSH4 0x1FFC9A7 EQ PUSH2 0x33A JUMPI DUP1 PUSH4 0x6FDDE03 EQ PUSH2 0x377 JUMPI DUP1 PUSH4 0x77F224A EQ PUSH2 0x3A2 JUMPI DUP1 PUSH4 0x81812FC EQ PUSH2 0x3CB JUMPI DUP1 PUSH4 0x95EA7B3 EQ PUSH2 0x408 JUMPI DUP1 PUSH4 0xFBF0A93 EQ PUSH2 0x431 JUMPI JUMPDEST PUSH1 0x0 DUP1 REVERT JUMPDEST CALLVALUE DUP1 ISZERO PUSH2 0x346 JUMPI PUSH1 0x0 DUP1 REVERT JUMPDEST POP PUSH2 0x361 PUSH1 0x4 DUP1 CALLDATASIZE SUB DUP2 ADD SWAP1 PUSH2 0x35C SWAP2 SWAP1 PUSH2 0x545C JUMP JUMPDEST PUSH2 0xC51 JUMP JUMPDEST PUSH1 0x40 MLOAD PUSH2 0x36E SWAP2 SWAP1 PUSH2 0x5E62 JUMP JUMPDEST PUSH1 0x40 MLOAD DUP1 SWAP2 SUB SWAP1 RETURN JUMPDEST CALLVALUE DUP1 ISZERO PUSH2 0x383 JUMPI PUSH1 0x0 DUP1 REVERT JUMPDEST POP PUSH2 0x38C PUSH2 0xCE3 JUMP JUMPDEST PUSH1 0x40 MLOAD PUSH2 0x399 SWAP2 SWAP1 PUSH2 0x5EF8 JUMP JUMPDEST PUSH1 0x40 MLOAD DUP1 SWAP2 SUB SWAP1 RETURN JUMPDEST CALLVALUE DUP1 ISZERO PUSH2 0x3AE JUMPI PUSH1 0x0 DUP1 REVERT JUMPDEST POP PUSH2 0x3C9 PUSH1 0x4 DUP1 CALLDATASIZE SUB DUP2 ADD SWAP1 PUSH2 0x3C4 SWAP2 SWAP1 PUSH2 0x554C JUMP JUMPDEST PUSH2 0xD7E JUMP JUMPDEST STOP JUMPDEST CALLVALUE DUP1 ISZERO PUSH2 0x3D7 JUMPI PUSH1 0x0 DUP1 REVERT JUMPDEST POP PUSH2 0x3F2 PUSH1 0x4 DUP1 CALLDATASIZE SUB DUP2 ADD SWAP1 PUSH2 0x3ED SWAP2 SWAP1 PUSH2 0x55D7 JUMP JUMPDEST PUSH2 0x1059 JUMP JUMPDEST PUSH1 0x40 MLOAD PUSH2 0x3FF SWAP2 SWAP1 PUSH2 0x5D8F JUMP JUMPDEST PUSH1 0x40 MLOAD DUP1 SWAP2 SUB SWAP1 RETURN JUMPDEST CALLVALUE DUP1 ISZERO PUSH2 0x414 JUMPI PUSH1 0x0 DUP1 REVERT JUMPDEST POP PUSH2 0x42F PUSH1 0x4 DUP1 CALLDATASIZE SUB DUP2 ADD SWAP1 PUSH2 0x42A SWAP2 SWAP1 PUSH2 0x53CF JUMP JUMPDEST PUSH2 0x10DE JUMP JUMPDEST STOP JUMPDEST CALLVALUE DUP1 ISZERO PUSH2 0x43D JUMPI PUSH1 0x0 DUP1 REVERT JUMPDEST POP PUSH2 0x458 PUSH1 0x4 DUP1 CALLDATASIZE SUB DUP2 ADD SWAP1 PUSH2 0x453 SWAP2 SWAP1 PUSH2 0x540F JUMP JUMPDEST PUSH2 0x1228 JUMP JUMPDEST STOP JUMPDEST CALLVALUE DUP1 ISZERO PUSH2 0x466 JUMPI PUSH1 0x0 DUP1 REVERT JUMPDEST POP PUSH2 0x46F PUSH2 0x1405 JUMP JUMPDEST PUSH1 0x40 MLOAD PUSH2 0x47C SWAP2 SWAP1 PUSH2 0x629A JUMP JUMPDEST PUSH1 0x40 MLOAD DUP1 SWAP2 SUB SWAP1 RETURN JUMPDEST PUSH2 0x49F PUSH1 0x4 DUP1 CALLDATASIZE SUB DUP2 ADD SWAP1 PUSH2 0x49A SWAP2 SWAP1 PUSH2 0x55D7 JUMP JUMPDEST PUSH2 0x140F JUMP JUMPDEST STOP JUMPDEST CALLVALUE DUP1 ISZERO PUSH2 0x4AD JUMPI PUSH1 0x0 DUP1 REVERT JUMPDEST POP PUSH2 0x4B6 PUSH2 0x1763 JUMP JUMPDEST PUSH1 0x40 MLOAD PUSH2 0x4C3 SWAP2 SWAP1 PUSH2 0x629A JUMP JUMPDEST PUSH1 0x40 MLOAD DUP1 SWAP2 SUB SWAP1 RETURN JUMPDEST CALLVALUE DUP1 ISZERO PUSH2 0x4D8 JUMPI PUSH1 0x0 DUP1 REVERT JUMPDEST POP PUSH2 0x4F3 PUSH1 0x4 DUP1 CALLDATASIZE SUB DUP2 ADD SWAP1 PUSH2 0x4EE SWAP2 SWAP1 PUSH2 0x5259 JUMP JUMPDEST PUSH2 0x178C JUMP JUMPDEST STOP JUMPDEST CALLVALUE DUP1 ISZERO PUSH2 0x501 JUMPI PUSH1 0x0 DUP1 REVERT JUMPDEST POP PUSH2 0x51C PUSH1 0x4 DUP1 CALLDATASIZE SUB DUP2 ADD SWAP1 PUSH2 0x517 SWAP2 SWAP1 PUSH2 0x55D7 JUMP JUMPDEST PUSH2 0x1AE7 JUMP JUMPDEST STOP JUMPDEST PUSH2 0x538 PUSH1 0x4 DUP1 CALLDATASIZE SUB DUP2 ADD SWAP1 PUSH2 0x533 SWAP2 SWAP1 PUSH2 0x5604 JUMP JUMPDEST PUSH2 0x1B6D JUMP JUMPDEST STOP JUMPDEST CALLVALUE DUP1 ISZERO PUSH2 0x546 JUMPI PUSH1 0x0 DUP1 REVERT JUMPDEST POP PUSH2 0x561 PUSH1 0x4 DUP1 CALLDATASIZE SUB DUP2 ADD SWAP1 PUSH2 0x55C SWAP2 SWAP1 PUSH2 0x55D7 JUMP JUMPDEST PUSH2 0x1F7D JUMP JUMPDEST STOP JUMPDEST CALLVALUE DUP1 ISZERO PUSH2 0x56F JUMPI PUSH1 0x0 DUP1 REVERT JUMPDEST POP PUSH2 0x578 PUSH2 0x1FD1 JUMP JUMPDEST PUSH1 0x40 MLOAD PUSH2 0x585 SWAP2 SWAP1 PUSH2 0x629A JUMP JUMPDEST PUSH1 0x40 MLOAD DUP1 SWAP2 SUB SWAP1 RETURN JUMPDEST PUSH2 0x5A8 PUSH1 0x4 DUP1 CALLDATASIZE SUB DUP2 ADD SWAP1 PUSH2 0x5A3 SWAP2 SWAP1 PUSH2 0x53CF JUMP JUMPDEST PUSH2 0x1FD7 JUMP JUMPDEST STOP JUMPDEST CALLVALUE DUP1 ISZERO PUSH2 0x5B6 JUMPI PUSH1 0x0 DUP1 REVERT JUMPDEST POP PUSH2 0x5BF PUSH2 0x21C0 JUMP JUMPDEST STOP JUMPDEST CALLVALUE DUP1 ISZERO PUSH2 0x5CD JUMPI PUSH1 0x0 DUP1 REVERT JUMPDEST POP PUSH2 0x5E8 PUSH1 0x4 DUP1 CALLDATASIZE SUB DUP2 ADD SWAP1 PUSH2 0x5E3 SWAP2 SWAP1 PUSH2 0x5259 JUMP JUMPDEST PUSH2 0x2246 JUMP JUMPDEST STOP JUMPDEST CALLVALUE DUP1 ISZERO PUSH2 0x5F6 JUMPI PUSH1 0x0 DUP1 REVERT JUMPDEST POP PUSH2 0x611 PUSH1 0x4 DUP1 CALLDATASIZE SUB DUP2 ADD SWAP1 PUSH2 0x60C SWAP2 SWAP1 PUSH2 0x532F JUMP JUMPDEST PUSH2 0x2266 JUMP JUMPDEST PUSH1 0x40 MLOAD PUSH2 0x61E SWAP2 SWAP1 PUSH2 0x629A JUMP JUMPDEST PUSH1 0x40 MLOAD DUP1 SWAP2 SUB SWAP1 RETURN JUMPDEST CALLVALUE DUP1 ISZERO PUSH2 0x633 JUMPI PUSH1 0x0 DUP1 REVERT JUMPDEST POP PUSH2 0x63C PUSH2 0x23F6 JUMP JUMPDEST PUSH1 0x40 MLOAD PUSH2 0x649 SWAP2 SWAP1 PUSH2 0x5E62 JUMP JUMPDEST PUSH1 0x40 MLOAD DUP1 SWAP2 SUB SWAP1 RETURN JUMPDEST CALLVALUE DUP1 ISZERO PUSH2 0x65E JUMPI PUSH1 0x0 DUP1 REVERT JUMPDEST POP PUSH2 0x667 PUSH2 0x2409 JUMP JUMPDEST PUSH1 0x40 MLOAD PUSH2 0x674 SWAP2 SWAP1 PUSH2 0x5E62 JUMP JUMPDEST PUSH1 0x40 MLOAD DUP1 SWAP2 SUB SWAP1 RETURN JUMPDEST CALLVALUE DUP1 ISZERO PUSH2 0x689 JUMPI PUSH1 0x0 DUP1 REVERT JUMPDEST POP PUSH2 0x6A4 PUSH1 0x4 DUP1 CALLDATASIZE SUB DUP2 ADD SWAP1 PUSH2 0x69F SWAP2 SWAP1 PUSH2 0x5503 JUMP JUMPDEST PUSH2 0x2420 JUMP JUMPDEST STOP JUMPDEST CALLVALUE DUP1 ISZERO PUSH2 0x6B2 JUMPI PUSH1 0x0 DUP1 REVERT JUMPDEST POP PUSH2 0x6BB PUSH2 0x2527 JUMP JUMPDEST PUSH1 0x40 MLOAD PUSH2 0x6C8 SWAP2 SWAP1 PUSH2 0x5E62 JUMP JUMPDEST PUSH1 0x40 MLOAD DUP1 SWAP2 SUB SWAP1 RETURN JUMPDEST CALLVALUE DUP1 ISZERO PUSH2 0x6DD JUMPI PUSH1 0x0 DUP1 REVERT JUMPDEST POP PUSH2 0x6F8 PUSH1 0x4 DUP1 CALLDATASIZE SUB DUP2 ADD SWAP1 PUSH2 0x6F3 SWAP2 SWAP1 PUSH2 0x55D7 JUMP JUMPDEST PUSH2 0x253E JUMP JUMPDEST PUSH1 0x40 MLOAD PUSH2 0x705 SWAP2 SWAP1 PUSH2 0x5D8F JUMP JUMPDEST PUSH1 0x40 MLOAD DUP1 SWAP2 SUB SWAP1 RETURN JUMPDEST CALLVALUE DUP1 ISZERO PUSH2 0x71A JUMPI PUSH1 0x0 DUP1 REVERT JUMPDEST POP PUSH2 0x723 PUSH2 0x2550 JUMP JUMPDEST PUSH1 0x40 MLOAD PUSH2 0x730 SWAP2 SWAP1 PUSH2 0x629A JUMP JUMPDEST PUSH1 0x40 MLOAD DUP1 SWAP2 SUB SWAP1 RETURN JUMPDEST CALLVALUE DUP1 ISZERO PUSH2 0x745 JUMPI PUSH1 0x0 DUP1 REVERT JUMPDEST POP PUSH2 0x760 PUSH1 0x4 DUP1 CALLDATASIZE SUB DUP2 ADD SWAP1 PUSH2 0x75B SWAP2 SWAP1 PUSH2 0x540F JUMP JUMPDEST PUSH2 0x255A JUMP JUMPDEST STOP JUMPDEST CALLVALUE DUP1 ISZERO PUSH2 0x76E JUMPI PUSH1 0x0 DUP1 REVERT JUMPDEST POP PUSH2 0x789 PUSH1 0x4 DUP1 CALLDATASIZE SUB DUP2 ADD SWAP1 PUSH2 0x784 SWAP2 SWAP1 PUSH2 0x51EC JUMP JUMPDEST PUSH2 0x256B JUMP JUMPDEST PUSH1 0x40 MLOAD PUSH2 0x796 SWAP2 SWAP1 PUSH2 0x629A JUMP JUMPDEST PUSH1 0x40 MLOAD DUP1 SWAP2 SUB SWAP1 RETURN JUMPDEST CALLVALUE DUP1 ISZERO PUSH2 0x7AB JUMPI PUSH1 0x0 DUP1 REVERT JUMPDEST POP PUSH2 0x7B4 PUSH2 0x262D JUMP JUMPDEST STOP JUMPDEST CALLVALUE DUP1 ISZERO PUSH2 0x7C2 JUMPI PUSH1 0x0 DUP1 REVERT JUMPDEST POP PUSH2 0x7CB PUSH2 0x26B5 JUMP JUMPDEST PUSH1 0x40 MLOAD PUSH2 0x7D8 SWAP2 SWAP1 PUSH2 0x629A JUMP JUMPDEST PUSH1 0x40 MLOAD DUP1 SWAP2 SUB SWAP1 RETURN JUMPDEST CALLVALUE DUP1 ISZERO PUSH2 0x7ED JUMPI PUSH1 0x0 DUP1 REVERT JUMPDEST POP PUSH2 0x7F6 PUSH2 0x26BB JUMP JUMPDEST PUSH1 0x40 MLOAD PUSH2 0x803 SWAP2 SWAP1 PUSH2 0x629A JUMP JUMPDEST PUSH1 0x40 MLOAD DUP1 SWAP2 SUB SWAP1 RETURN JUMPDEST CALLVALUE DUP1 ISZERO PUSH2 0x818 JUMPI PUSH1 0x0 DUP1 REVERT JUMPDEST POP PUSH2 0x821 PUSH2 0x26C5 JUMP JUMPDEST STOP JUMPDEST CALLVALUE DUP1 ISZERO PUSH2 0x82F JUMPI PUSH1 0x0 DUP1 REVERT JUMPDEST POP PUSH2 0x838 PUSH2 0x274B JUMP JUMPDEST PUSH1 0x40 MLOAD PUSH2 0x845 SWAP2 SWAP1 PUSH2 0x5D8F JUMP JUMPDEST PUSH1 0x40 MLOAD DUP1 SWAP2 SUB SWAP1 RETURN JUMPDEST CALLVALUE DUP1 ISZERO PUSH2 0x85A JUMPI PUSH1 0x0 DUP1 REVERT JUMPDEST POP PUSH2 0x863 PUSH2 0x2775 JUMP JUMPDEST PUSH1 0x40 MLOAD PUSH2 0x870 SWAP2 SWAP1 PUSH2 0x629A JUMP JUMPDEST PUSH1 0x40 MLOAD DUP1 SWAP2 SUB SWAP1 RETURN JUMPDEST CALLVALUE DUP1 ISZERO PUSH2 0x885 JUMPI PUSH1 0x0 DUP1 REVERT JUMPDEST POP PUSH2 0x8A0 PUSH1 0x4 DUP1 CALLDATASIZE SUB DUP2 ADD SWAP1 PUSH2 0x89B SWAP2 SWAP1 PUSH2 0x51EC JUMP JUMPDEST PUSH2 0x277B JUMP JUMPDEST PUSH1 0x40 MLOAD PUSH2 0x8AD SWAP2 SWAP1 PUSH2 0x629A JUMP JUMPDEST PUSH1 0x40 MLOAD DUP1 SWAP2 SUB SWAP1 RETURN JUMPDEST CALLVALUE DUP1 ISZERO PUSH2 0x8C2 JUMPI PUSH1 0x0 DUP1 REVERT JUMPDEST POP PUSH2 0x8CB PUSH2 0x2793 JUMP JUMPDEST PUSH1 0x40 MLOAD PUSH2 0x8D8 SWAP2 SWAP1 PUSH2 0x5EF8 JUMP JUMPDEST PUSH1 0x40 MLOAD DUP1 SWAP2 SUB SWAP1 RETURN JUMPDEST CALLVALUE DUP1 ISZERO PUSH2 0x8ED JUMPI PUSH1 0x0 DUP1 REVERT JUMPDEST POP PUSH2 0x908 PUSH1 0x4 DUP1 CALLDATASIZE SUB DUP2 ADD SWAP1 PUSH2 0x903 SWAP2 SWAP1 PUSH2 0x55D7 JUMP JUMPDEST PUSH2 0x282E JUMP JUMPDEST PUSH1 0x40 MLOAD PUSH2 0x917 SWAP4 SWAP3 SWAP2 SWAP1 PUSH2 0x62DE JUMP JUMPDEST PUSH1 0x40 MLOAD DUP1 SWAP2 SUB SWAP1 RETURN JUMPDEST CALLVALUE DUP1 ISZERO PUSH2 0x92C JUMPI PUSH1 0x0 DUP1 REVERT JUMPDEST POP PUSH2 0x947 PUSH1 0x4 DUP1 CALLDATASIZE SUB DUP2 ADD SWAP1 PUSH2 0x942 SWAP2 SWAP1 PUSH2 0x538F JUMP JUMPDEST PUSH2 0x2878 JUMP JUMPDEST STOP JUMPDEST CALLVALUE DUP1 ISZERO PUSH2 0x955 JUMPI PUSH1 0x0 DUP1 REVERT JUMPDEST POP PUSH2 0x95E PUSH2 0x29F9 JUMP JUMPDEST STOP JUMPDEST CALLVALUE DUP1 ISZERO PUSH2 0x96C JUMPI PUSH1 0x0 DUP1 REVERT JUMPDEST POP PUSH2 0x975 PUSH2 0x2B05 JUMP JUMPDEST PUSH1 0x40 MLOAD PUSH2 0x982 SWAP2 SWAP1 PUSH2 0x5E62 JUMP JUMPDEST PUSH1 0x40 MLOAD DUP1 SWAP2 SUB SWAP1 RETURN JUMPDEST CALLVALUE DUP1 ISZERO PUSH2 0x997 JUMPI PUSH1 0x0 DUP1 REVERT JUMPDEST POP PUSH2 0x9A0 PUSH2 0x2B18 JUMP JUMPDEST STOP JUMPDEST CALLVALUE DUP1 ISZERO PUSH2 0x9AE JUMPI PUSH1 0x0 DUP1 REVERT JUMPDEST POP PUSH2 0x9C9 PUSH1 0x4 DUP1 CALLDATASIZE SUB DUP2 ADD SWAP1 PUSH2 0x9C4 SWAP2 SWAP1 PUSH2 0x51EC JUMP JUMPDEST PUSH2 0x2C09 JUMP JUMPDEST PUSH1 0x40 MLOAD PUSH2 0x9D6 SWAP2 SWAP1 PUSH2 0x5E40 JUMP JUMPDEST PUSH1 0x40 MLOAD DUP1 SWAP2 SUB SWAP1 RETURN JUMPDEST CALLVALUE DUP1 ISZERO PUSH2 0x9EB JUMPI PUSH1 0x0 DUP1 REVERT JUMPDEST POP PUSH2 0xA06 PUSH1 0x4 DUP1 CALLDATASIZE SUB DUP2 ADD SWAP1 PUSH2 0xA01 SWAP2 SWAP1 PUSH2 0x55D7 JUMP JUMPDEST PUSH2 0x2DCF JUMP JUMPDEST STOP JUMPDEST CALLVALUE DUP1 ISZERO PUSH2 0xA14 JUMPI PUSH1 0x0 DUP1 REVERT JUMPDEST POP PUSH2 0xA2F PUSH1 0x4 DUP1 CALLDATASIZE SUB DUP2 ADD SWAP1 PUSH2 0xA2A SWAP2 SWAP1 PUSH2 0x52AC JUMP JUMPDEST PUSH2 0x2E55 JUMP JUMPDEST STOP JUMPDEST CALLVALUE DUP1 ISZERO PUSH2 0xA3D JUMPI PUSH1 0x0 DUP1 REVERT JUMPDEST POP PUSH2 0xA46 PUSH2 0x2EC8 JUMP JUMPDEST PUSH1 0x40 MLOAD PUSH2 0xA53 SWAP2 SWAP1 PUSH2 0x629A JUMP JUMPDEST PUSH1 0x40 MLOAD DUP1 SWAP2 SUB SWAP1 RETURN JUMPDEST CALLVALUE DUP1 ISZERO PUSH2 0xA68 JUMPI PUSH1 0x0 DUP1 REVERT JUMPDEST POP PUSH2 0xA71 PUSH2 0x2ECE JUMP JUMPDEST PUSH1 0x40 MLOAD PUSH2 0xA7E SWAP2 SWAP1 PUSH2 0x5E62 JUMP JUMPDEST PUSH1 0x40 MLOAD DUP1 SWAP2 SUB SWAP1 RETURN JUMPDEST CALLVALUE DUP1 ISZERO PUSH2 0xA93 JUMPI PUSH1 0x0 DUP1 REVERT JUMPDEST POP PUSH2 0xAAE PUSH1 0x4 DUP1 CALLDATASIZE SUB DUP2 ADD SWAP1 PUSH2 0xAA9 SWAP2 SWAP1 PUSH2 0x55D7 JUMP JUMPDEST PUSH2 0x2EE1 JUMP JUMPDEST PUSH1 0x40 MLOAD PUSH2 0xABB SWAP2 SWAP1 PUSH2 0x5EF8 JUMP JUMPDEST PUSH1 0x40 MLOAD DUP1 SWAP2 SUB SWAP1 RETURN JUMPDEST CALLVALUE DUP1 ISZERO PUSH2 0xAD0 JUMPI PUSH1 0x0 DUP1 REVERT JUMPDEST POP PUSH2 0xAD9 PUSH2 0x3003 JUMP JUMPDEST STOP JUMPDEST CALLVALUE DUP1 ISZERO PUSH2 0xAE7 JUMPI PUSH1 0x0 DUP1 REVERT JUMPDEST POP PUSH2 0xAF0 PUSH2 0x30F4 JUMP JUMPDEST PUSH1 0x40 MLOAD PUSH2 0xAFD SWAP2 SWAP1 PUSH2 0x5EC2 JUMP JUMPDEST PUSH1 0x40 MLOAD DUP1 SWAP2 SUB SWAP1 RETURN JUMPDEST CALLVALUE DUP1 ISZERO PUSH2 0xB12 JUMPI PUSH1 0x0 DUP1 REVERT JUMPDEST POP PUSH2 0xB2D PUSH1 0x4 DUP1 CALLDATASIZE SUB DUP2 ADD SWAP1 PUSH2 0xB28 SWAP2 SWAP1 PUSH2 0x54B6 JUMP JUMPDEST PUSH2 0x3107 JUMP JUMPDEST PUSH1 0x40 MLOAD PUSH2 0xB3A SWAP2 SWAP1 PUSH2 0x5D8F JUMP JUMPDEST PUSH1 0x40 MLOAD DUP1 SWAP2 SUB SWAP1 RETURN JUMPDEST CALLVALUE DUP1 ISZERO PUSH2 0xB4F JUMPI PUSH1 0x0 DUP1 REVERT JUMPDEST POP PUSH2 0xB58 PUSH2 0x3198 JUMP JUMPDEST PUSH1 0x40 MLOAD PUSH2 0xB65 SWAP2 SWAP1 PUSH2 0x629A JUMP JUMPDEST PUSH1 0x40 MLOAD DUP1 SWAP2 SUB SWAP1 RETURN JUMPDEST CALLVALUE DUP1 ISZERO PUSH2 0xB7A JUMPI PUSH1 0x0 DUP1 REVERT JUMPDEST POP PUSH2 0xB95 PUSH1 0x4 DUP1 CALLDATASIZE SUB DUP2 ADD SWAP1 PUSH2 0xB90 SWAP2 SWAP1 PUSH2 0x540F JUMP JUMPDEST PUSH2 0x319E JUMP JUMPDEST STOP JUMPDEST CALLVALUE DUP1 ISZERO PUSH2 0xBA3 JUMPI PUSH1 0x0 DUP1 REVERT JUMPDEST POP PUSH2 0xBAC PUSH2 0x31AF JUMP JUMPDEST PUSH1 0x40 MLOAD PUSH2 0xBB9 SWAP2 SWAP1 PUSH2 0x5E62 JUMP JUMPDEST PUSH1 0x40 MLOAD DUP1 SWAP2 SUB SWAP1 RETURN JUMPDEST CALLVALUE DUP1 ISZERO PUSH2 0xBCE JUMPI PUSH1 0x0 DUP1 REVERT JUMPDEST POP PUSH2 0xBE9 PUSH1 0x4 DUP1 CALLDATASIZE SUB DUP2 ADD SWAP1 PUSH2 0xBE4 SWAP2 SWAP1 PUSH2 0x5219 JUMP JUMPDEST PUSH2 0x31C2 JUMP JUMPDEST PUSH1 0x40 MLOAD PUSH2 0xBF6 SWAP2 SWAP1 PUSH2 0x5E62 JUMP JUMPDEST PUSH1 0x40 MLOAD DUP1 SWAP2 SUB SWAP1 RETURN JUMPDEST CALLVALUE DUP1 ISZERO PUSH2 0xC0B JUMPI PUSH1 0x0 DUP1 REVERT JUMPDEST POP PUSH2 0xC26 PUSH1 0x4 DUP1 CALLDATASIZE SUB DUP2 ADD SWAP1 PUSH2 0xC21 SWAP2 SWAP1 PUSH2 0x5503 JUMP JUMPDEST PUSH2 0x325F JUMP JUMPDEST STOP JUMPDEST CALLVALUE DUP1 ISZERO PUSH2 0xC34 JUMPI PUSH1 0x0 DUP1 REVERT JUMPDEST POP PUSH2 0xC4F PUSH1 0x4 DUP1 CALLDATASIZE SUB DUP2 ADD SWAP1 PUSH2 0xC4A SWAP2 SWAP1 PUSH2 0x51EC JUMP JUMPDEST PUSH2 0x3366 JUMP JUMPDEST STOP JUMPDEST PUSH1 0x0 PUSH4 0x1FFC9A7 PUSH1 0xE0 SHL DUP3 PUSH28 0xFFFFFFFFFFFFFFFFFFFFFFFFFFFFFFFFFFFFFFFFFFFFFFFFFFFFFFFF NOT AND EQ DUP1 PUSH2 0xCAC JUMPI POP PUSH4 0x80AC58CD PUSH1 0xE0 SHL DUP3 PUSH28 0xFFFFFFFFFFFFFFFFFFFFFFFFFFFFFFFFFFFFFFFFFFFFFFFFFFFFFFFF NOT AND EQ JUMPDEST DUP1 PUSH2 0xCDC JUMPI POP PUSH4 0x5B5E139F PUSH1 0xE0 SHL DUP3 PUSH28 0xFFFFFFFFFFFFFFFFFFFFFFFFFFFFFFFFFFFFFFFFFFFFFFFFFFFFFFFF NOT AND EQ JUMPDEST SWAP1 POP SWAP2 SWAP1 POP JUMP JUMPDEST PUSH1 0x60 PUSH2 0xCED PUSH2 0x345E JUMP JUMPDEST PUSH1 0x2 ADD DUP1 SLOAD PUSH2 0xCFB SWAP1 PUSH2 0x6658 JUMP JUMPDEST DUP1 PUSH1 0x1F ADD PUSH1 0x20 DUP1 SWAP2 DIV MUL PUSH1 0x20 ADD PUSH1 0x40 MLOAD SWAP1 DUP2 ADD PUSH1 0x40 MSTORE DUP1 SWAP3 SWAP2 SWAP1 DUP2 DUP2 MSTORE PUSH1 0x20 ADD DUP3 DUP1 SLOAD PUSH2 0xD27 SWAP1 PUSH2 0x6658 JUMP JUMPDEST DUP1 ISZERO PUSH2 0xD74 JUMPI DUP1 PUSH1 0x1F LT PUSH2 0xD49 JUMPI PUSH2 0x100 DUP1 DUP4 SLOAD DIV MUL DUP4 MSTORE SWAP2 PUSH1 0x20 ADD SWAP2 PUSH2 0xD74 JUMP JUMPDEST DUP3 ADD SWAP2 SWAP1 PUSH1 0x0 MSTORE PUSH1 0x20 PUSH1 0x0 KECCAK256 SWAP1 JUMPDEST DUP2 SLOAD DUP2 MSTORE SWAP1 PUSH1 0x1 ADD SWAP1 PUSH1 0x20 ADD DUP1 DUP4 GT PUSH2 0xD57 JUMPI DUP3 SWAP1 SUB PUSH1 0x1F AND DUP3 ADD SWAP2 JUMPDEST POP POP POP POP POP SWAP1 POP SWAP1 JUMP JUMPDEST PUSH2 0xD86 PUSH2 0x348B JUMP JUMPDEST PUSH1 0x0 ADD PUSH1 0x1 SWAP1 SLOAD SWAP1 PUSH2 0x100 EXP SWAP1 DIV PUSH1 0xFF AND PUSH2 0xDBA JUMPI PUSH2 0xDA3 PUSH2 0x348B JUMP JUMPDEST PUSH1 0x0 ADD PUSH1 0x0 SWAP1 SLOAD SWAP1 PUSH2 0x100 EXP SWAP1 DIV PUSH1 0xFF AND ISZERO PUSH2 0xDC3 JUMP JUMPDEST PUSH2 0xDC2 PUSH2 0x34B8 JUMP JUMPDEST JUMPDEST PUSH2 0xE02 JUMPI PUSH1 0x40 MLOAD PUSH32 0x8C379A000000000000000000000000000000000000000000000000000000000 DUP2 MSTORE PUSH1 0x4 ADD PUSH2 0xDF9 SWAP1 PUSH2 0x60DA JUMP JUMPDEST PUSH1 0x40 MLOAD DUP1 SWAP2 SUB SWAP1 REVERT JUMPDEST PUSH1 0x0 PUSH2 0xE0C PUSH2 0x348B JUMP JUMPDEST PUSH1 0x0 ADD PUSH1 0x1 SWAP1 SLOAD SWAP1 PUSH2 0x100 EXP SWAP1 DIV PUSH1 0xFF AND ISZERO SWAP1 POP DUP1 ISZERO PUSH2 0xE6F JUMPI PUSH1 0x1 PUSH2 0xE30 PUSH2 0x348B JUMP JUMPDEST PUSH1 0x0 ADD PUSH1 0x1 PUSH2 0x100 EXP DUP2 SLOAD DUP2 PUSH1 0xFF MUL NOT AND SWAP1 DUP4 ISZERO ISZERO MUL OR SWAP1 SSTORE POP PUSH1 0x1 PUSH2 0xE54 PUSH2 0x348B JUMP JUMPDEST PUSH1 0x0 ADD PUSH1 0x0 PUSH2 0x100 EXP DUP2 SLOAD DUP2 PUSH1 0xFF MUL NOT AND SWAP1 DUP4 ISZERO ISZERO MUL OR SWAP1 SSTORE POP JUMPDEST PUSH1 0x0 PUSH2 0xE7B PUSH1 0x1 PUSH2 0x34CF JUMP JUMPDEST SWAP1 POP DUP1 ISZERO PUSH2 0xE9F JUMPI PUSH1 0x1 PUSH1 0x0 PUSH1 0x1 PUSH2 0x100 EXP DUP2 SLOAD DUP2 PUSH1 0xFF MUL NOT AND SWAP1 DUP4 ISZERO ISZERO MUL OR SWAP1 SSTORE POP JUMPDEST PUSH2 0xEA9 DUP6 DUP6 PUSH2 0x35BF JUMP JUMPDEST PUSH2 0xEB1 PUSH2 0x3625 JUMP JUMPDEST PUSH2 0xEB9 PUSH2 0x367E JUMP JUMPDEST PUSH2 0xEC1 PUSH2 0x36D7 JUMP JUMPDEST DUP3 PUSH1 0xCA PUSH1 0x0 PUSH2 0x100 EXP DUP2 SLOAD DUP2 PUSH20 0xFFFFFFFFFFFFFFFFFFFFFFFFFFFFFFFFFFFFFFFF MUL NOT AND SWAP1 DUP4 PUSH20 0xFFFFFFFFFFFFFFFFFFFFFFFFFFFFFFFFFFFFFFFF AND MUL OR SWAP1 SSTORE POP PUSH1 0x96 PUSH1 0xD3 DUP2 SWAP1 SSTORE POP PUSH1 0x0 PUSH1 0xCA PUSH1 0x14 PUSH2 0x100 EXP DUP2 SLOAD DUP2 PUSH1 0xFF MUL NOT AND SWAP1 DUP4 PUSH1 0x4 DUP2 GT ISZERO PUSH2 0xF30 JUMPI PUSH2 0xF2F PUSH2 0x67C1 JUMP JUMPDEST JUMPDEST MUL OR SWAP1 SSTORE POP PUSH2 0xC350 PUSH1 0xCB DUP2 SWAP1 SSTORE POP PUSH7 0x58D15E17628000 PUSH1 0xCC DUP2 SWAP1 SSTORE POP PUSH7 0x470DE4DF820000 PUSH1 0xCD DUP2 SWAP1 SSTORE POP PUSH1 0x3 PUSH1 0xCE DUP2 SWAP1 SSTORE POP PUSH1 0x0 PUSH1 0xD4 PUSH1 0x0 PUSH2 0x100 EXP DUP2 SLOAD DUP2 PUSH1 0xFF MUL NOT AND SWAP1 DUP4 ISZERO ISZERO MUL OR SWAP1 SSTORE POP PUSH1 0x0 PUSH1 0xD4 PUSH1 0x1 PUSH2 0x100 EXP DUP2 SLOAD DUP2 PUSH1 0xFF MUL NOT AND SWAP1 DUP4 ISZERO ISZERO MUL OR SWAP1 SSTORE POP PUSH1 0x1 PUSH1 0xD4 PUSH1 0x2 PUSH2 0x100 EXP DUP2 SLOAD DUP2 PUSH1 0xFF MUL NOT AND SWAP1 DUP4 ISZERO ISZERO MUL OR SWAP1 SSTORE POP PUSH1 0x1 PUSH1 0xD4 PUSH1 0x3 PUSH2 0x100 EXP DUP2 SLOAD DUP2 PUSH1 0xFF MUL NOT AND SWAP1 DUP4 ISZERO ISZERO MUL OR SWAP1 SSTORE POP DUP1 ISZERO PUSH2 0x1027 JUMPI PUSH1 0x0 DUP1 PUSH1 0x1 PUSH2 0x100 EXP DUP2 SLOAD DUP2 PUSH1 0xFF MUL NOT AND SWAP1 DUP4 ISZERO ISZERO MUL OR SWAP1 SSTORE POP PUSH32 0x7F26B83FF96E1F2B6A682F133852F6798A09C465DA95921460CEFB3847402498 PUSH1 0x1 PUSH1 0x40 MLOAD PUSH2 0x101E SWAP2 SWAP1 PUSH2 0x5EDD JUMP JUMPDEST PUSH1 0x40 MLOAD DUP1 SWAP2 SUB SWAP1 LOG1 JUMPDEST POP DUP1 ISZERO PUSH2 0x1053 JUMPI PUSH1 0x0 PUSH2 0x1038 PUSH2 0x348B JUMP JUMPDEST PUSH1 0x0 ADD PUSH1 0x1 PUSH2 0x100 EXP DUP2 SLOAD DUP2 PUSH1 0xFF MUL NOT AND SWAP1 DUP4 ISZERO ISZERO MUL OR SWAP1 SSTORE POP JUMPDEST POP POP POP POP JUMP JUMPDEST PUSH1 0x0 PUSH2 0x1064 DUP3 PUSH2 0x3730 JUMP JUMPDEST PUSH2 0x109A JUMPI PUSH1 0x40 MLOAD PUSH32 0xCF4700E400000000000000000000000000000000000000000000000000000000 DUP2 MSTORE PUSH1 0x4 ADD PUSH1 0x40 MLOAD DUP1 SWAP2 SUB SWAP1 REVERT JUMPDEST PUSH2 0x10A2 PUSH2 0x345E JUMP JUMPDEST PUSH1 0x6 ADD PUSH1 0x0 DUP4 DUP2 MSTORE PUSH1 0x20 ADD SWAP1 DUP2 MSTORE PUSH1 0x20 ADD PUSH1 0x0 KECCAK256 PUSH1 0x0 SWAP1 SLOAD SWAP1 PUSH2 0x100 EXP SWAP1 DIV PUSH20 0xFFFFFFFFFFFFFFFFFFFFFFFFFFFFFFFFFFFFFFFF AND SWAP1 POP SWAP2 SWAP1 POP JUMP JUMPDEST PUSH1 0x0 PUSH2 0x10E9 DUP3 PUSH2 0x253E JUMP JUMPDEST SWAP1 POP DUP1 PUSH20 0xFFFFFFFFFFFFFFFFFFFFFFFFFFFFFFFFFFFFFFFF AND PUSH2 0x110A PUSH2 0x37A1 JUMP JUMPDEST PUSH20 0xFFFFFFFFFFFFFFFFFFFFFFFFFFFFFFFFFFFFFFFF AND EQ PUSH2 0x116D JUMPI PUSH2 0x1136 DUP2 PUSH2 0x1131 PUSH2 0x37A1 JUMP JUMPDEST PUSH2 0x31C2 JUMP JUMPDEST PUSH2 0x116C JUMPI PUSH1 0x40 MLOAD PUSH32 0xCFB3B94200000000000000000000000000000000000000000000000000000000 DUP2 MSTORE PUSH1 0x4 ADD PUSH1 0x40 MLOAD DUP1 SWAP2 SUB SWAP1 REVERT JUMPDEST JUMPDEST DUP3 PUSH2 0x1176 PUSH2 0x345E JUMP JUMPDEST PUSH1 0x6 ADD PUSH1 0x0 DUP5 DUP2 MSTORE PUSH1 0x20 ADD SWAP1 DUP2 MSTORE PUSH1 0x20 ADD PUSH1 0x0 KECCAK256 PUSH1 0x0 PUSH2 0x100 EXP DUP2 SLOAD DUP2 PUSH20 0xFFFFFFFFFFFFFFFFFFFFFFFFFFFFFFFFFFFFFFFF MUL NOT AND SWAP1 DUP4 PUSH20 0xFFFFFFFFFFFFFFFFFFFFFFFFFFFFFFFFFFFFFFFF AND MUL OR SWAP1 SSTORE POP DUP2 DUP4 PUSH20 0xFFFFFFFFFFFFFFFFFFFFFFFFFFFFFFFFFFFFFFFF AND DUP3 PUSH20 0xFFFFFFFFFFFFFFFFFFFFFFFFFFFFFFFFFFFFFFFF AND PUSH32 0x8C5BE1E5EBEC7D5BD14F71427D1E84F3DD0314C0F7B2291E5B200AC8C7C3B925 PUSH1 0x40 MLOAD PUSH1 0x40 MLOAD DUP1 SWAP2 SUB SWAP1 LOG4 POP POP POP JUMP JUMPDEST PUSH1 0x0 DUP3 DUP3 SWAP1 POP PUSH1 0xCF PUSH1 0x0 DUP3 DUP3 SLOAD PUSH2 0x123F SWAP2 SWAP1 PUSH2 0x642D JUMP JUMPDEST SWAP3 POP POP DUP2 SWAP1 SSTORE POP PUSH1 0x0 JUMPDEST DUP4 DUP4 SWAP1 POP DUP2 LT ISZERO PUSH2 0x13FF JUMPI DUP4 DUP4 DUP3 DUP2 DUP2 LT PUSH2 0x1267 JUMPI PUSH2 0x1266 PUSH2 0x681F JUMP JUMPDEST JUMPDEST SWAP1 POP PUSH1 0x20 MUL ADD CALLDATALOAD SWAP2 POP CALLER PUSH20 0xFFFFFFFFFFFFFFFFFFFFFFFFFFFFFFFFFFFFFFFF AND PUSH2 0x1290 DUP4 PUSH2 0x253E JUMP JUMPDEST PUSH20 0xFFFFFFFFFFFFFFFFFFFFFFFFFFFFFFFFFFFFFFFF AND EQ PUSH2 0x12E6 JUMPI PUSH1 0x40 MLOAD PUSH32 0x8C379A000000000000000000000000000000000000000000000000000000000 DUP2 MSTORE PUSH1 0x4 ADD PUSH2 0x12DD SWAP1 PUSH2 0x609A JUMP JUMPDEST PUSH1 0x40 MLOAD DUP1 SWAP2 SUB SWAP1 REVERT JUMPDEST PUSH1 0x0 PUSH1 0xD6 PUSH1 0x0 DUP5 DUP2 MSTORE PUSH1 0x20 ADD SWAP1 DUP2 MSTORE PUSH1 0x20 ADD PUSH1 0x0 KECCAK256 PUSH1 0x1 ADD SLOAD EQ PUSH2 0x133F JUMPI PUSH1 0x40 MLOAD PUSH32 0x8C379A000000000000000000000000000000000000000000000000000000000 DUP2 MSTORE PUSH1 0x4 ADD PUSH2 0x1336 SWAP1 PUSH2 0x61BA JUMP JUMPDEST PUSH1 0x40 MLOAD DUP1 SWAP2 SUB SWAP1 REVERT JUMPDEST PUSH2 0x134A CALLER ADDRESS DUP5 PUSH2 0x178C JUMP JUMPDEST PUSH1 0x40 MLOAD DUP1 PUSH1 0x60 ADD PUSH1 0x40 MSTORE DUP1 DUP4 DUP2 MSTORE PUSH1 0x20 ADD TIMESTAMP DUP2 MSTORE PUSH1 0x20 ADD CALLER PUSH20 0xFFFFFFFFFFFFFFFFFFFFFFFFFFFFFFFFFFFFFFFF AND DUP2 MSTORE POP PUSH1 0xD6 PUSH1 0x0 DUP5 DUP2 MSTORE PUSH1 0x20 ADD SWAP1 DUP2 MSTORE PUSH1 0x20 ADD PUSH1 0x0 KECCAK256 PUSH1 0x0 DUP3 ADD MLOAD DUP2 PUSH1 0x0 ADD SSTORE PUSH1 0x20 DUP3 ADD MLOAD DUP2 PUSH1 0x1 ADD SSTORE PUSH1 0x40 DUP3 ADD MLOAD DUP2 PUSH1 0x2 ADD PUSH1 0x0 PUSH2 0x100 EXP DUP2 SLOAD DUP2 PUSH20 0xFFFFFFFFFFFFFFFFFFFFFFFFFFFFFFFFFFFFFFFF MUL NOT AND SWAP1 DUP4 PUSH20 0xFFFFFFFFFFFFFFFFFFFFFFFFFFFFFFFFFFFFFFFF AND MUL OR SWAP1 SSTORE POP SWAP1 POP POP DUP1 DUP1 PUSH2 0x13F7 SWAP1 PUSH2 0x66BB JUMP JUMPDEST SWAP2 POP POP PUSH2 0x1249 JUMP JUMPDEST POP POP POP POP JUMP JUMPDEST PUSH1 0x0 PUSH1 0xCC SLOAD SWAP1 POP SWAP1 JUMP JUMPDEST PUSH1 0x2 PUSH1 0x1 SLOAD EQ ISZERO PUSH2 0x1455 JUMPI PUSH1 0x40 MLOAD PUSH32 0x8C379A000000000000000000000000000000000000000000000000000000000 DUP2 MSTORE PUSH1 0x4 ADD PUSH2 0x144C SWAP1 PUSH2 0x623A JUMP JUMPDEST PUSH1 0x40 MLOAD DUP1 SWAP2 SUB SWAP1 REVERT JUMPDEST PUSH1 0x2 PUSH1 0x1 DUP2 SWAP1 SSTORE POP PUSH2 0x1465 PUSH2 0x2527 JUMP JUMPDEST ISZERO PUSH2 0x14A5 JUMPI PUSH1 0x40 MLOAD PUSH32 0x8C379A000000000000000000000000000000000000000000000000000000000 DUP2 MSTORE PUSH1 0x4 ADD PUSH2 0x149C SWAP1 PUSH2 0x605A JUMP JUMPDEST PUSH1 0x40 MLOAD DUP1 SWAP2 SUB SWAP1 REVERT JUMPDEST PUSH1 0x0 PUSH2 0x14AF PUSH2 0x1763 JUMP JUMPDEST SWAP1 POP PUSH1 0xCB SLOAD PUSH2 0x14BC PUSH2 0x1763 JUMP JUMPDEST LT PUSH2 0x14FC JUMPI PUSH1 0x40 MLOAD PUSH32 0x8C379A000000000000000000000000000000000000000000000000000000000 DUP2 MSTORE PUSH1 0x4 ADD PUSH2 0x14F3 SWAP1 PUSH2 0x5FFA JUMP JUMPDEST PUSH1 0x40 MLOAD DUP1 SWAP2 SUB SWAP1 REVERT JUMPDEST PUSH1 0x2 PUSH1 0x4 DUP2 GT ISZERO PUSH2 0x1510 JUMPI PUSH2 0x150F PUSH2 0x67C1 JUMP JUMPDEST JUMPDEST PUSH1 0xCA PUSH1 0x14 SWAP1 SLOAD SWAP1 PUSH2 0x100 EXP SWAP1 DIV PUSH1 0xFF AND PUSH1 0x4 DUP2 GT ISZERO PUSH2 0x1532 JUMPI PUSH2 0x1531 PUSH2 0x67C1 JUMP JUMPDEST JUMPDEST EQ PUSH2 0x1572 JUMPI PUSH1 0x40 MLOAD PUSH32 0x8C379A000000000000000000000000000000000000000000000000000000000 DUP2 MSTORE PUSH1 0x4 ADD PUSH2 0x1569 SWAP1 PUSH2 0x619A JUMP JUMPDEST PUSH1 0x40 MLOAD DUP1 SWAP2 SUB SWAP1 REVERT JUMPDEST PUSH1 0xCE SLOAD PUSH1 0xD5 PUSH1 0x0 CALLER PUSH20 0xFFFFFFFFFFFFFFFFFFFFFFFFFFFFFFFFFFFFFFFF AND PUSH20 0xFFFFFFFFFFFFFFFFFFFFFFFFFFFFFFFFFFFFFFFF AND DUP2 MSTORE PUSH1 0x20 ADD SWAP1 DUP2 MSTORE PUSH1 0x20 ADD PUSH1 0x0 KECCAK256 SLOAD GT ISZERO PUSH2 0x15F6 JUMPI PUSH1 0x40 MLOAD PUSH32 0x8C379A000000000000000000000000000000000000000000000000000000000 DUP2 MSTORE PUSH1 0x4 ADD PUSH2 0x15ED SWAP1 PUSH2 0x5FDA JUMP JUMPDEST PUSH1 0x40 MLOAD DUP1 SWAP2 SUB SWAP1 REVERT JUMPDEST PUSH1 0xCB SLOAD DUP3 DUP3 PUSH2 0x1605 SWAP2 SWAP1 PUSH2 0x642D JUMP JUMPDEST GT ISZERO PUSH2 0x1646 JUMPI PUSH1 0x40 MLOAD PUSH32 0x8C379A000000000000000000000000000000000000000000000000000000000 DUP2 MSTORE PUSH1 0x4 ADD PUSH2 0x163D SWAP1 PUSH2 0x611A JUMP JUMPDEST PUSH1 0x40 MLOAD DUP1 SWAP2 SUB SWAP1 REVERT JUMPDEST DUP2 PUSH1 0xCC SLOAD PUSH2 0x1654 SWAP2 SWAP1 PUSH2 0x64B4 JUMP JUMPDEST CALLVALUE LT ISZERO PUSH2 0x1696 JUMPI PUSH1 0x40 MLOAD PUSH32 0x8C379A000000000000000000000000000000000000000000000000000000000 DUP2 MSTORE PUSH1 0x4 ADD PUSH2 0x168D SWAP1 PUSH2 0x61DA JUMP JUMPDEST PUSH1 0x40 MLOAD DUP1 SWAP2 SUB SWAP1 REVERT JUMPDEST PUSH1 0xCB SLOAD DUP3 DUP3 PUSH2 0x16A5 SWAP2 SWAP1 PUSH2 0x642D JUMP JUMPDEST EQ ISZERO PUSH2 0x16D7 JUMPI PUSH1 0x3 PUSH1 0xCA PUSH1 0x14 PUSH2 0x100 EXP DUP2 SLOAD DUP2 PUSH1 0xFF MUL NOT AND SWAP1 DUP4 PUSH1 0x4 DUP2 GT ISZERO PUSH2 0x16D1 JUMPI PUSH2 0x16D0 PUSH2 0x67C1 JUMP JUMPDEST JUMPDEST MUL OR SWAP1 SSTORE POP JUMPDEST PUSH2 0x16E1 CALLER DUP4 PUSH2 0x37A9 JUMP JUMPDEST PUSH1 0x0 PUSH1 0x1 SWAP1 POP JUMPDEST DUP3 DUP2 GT PUSH2 0x1757 JUMPI PUSH1 0xD5 PUSH1 0x0 CALLER PUSH20 0xFFFFFFFFFFFFFFFFFFFFFFFFFFFFFFFFFFFFFFFF AND PUSH20 0xFFFFFFFFFFFFFFFFFFFFFFFFFFFFFFFFFFFFFFFF AND DUP2 MSTORE PUSH1 0x20 ADD SWAP1 DUP2 MSTORE PUSH1 0x20 ADD PUSH1 0x0 KECCAK256 PUSH1 0x0 DUP2 SLOAD DUP1 SWAP3 SWAP2 SWAP1 PUSH2 0x173F SWAP1 PUSH2 0x66BB JUMP JUMPDEST SWAP2 SWAP1 POP SSTORE POP DUP1 DUP1 PUSH2 0x174F SWAP1 PUSH2 0x66BB JUMP JUMPDEST SWAP2 POP POP PUSH2 0x16E8 JUMP JUMPDEST POP POP PUSH1 0x1 DUP1 DUP2 SWAP1 SSTORE POP POP JUMP JUMPDEST PUSH1 0x0 PUSH2 0x176D PUSH2 0x37C7 JUMP JUMPDEST PUSH2 0x1775 PUSH2 0x345E JUMP JUMPDEST PUSH1 0x1 ADD SLOAD PUSH2 0x1781 PUSH2 0x345E JUMP JUMPDEST PUSH1 0x0 ADD SLOAD SUB SUB SWAP1 POP SWAP1 JUMP JUMPDEST PUSH1 0x0 PUSH2 0x1797 DUP3 PUSH2 0x37CC JUMP JUMPDEST SWAP1 POP DUP4 PUSH20 0xFFFFFFFFFFFFFFFFFFFFFFFFFFFFFFFFFFFFFFFF AND DUP2 PUSH20 0xFFFFFFFFFFFFFFFFFFFFFFFFFFFFFFFFFFFFFFFF AND EQ PUSH2 0x17FE JUMPI PUSH1 0x40 MLOAD PUSH32 0xA114810000000000000000000000000000000000000000000000000000000000 DUP2 MSTORE PUSH1 0x4 ADD PUSH1 0x40 MLOAD DUP1 SWAP2 SUB SWAP1 REVERT JUMPDEST PUSH1 0x0 DUP1 PUSH2 0x180A DUP5 PUSH2 0x38B5 JUMP JUMPDEST SWAP2 POP SWAP2 POP PUSH2 0x1820 DUP2 DUP8 PUSH2 0x181B PUSH2 0x37A1 JUMP JUMPDEST PUSH2 0x38E0 JUMP JUMPDEST PUSH2 0x186C JUMPI PUSH2 0x1835 DUP7 PUSH2 0x1830 PUSH2 0x37A1 JUMP JUMPDEST PUSH2 0x31C2 JUMP JUMPDEST PUSH2 0x186B JUMPI PUSH1 0x40 MLOAD PUSH32 0x59C896BE00000000000000000000000000000000000000000000000000000000 DUP2 MSTORE PUSH1 0x4 ADD PUSH1 0x40 MLOAD DUP1 SWAP2 SUB SWAP1 REVERT JUMPDEST JUMPDEST PUSH1 0x0 PUSH20 0xFFFFFFFFFFFFFFFFFFFFFFFFFFFFFFFFFFFFFFFF AND DUP6 PUSH20 0xFFFFFFFFFFFFFFFFFFFFFFFFFFFFFFFFFFFFFFFF AND EQ ISZERO PUSH2 0x18D3 JUMPI PUSH1 0x40 MLOAD PUSH32 0xEA553B3400000000000000000000000000000000000000000000000000000000 DUP2 MSTORE PUSH1 0x4 ADD PUSH1 0x40 MLOAD DUP1 SWAP2 SUB SWAP1 REVERT JUMPDEST PUSH2 0x18E0 DUP7 DUP7 DUP7 PUSH1 0x1 PUSH2 0x3924 JUMP JUMPDEST DUP1 ISZERO PUSH2 0x18EB JUMPI PUSH1 0x0 DUP3 SSTORE JUMPDEST PUSH2 0x18F3 PUSH2 0x345E JUMP JUMPDEST PUSH1 0x5 ADD PUSH1 0x0 DUP8 PUSH20 0xFFFFFFFFFFFFFFFFFFFFFFFFFFFFFFFFFFFFFFFF AND PUSH20 0xFFFFFFFFFFFFFFFFFFFFFFFFFFFFFFFFFFFFFFFF AND DUP2 MSTORE PUSH1 0x20 ADD SWAP1 DUP2 MSTORE PUSH1 0x20 ADD PUSH1 0x0 KECCAK256 PUSH1 0x0 DUP2 SLOAD PUSH1 0x1 SWAP1 SUB SWAP2 SWAP1 POP DUP2 SWAP1 SSTORE POP PUSH2 0x194A PUSH2 0x345E JUMP JUMPDEST PUSH1 0x5 ADD PUSH1 0x0 DUP7 PUSH20 0xFFFFFFFFFFFFFFFFFFFFFFFFFFFFFFFFFFFFFFFF AND PUSH20 0xFFFFFFFFFFFFFFFFFFFFFFFFFFFFFFFFFFFFFFFF AND DUP2 MSTORE PUSH1 0x20 ADD SWAP1 DUP2 MSTORE PUSH1 0x20 ADD PUSH1 0x0 KECCAK256 PUSH1 0x0 DUP2 SLOAD PUSH1 0x1 ADD SWAP2 SWAP1 POP DUP2 SWAP1 SSTORE POP PUSH2 0x19CB DUP6 PUSH2 0x19A7 DUP9 DUP9 DUP8 PUSH2 0x392A JUMP JUMPDEST PUSH29 0x200000000000000000000000000000000000000000000000000000000 OR PUSH2 0x3952 JUMP JUMPDEST PUSH2 0x19D3 PUSH2 0x345E JUMP JUMPDEST PUSH1 0x4 ADD PUSH1 0x0 DUP7 DUP2 MSTORE PUSH1 0x20 ADD SWAP1 DUP2 MSTORE PUSH1 0x20 ADD PUSH1 0x0 KECCAK256 DUP2 SWAP1 SSTORE POP PUSH1 0x0 PUSH29 0x200000000000000000000000000000000000000000000000000000000 DUP5 AND EQ ISZERO PUSH2 0x1A77 JUMPI PUSH1 0x0 PUSH1 0x1 DUP6 ADD SWAP1 POP PUSH1 0x0 PUSH2 0x1A25 PUSH2 0x345E JUMP JUMPDEST PUSH1 0x4 ADD PUSH1 0x0 DUP4 DUP2 MSTORE PUSH1 0x20 ADD SWAP1 DUP2 MSTORE PUSH1 0x20 ADD PUSH1 0x0 KECCAK256 SLOAD EQ ISZERO PUSH2 0x1A75 JUMPI PUSH2 0x1A48 PUSH2 0x345E JUMP JUMPDEST PUSH1 0x0 ADD SLOAD DUP2 EQ PUSH2 0x1A74 JUMPI DUP4 PUSH2 0x1A5B PUSH2 0x345E JUMP JUMPDEST PUSH1 0x4 ADD PUSH1 0x0 DUP4 DUP2 MSTORE PUSH1 0x20 ADD SWAP1 DUP2 MSTORE PUSH1 0x20 ADD PUSH1 0x0 KECCAK256 DUP2 SWAP1 SSTORE POP JUMPDEST JUMPDEST POP JUMPDEST DUP4 DUP6 PUSH20 0xFFFFFFFFFFFFFFFFFFFFFFFFFFFFFFFFFFFFFFFF AND DUP8 PUSH20 0xFFFFFFFFFFFFFFFFFFFFFFFFFFFFFFFFFFFFFFFF AND PUSH32 0xDDF252AD1BE2C89B69C2B068FC378DAA952BA7F163C4A11628F55A4DF523B3EF PUSH1 0x40 MLOAD PUSH1 0x40 MLOAD DUP1 SWAP2 SUB SWAP1 LOG4 PUSH2 0x1ADF DUP7 DUP7 DUP7 PUSH1 0x1 PUSH2 0x397D JUMP JUMPDEST POP POP POP POP POP POP JUMP JUMPDEST PUSH2 0x1AEF PUSH2 0x3983 JUMP JUMPDEST PUSH20 0xFFFFFFFFFFFFFFFFFFFFFFFFFFFFFFFFFFFFFFFF AND PUSH2 0x1B0D PUSH2 0x274B JUMP JUMPDEST PUSH20 0xFFFFFFFFFFFFFFFFFFFFFFFFFFFFFFFFFFFFFFFF AND EQ PUSH2 0x1B63 JUMPI PUSH1 0x40 MLOAD PUSH32 0x8C379A000000000000000000000000000000000000000000000000000000000 DUP2 MSTORE PUSH1 0x4 ADD PUSH2 0x1B5A SWAP1 PUSH2 0x613A JUMP JUMPDEST PUSH1 0x40 MLOAD DUP1 SWAP2 SUB SWAP1 REVERT JUMPDEST DUP1 PUSH1 0xCC DUP2 SWAP1 SSTORE POP POP JUMP JUMPDEST PUSH1 0x2 PUSH1 0x1 SLOAD EQ ISZERO PUSH2 0x1BB3 JUMPI PUSH1 0x40 MLOAD PUSH32 0x8C379A000000000000000000000000000000000000000000000000000000000 DUP2 MSTORE PUSH1 0x4 ADD PUSH2 0x1BAA SWAP1 PUSH2 0x623A JUMP JUMPDEST PUSH1 0x40 MLOAD DUP1 SWAP2 SUB SWAP1 REVERT JUMPDEST PUSH1 0x2 PUSH1 0x1 DUP2 SWAP1 SSTORE POP PUSH2 0x1BC3 PUSH2 0x2527 JUMP JUMPDEST ISZERO PUSH2 0x1C03 JUMPI PUSH1 0x40 MLOAD PUSH32 0x8C379A000000000000000000000000000000000000000000000000000000000 DUP2 MSTORE PUSH1 0x4 ADD PUSH2 0x1BFA SWAP1 PUSH2 0x605A JUMP JUMPDEST PUSH1 0x40 MLOAD DUP1 SWAP2 SUB SWAP1 REVERT JUMPDEST PUSH1 0x0 PUSH2 0x1C0D PUSH2 0x1763 JUMP JUMPDEST SWAP1 POP PUSH1 0xCB SLOAD PUSH2 0x1C1A PUSH2 0x1763 JUMP JUMPDEST LT PUSH2 0x1C5A JUMPI PUSH1 0x40 MLOAD PUSH32 0x8C379A000000000000000000000000000000000000000000000000000000000 DUP2 MSTORE PUSH1 0x4 ADD PUSH2 0x1C51 SWAP1 PUSH2 0x5FFA JUMP JUMPDEST PUSH1 0x40 MLOAD DUP1 SWAP2 SUB SWAP1 REVERT JUMPDEST PUSH1 0x1 PUSH1 0x4 DUP2 GT ISZERO PUSH2 0x1C6E JUMPI PUSH2 0x1C6D PUSH2 0x67C1 JUMP JUMPDEST JUMPDEST PUSH1 0xCA PUSH1 0x14 SWAP1 SLOAD SWAP1 PUSH2 0x100 EXP SWAP1 DIV PUSH1 0xFF AND PUSH1 0x4 DUP2 GT ISZERO PUSH2 0x1C90 JUMPI PUSH2 0x1C8F PUSH2 0x67C1 JUMP JUMPDEST JUMPDEST EQ PUSH2 0x1CD0 JUMPI PUSH1 0x40 MLOAD PUSH32 0x8C379A000000000000000000000000000000000000000000000000000000000 DUP2 MSTORE PUSH1 0x4 ADD PUSH2 0x1CC7 SWAP1 PUSH2 0x621A JUMP JUMPDEST PUSH1 0x40 MLOAD DUP1 SWAP2 SUB SWAP1 REVERT JUMPDEST PUSH1 0xCE SLOAD PUSH1 0xD5 PUSH1 0x0 CALLER PUSH20 0xFFFFFFFFFFFFFFFFFFFFFFFFFFFFFFFFFFFFFFFF AND PUSH20 0xFFFFFFFFFFFFFFFFFFFFFFFFFFFFFFFFFFFFFFFF AND DUP2 MSTORE PUSH1 0x20 ADD SWAP1 DUP2 MSTORE PUSH1 0x20 ADD PUSH1 0x0 KECCAK256 SLOAD GT ISZERO PUSH2 0x1D54 JUMPI PUSH1 0x40 MLOAD PUSH32 0x8C379A000000000000000000000000000000000000000000000000000000000 DUP2 MSTORE PUSH1 0x4 ADD PUSH2 0x1D4B SWAP1 PUSH2 0x5FDA JUMP JUMPDEST PUSH1 0x40 MLOAD DUP1 SWAP2 SUB SWAP1 REVERT JUMPDEST PUSH1 0xCB SLOAD DUP5 DUP3 PUSH2 0x1D63 SWAP2 SWAP1 PUSH2 0x642D JUMP JUMPDEST GT ISZERO PUSH2 0x1DA4 JUMPI PUSH1 0x40 MLOAD PUSH32 0x8C379A000000000000000000000000000000000000000000000000000000000 DUP2 MSTORE PUSH1 0x4 ADD PUSH2 0x1D9B SWAP1 PUSH2 0x611A JUMP JUMPDEST PUSH1 0x40 MLOAD DUP1 SWAP2 SUB SWAP1 REVERT JUMPDEST DUP4 PUSH1 0xCD SLOAD PUSH2 0x1DB2 SWAP2 SWAP1 PUSH2 0x64B4 JUMP JUMPDEST CALLVALUE LT ISZERO PUSH2 0x1DF4 JUMPI PUSH1 0x40 MLOAD PUSH32 0x8C379A000000000000000000000000000000000000000000000000000000000 DUP2 MSTORE PUSH1 0x4 ADD PUSH2 0x1DEB SWAP1 PUSH2 0x61DA JUMP JUMPDEST PUSH1 0x40 MLOAD DUP1 SWAP2 SUB SWAP1 REVERT JUMPDEST PUSH2 0x1E7B DUP4 DUP4 DUP1 DUP1 PUSH1 0x1F ADD PUSH1 0x20 DUP1 SWAP2 DIV MUL PUSH1 0x20 ADD PUSH1 0x40 MLOAD SWAP1 DUP2 ADD PUSH1 0x40 MSTORE DUP1 SWAP4 SWAP3 SWAP2 SWAP1 DUP2 DUP2 MSTORE PUSH1 0x20 ADD DUP4 DUP4 DUP1 DUP3 DUP5 CALLDATACOPY PUSH1 0x0 DUP2 DUP5 ADD MSTORE PUSH1 0x1F NOT PUSH1 0x1F DUP3 ADD AND SWAP1 POP DUP1 DUP4 ADD SWAP3 POP POP POP POP POP POP POP PUSH2 0x1E6D ADDRESS CALLER PUSH1 0x40 MLOAD PUSH1 0x20 ADD PUSH2 0x1E52 SWAP3 SWAP2 SWAP1 PUSH2 0x5CDF JUMP JUMPDEST PUSH1 0x40 MLOAD PUSH1 0x20 DUP2 DUP4 SUB SUB DUP2 MSTORE SWAP1 PUSH1 0x40 MSTORE DUP1 MLOAD SWAP1 PUSH1 0x20 ADD KECCAK256 PUSH2 0x398B JUMP JUMPDEST PUSH2 0x39BB SWAP1 SWAP2 SWAP1 PUSH4 0xFFFFFFFF AND JUMP JUMPDEST PUSH20 0xFFFFFFFFFFFFFFFFFFFFFFFFFFFFFFFFFFFFFFFF AND PUSH2 0x1E99 PUSH2 0x274B JUMP JUMPDEST PUSH20 0xFFFFFFFFFFFFFFFFFFFFFFFFFFFFFFFFFFFFFFFF AND EQ PUSH2 0x1EEF JUMPI PUSH1 0x40 MLOAD PUSH32 0x8C379A000000000000000000000000000000000000000000000000000000000 DUP2 MSTORE PUSH1 0x4 ADD PUSH2 0x1EE6 SWAP1 PUSH2 0x5F5A JUMP JUMPDEST PUSH1 0x40 MLOAD DUP1 SWAP2 SUB SWAP1 REVERT JUMPDEST PUSH2 0x1EF9 CALLER DUP6 PUSH2 0x37A9 JUMP JUMPDEST PUSH1 0x0 PUSH1 0x1 SWAP1 POP JUMPDEST DUP5 DUP2 GT PUSH2 0x1F6F JUMPI PUSH1 0xD5 PUSH1 0x0 CALLER PUSH20 0xFFFFFFFFFFFFFFFFFFFFFFFFFFFFFFFFFFFFFFFF AND PUSH20 0xFFFFFFFFFFFFFFFFFFFFFFFFFFFFFFFFFFFFFFFF AND DUP2 MSTORE PUSH1 0x20 ADD SWAP1 DUP2 MSTORE PUSH1 0x20 ADD PUSH1 0x0 KECCAK256 PUSH1 0x0 DUP2 SLOAD DUP1 SWAP3 SWAP2 SWAP1 PUSH2 0x1F57 SWAP1 PUSH2 0x66BB JUMP JUMPDEST SWAP2 SWAP1 POP SSTORE POP DUP1 DUP1 PUSH2 0x1F67 SWAP1 PUSH2 0x66BB JUMP JUMPDEST SWAP2 POP POP PUSH2 0x1F00 JUMP JUMPDEST POP POP PUSH1 0x1 DUP1 DUP2 SWAP1 SSTORE POP POP POP POP JUMP JUMPDEST PUSH2 0x1F85 PUSH2 0x2527 JUMP JUMPDEST ISZERO PUSH2 0x1FC5 JUMPI PUSH1 0x40 MLOAD PUSH32 0x8C379A000000000000000000000000000000000000000000000000000000000 DUP2 MSTORE PUSH1 0x4 ADD PUSH2 0x1FBC SWAP1 PUSH2 0x605A JUMP JUMPDEST PUSH1 0x40 MLOAD DUP1 SWAP2 SUB SWAP1 REVERT JUMPDEST PUSH2 0x1FCE DUP2 PUSH2 0x39E2 JUMP JUMPDEST POP JUMP JUMPDEST PUSH1 0xCB SLOAD DUP2 JUMP JUMPDEST PUSH2 0x1FDF PUSH2 0x3983 JUMP JUMPDEST PUSH20 0xFFFFFFFFFFFFFFFFFFFFFFFFFFFFFFFFFFFFFFFF AND PUSH2 0x1FFD PUSH2 0x274B JUMP JUMPDEST PUSH20 0xFFFFFFFFFFFFFFFFFFFFFFFFFFFFFFFFFFFFFFFF AND EQ PUSH2 0x2053 JUMPI PUSH1 0x40 MLOAD PUSH32 0x8C379A000000000000000000000000000000000000000000000000000000000 DUP2 MSTORE PUSH1 0x4 ADD PUSH2 0x204A SWAP1 PUSH2 0x613A JUMP JUMPDEST PUSH1 0x40 MLOAD DUP1 SWAP2 SUB SWAP1 REVERT JUMPDEST PUSH2 0x205B PUSH2 0x2527 JUMP JUMPDEST ISZERO PUSH2 0x209B JUMPI PUSH1 0x40 MLOAD PUSH32 0x8C379A000000000000000000000000000000000000000000000000000000000 DUP2 MSTORE PUSH1 0x4 ADD PUSH2 0x2092 SWAP1 PUSH2 0x605A JUMP JUMPDEST PUSH1 0x40 MLOAD DUP1 SWAP2 SUB SWAP1 REVERT JUMPDEST PUSH1 0x0 PUSH2 0x20A5 PUSH2 0x1763 JUMP JUMPDEST SWAP1 POP PUSH1 0x0 DUP3 GT PUSH2 0x20EA JUMPI PUSH1 0x40 MLOAD PUSH32 0x8C379A000000000000000000000000000000000000000000000000000000000 DUP2 MSTORE PUSH1 0x4 ADD PUSH2 0x20E1 SWAP1 PUSH2 0x625A JUMP JUMPDEST PUSH1 0x40 MLOAD DUP1 SWAP2 SUB SWAP1 REVERT JUMPDEST PUSH1 0xCB SLOAD DUP3 DUP3 PUSH2 0x20F9 SWAP2 SWAP1 PUSH2 0x642D JUMP JUMPDEST GT ISZERO PUSH2 0x213A JUMPI PUSH1 0x40 MLOAD PUSH32 0x8C379A000000000000000000000000000000000000000000000000000000000 DUP2 MSTORE PUSH1 0x4 ADD PUSH2 0x2131 SWAP1 PUSH2 0x601A JUMP JUMPDEST PUSH1 0x40 MLOAD DUP1 SWAP2 SUB SWAP1 REVERT JUMPDEST PUSH2 0x2144 DUP4 DUP4 PUSH2 0x37A9 JUMP JUMPDEST PUSH1 0x0 PUSH1 0x1 SWAP1 POP JUMPDEST DUP3 DUP2 GT PUSH2 0x21BA JUMPI PUSH1 0xD5 PUSH1 0x0 DUP6 PUSH20 0xFFFFFFFFFFFFFFFFFFFFFFFFFFFFFFFFFFFFFFFF AND PUSH20 0xFFFFFFFFFFFFFFFFFFFFFFFFFFFFFFFFFFFFFFFF AND DUP2 MSTORE PUSH1 0x20 ADD SWAP1 DUP2 MSTORE PUSH1 0x20 ADD PUSH1 0x0 KECCAK256 PUSH1 0x0 DUP2 SLOAD DUP1 SWAP3 SWAP2 SWAP1 PUSH2 0x21A2 SWAP1 PUSH2 0x66BB JUMP JUMPDEST SWAP2 SWAP1 POP SSTORE POP DUP1 DUP1 PUSH2 0x21B2 SWAP1 PUSH2 0x66BB JUMP JUMPDEST SWAP2 POP POP PUSH2 0x214B JUMP JUMPDEST POP POP POP POP JUMP JUMPDEST PUSH2 0x21C8 PUSH2 0x3983 JUMP JUMPDEST PUSH20 0xFFFFFFFFFFFFFFFFFFFFFFFFFFFFFFFFFFFFFFFF AND PUSH2 0x21E6 PUSH2 0x274B JUMP JUMPDEST PUSH20 0xFFFFFFFFFFFFFFFFFFFFFFFFFFFFFFFFFFFFFFFF AND EQ PUSH2 0x223C JUMPI PUSH1 0x40 MLOAD PUSH32 0x8C379A000000000000000000000000000000000000000000000000000000000 DUP2 MSTORE PUSH1 0x4 ADD PUSH2 0x2233 SWAP1 PUSH2 0x613A JUMP JUMPDEST PUSH1 0x40 MLOAD DUP1 SWAP2 SUB SWAP1 REVERT JUMPDEST PUSH2 0x2244 PUSH2 0x39F0 JUMP JUMPDEST JUMP JUMPDEST PUSH2 0x2261 DUP4 DUP4 DUP4 PUSH1 0x40 MLOAD DUP1 PUSH1 0x20 ADD PUSH1 0x40 MSTORE DUP1 PUSH1 0x0 DUP2 MSTORE POP PUSH2 0x2E55 JUMP JUMPDEST POP POP POP JUMP JUMPDEST PUSH1 0x0 DUP1 PUSH1 0x0 DUP1 PUSH1 0x0 JUMPDEST DUP7 DUP7 SWAP1 POP DUP2 LT ISZERO PUSH2 0x23E8 JUMPI DUP7 DUP7 DUP3 DUP2 DUP2 LT PUSH2 0x228D JUMPI PUSH2 0x228C PUSH2 0x681F JUMP JUMPDEST JUMPDEST SWAP1 POP PUSH1 0x20 MUL ADD CALLDATALOAD SWAP4 POP PUSH1 0x0 PUSH1 0xD6 PUSH1 0x0 DUP7 DUP2 MSTORE PUSH1 0x20 ADD SWAP1 DUP2 MSTORE PUSH1 0x20 ADD PUSH1 0x0 KECCAK256 PUSH1 0x40 MLOAD DUP1 PUSH1 0x60 ADD PUSH1 0x40 MSTORE SWAP1 DUP2 PUSH1 0x0 DUP3 ADD SLOAD DUP2 MSTORE PUSH1 0x20 ADD PUSH1 0x1 DUP3 ADD SLOAD DUP2 MSTORE PUSH1 0x20 ADD PUSH1 0x2 DUP3 ADD PUSH1 0x0 SWAP1 SLOAD SWAP1 PUSH2 0x100 EXP SWAP1 DIV PUSH20 0xFFFFFFFFFFFFFFFFFFFFFFFFFFFFFFFFFFFFFFFF AND PUSH20 0xFFFFFFFFFFFFFFFFFFFFFFFFFFFFFFFFFFFFFFFF AND PUSH20 0xFFFFFFFFFFFFFFFFFFFFFFFFFFFFFFFFFFFFFFFF AND DUP2 MSTORE POP POP SWAP1 POP DUP9 PUSH20 0xFFFFFFFFFFFFFFFFFFFFFFFFFFFFFFFFFFFFFFFF AND DUP2 PUSH1 0x40 ADD MLOAD PUSH20 0xFFFFFFFFFFFFFFFFFFFFFFFFFFFFFFFFFFFFFFFF AND EQ PUSH2 0x2394 JUMPI PUSH1 0x40 MLOAD PUSH32 0x8C379A000000000000000000000000000000000000000000000000000000000 DUP2 MSTORE PUSH1 0x4 ADD PUSH2 0x238B SWAP1 PUSH2 0x607A JUMP JUMPDEST PUSH1 0x40 MLOAD DUP1 SWAP2 SUB SWAP1 REVERT JUMPDEST PUSH1 0x0 DUP2 PUSH1 0x20 ADD MLOAD SWAP1 POP PUSH2 0xE10 PUSH1 0xD3 SLOAD DUP3 TIMESTAMP PUSH2 0x23AF SWAP2 SWAP1 PUSH2 0x650E JUMP JUMPDEST PUSH2 0x23B9 SWAP2 SWAP1 PUSH2 0x64B4 JUMP JUMPDEST PUSH2 0x23C3 SWAP2 SWAP1 PUSH2 0x6483 JUMP JUMPDEST SWAP5 POP DUP5 DUP5 PUSH2 0x23D1 SWAP2 SWAP1 PUSH2 0x642D JUMP JUMPDEST SWAP4 POP POP POP DUP1 DUP1 PUSH2 0x23E0 SWAP1 PUSH2 0x66BB JUMP JUMPDEST SWAP2 POP POP PUSH2 0x226F JUMP JUMPDEST POP DUP1 SWAP4 POP POP POP POP SWAP4 SWAP3 POP POP POP JUMP JUMPDEST PUSH1 0xD4 PUSH1 0x0 SWAP1 SLOAD SWAP1 PUSH2 0x100 EXP SWAP1 DIV PUSH1 0xFF AND DUP2 JUMP JUMPDEST PUSH1 0x0 PUSH1 0xD4 PUSH1 0x0 SWAP1 SLOAD SWAP1 PUSH2 0x100 EXP SWAP1 DIV PUSH1 0xFF AND SWAP1 POP SWAP1 JUMP JUMPDEST PUSH2 0x2428 PUSH2 0x3983 JUMP JUMPDEST PUSH20 0xFFFFFFFFFFFFFFFFFFFFFFFFFFFFFFFFFFFFFFFF AND PUSH2 0x2446 PUSH2 0x274B JUMP JUMPDEST PUSH20 0xFFFFFFFFFFFFFFFFFFFFFFFFFFFFFFFFFFFFFFFF AND EQ PUSH2 0x249C JUMPI PUSH1 0x40 MLOAD PUSH32 0x8C379A000000000000000000000000000000000000000000000000000000000 DUP2 MSTORE PUSH1 0x4 ADD PUSH2 0x2493 SWAP1 PUSH2 0x613A JUMP JUMPDEST PUSH1 0x40 MLOAD DUP1 SWAP2 SUB SWAP1 REVERT JUMPDEST PUSH1 0x1 ISZERO ISZERO PUSH1 0xD4 PUSH1 0x2 SWAP1 SLOAD SWAP1 PUSH2 0x100 EXP SWAP1 DIV PUSH1 0xFF AND ISZERO ISZERO EQ PUSH2 0x24F2 JUMPI PUSH1 0x40 MLOAD PUSH32 0x8C379A000000000000000000000000000000000000000000000000000000000 DUP2 MSTORE PUSH1 0x4 ADD PUSH2 0x24E9 SWAP1 PUSH2 0x617A JUMP JUMPDEST PUSH1 0x40 MLOAD DUP1 SWAP2 SUB SWAP1 REVERT JUMPDEST DUP1 PUSH1 0xD0 SWAP1 DUP1 MLOAD SWAP1 PUSH1 0x20 ADD SWAP1 PUSH2 0x2508 SWAP3 SWAP2 SWAP1 PUSH2 0x4F3F JUMP JUMPDEST POP PUSH1 0x0 PUSH1 0xD4 PUSH1 0x2 PUSH2 0x100 EXP DUP2 SLOAD DUP2 PUSH1 0xFF MUL NOT AND SWAP1 DUP4 ISZERO ISZERO MUL OR SWAP1 SSTORE POP POP JUMP JUMPDEST PUSH1 0x0 PUSH1 0x97 PUSH1 0x0 SWAP1 SLOAD SWAP1 PUSH2 0x100 EXP SWAP1 DIV PUSH1 0xFF AND SWAP1 POP SWAP1 JUMP JUMPDEST PUSH1 0x0 PUSH2 0x2549 DUP3 PUSH2 0x37CC JUMP JUMPDEST SWAP1 POP SWAP2 SWAP1 POP JUMP JUMPDEST PUSH1 0x0 PUSH1 0xCB SLOAD SWAP1 POP SWAP1 JUMP JUMPDEST PUSH2 0x2567 CALLER DUP4 DUP4 PUSH1 0x0 PUSH2 0x3A92 JUMP JUMPDEST POP POP JUMP JUMPDEST PUSH1 0x0 DUP1 PUSH20 0xFFFFFFFFFFFFFFFFFFFFFFFFFFFFFFFFFFFFFFFF AND DUP3 PUSH20 0xFFFFFFFFFFFFFFFFFFFFFFFFFFFFFFFFFFFFFFFF AND EQ ISZERO PUSH2 0x25D3 JUMPI PUSH1 0x40 MLOAD PUSH32 0x8F4EB60400000000000000000000000000000000000000000000000000000000 DUP2 MSTORE PUSH1 0x4 ADD PUSH1 0x40 MLOAD DUP1 SWAP2 SUB SWAP1 REVERT JUMPDEST PUSH8 0xFFFFFFFFFFFFFFFF PUSH2 0x25E4 PUSH2 0x345E JUMP JUMPDEST PUSH1 0x5 ADD PUSH1 0x0 DUP5 PUSH20 0xFFFFFFFFFFFFFFFFFFFFFFFFFFFFFFFFFFFFFFFF AND PUSH20 0xFFFFFFFFFFFFFFFFFFFFFFFFFFFFFFFFFFFFFFFF AND DUP2 MSTORE PUSH1 0x20 ADD SWAP1 DUP2 MSTORE PUSH1 0x20 ADD PUSH1 0x0 KECCAK256 SLOAD AND SWAP1 POP SWAP2 SWAP1 POP JUMP JUMPDEST PUSH2 0x2635 PUSH2 0x3983 JUMP JUMPDEST PUSH20 0xFFFFFFFFFFFFFFFFFFFFFFFFFFFFFFFFFFFFFFFF AND PUSH2 0x2653 PUSH2 0x274B JUMP JUMPDEST PUSH20 0xFFFFFFFFFFFFFFFFFFFFFFFFFFFFFFFFFFFFFFFF AND EQ PUSH2 0x26A9 JUMPI PUSH1 0x40 MLOAD PUSH32 0x8C379A000000000000000000000000000000000000000000000000000000000 DUP2 MSTORE PUSH1 0x4 ADD PUSH2 0x26A0 SWAP1 PUSH2 0x613A JUMP JUMPDEST PUSH1 0x40 MLOAD DUP1 SWAP2 SUB SWAP1 REVERT JUMPDEST PUSH2 0x26B3 PUSH1 0x0 PUSH2 0x3DCA JUMP JUMPDEST JUMP JUMPDEST PUSH1 0xCF SLOAD DUP2 JUMP JUMPDEST PUSH1 0x0 PUSH1 0xCD SLOAD SWAP1 POP SWAP1 JUMP JUMPDEST PUSH2 0x26CD PUSH2 0x3983 JUMP JUMPDEST PUSH20 0xFFFFFFFFFFFFFFFFFFFFFFFFFFFFFFFFFFFFFFFF AND PUSH2 0x26EB PUSH2 0x274B JUMP JUMPDEST PUSH20 0xFFFFFFFFFFFFFFFFFFFFFFFFFFFFFFFFFFFFFFFF AND EQ PUSH2 0x2741 JUMPI PUSH1 0x40 MLOAD PUSH32 0x8C379A000000000000000000000000000000000000000000000000000000000 DUP2 MSTORE PUSH1 0x4 ADD PUSH2 0x2738 SWAP1 PUSH2 0x613A JUMP JUMPDEST PUSH1 0x40 MLOAD DUP1 SWAP2 SUB SWAP1 REVERT JUMPDEST PUSH2 0x2749 PUSH2 0x3E90 JUMP JUMPDEST JUMP JUMPDEST PUSH1 0x0 PUSH1 0x65 PUSH1 0x0 SWAP1 SLOAD SWAP1 PUSH2 0x100 EXP SWAP1 DIV PUSH20 0xFFFFFFFFFFFFFFFFFFFFFFFFFFFFFFFFFFFFFFFF AND SWAP1 POP SWAP1 JUMP JUMPDEST PUSH1 0xCD SLOAD DUP2 JUMP JUMPDEST PUSH1 0xD5 PUSH1 0x20 MSTORE DUP1 PUSH1 0x0 MSTORE PUSH1 0x40 PUSH1 0x0 KECCAK256 PUSH1 0x0 SWAP2 POP SWAP1 POP SLOAD DUP2 JUMP JUMPDEST PUSH1 0x60 PUSH2 0x279D PUSH2 0x345E JUMP JUMPDEST PUSH1 0x3 ADD DUP1 SLOAD PUSH2 0x27AB SWAP1 PUSH2 0x6658 JUMP JUMPDEST DUP1 PUSH1 0x1F ADD PUSH1 0x20 DUP1 SWAP2 DIV MUL PUSH1 0x20 ADD PUSH1 0x40 MLOAD SWAP1 DUP2 ADD PUSH1 0x40 MSTORE DUP1 SWAP3 SWAP2 SWAP1 DUP2 DUP2 MSTORE PUSH1 0x20 ADD DUP3 DUP1 SLOAD PUSH2 0x27D7 SWAP1 PUSH2 0x6658 JUMP JUMPDEST DUP1 ISZERO PUSH2 0x2824 JUMPI DUP1 PUSH1 0x1F LT PUSH2 0x27F9 JUMPI PUSH2 0x100 DUP1 DUP4 SLOAD DIV MUL DUP4 MSTORE SWAP2 PUSH1 0x20 ADD SWAP2 PUSH2 0x2824 JUMP JUMPDEST DUP3 ADD SWAP2 SWAP1 PUSH1 0x0 MSTORE PUSH1 0x20 PUSH1 0x0 KECCAK256 SWAP1 JUMPDEST DUP2 SLOAD DUP2 MSTORE SWAP1 PUSH1 0x1 ADD SWAP1 PUSH1 0x20 ADD DUP1 DUP4 GT PUSH2 0x2807 JUMPI DUP3 SWAP1 SUB PUSH1 0x1F AND DUP3 ADD SWAP2 JUMPDEST POP POP POP POP POP SWAP1 POP SWAP1 JUMP JUMPDEST PUSH1 0xD6 PUSH1 0x20 MSTORE DUP1 PUSH1 0x0 MSTORE PUSH1 0x40 PUSH1 0x0 KECCAK256 PUSH1 0x0 SWAP2 POP SWAP1 POP DUP1 PUSH1 0x0 ADD SLOAD SWAP1 DUP1 PUSH1 0x1 ADD SLOAD SWAP1 DUP1 PUSH1 0x2 ADD PUSH1 0x0 SWAP1 SLOAD SWAP1 PUSH2 0x100 EXP SWAP1 DIV PUSH20 0xFFFFFFFFFFFFFFFFFFFFFFFFFFFFFFFFFFFFFFFF AND SWAP1 POP DUP4 JUMP JUMPDEST PUSH2 0x2880 PUSH2 0x37A1 JUMP JUMPDEST PUSH20 0xFFFFFFFFFFFFFFFFFFFFFFFFFFFFFFFFFFFFFFFF AND DUP3 PUSH20 0xFFFFFFFFFFFFFFFFFFFFFFFFFFFFFFFFFFFFFFFF AND EQ ISZERO PUSH2 0x28E5 JUMPI PUSH1 0x40 MLOAD PUSH32 0xB06307DB00000000000000000000000000000000000000000000000000000000 DUP2 MSTORE PUSH1 0x4 ADD PUSH1 0x40 MLOAD DUP1 SWAP2 SUB SWAP1 REVERT JUMPDEST DUP1 PUSH2 0x28EE PUSH2 0x345E JUMP JUMPDEST PUSH1 0x7 ADD PUSH1 0x0 PUSH2 0x28FB PUSH2 0x37A1 JUMP JUMPDEST PUSH20 0xFFFFFFFFFFFFFFFFFFFFFFFFFFFFFFFFFFFFFFFF AND PUSH20 0xFFFFFFFFFFFFFFFFFFFFFFFFFFFFFFFFFFFFFFFF AND DUP2 MSTORE PUSH1 0x20 ADD SWAP1 DUP2 MSTORE PUSH1 0x20 ADD PUSH1 0x0 KECCAK256 PUSH1 0x0 DUP5 PUSH20 0xFFFFFFFFFFFFFFFFFFFFFFFFFFFFFFFFFFFFFFFF AND PUSH20 0xFFFFFFFFFFFFFFFFFFFFFFFFFFFFFFFFFFFFFFFF AND DUP2 MSTORE PUSH1 0x20 ADD SWAP1 DUP2 MSTORE PUSH1 0x20 ADD PUSH1 0x0 KECCAK256 PUSH1 0x0 PUSH2 0x100 EXP DUP2 SLOAD DUP2 PUSH1 0xFF MUL NOT AND SWAP1 DUP4 ISZERO ISZERO MUL OR SWAP1 SSTORE POP DUP2 PUSH20 0xFFFFFFFFFFFFFFFFFFFFFFFFFFFFFFFFFFFFFFFF AND PUSH2 0x29A8 PUSH2 0x37A1 JUMP JUMPDEST PUSH20 0xFFFFFFFFFFFFFFFFFFFFFFFFFFFFFFFFFFFFFFFF AND PUSH32 0x17307EAB39AB6107E8899845AD3D59BD9653F200F220920489CA2B5937696C31 DUP4 PUSH1 0x40 MLOAD PUSH2 0x29ED SWAP2 SWAP1 PUSH2 0x5E62 JUMP JUMPDEST PUSH1 0x40 MLOAD DUP1 SWAP2 SUB SWAP1 LOG3 POP POP JUMP JUMPDEST PUSH2 0x2A01 PUSH2 0x3983 JUMP JUMPDEST PUSH20 0xFFFFFFFFFFFFFFFFFFFFFFFFFFFFFFFFFFFFFFFF AND PUSH2 0x2A1F PUSH2 0x274B JUMP JUMPDEST PUSH20 0xFFFFFFFFFFFFFFFFFFFFFFFFFFFFFFFFFFFFFFFF AND EQ PUSH2 0x2A75 JUMPI PUSH1 0x40 MLOAD PUSH32 0x8C379A000000000000000000000000000000000000000000000000000000000 DUP2 MSTORE PUSH1 0x4 ADD PUSH2 0x2A6C SWAP1 PUSH2 0x613A JUMP JUMPDEST PUSH1 0x40 MLOAD DUP1 SWAP2 SUB SWAP1 REVERT JUMPDEST PUSH2 0x2A7D PUSH2 0x2527 JUMP JUMPDEST ISZERO PUSH2 0x2ABD JUMPI PUSH1 0x40 MLOAD PUSH32 0x8C379A000000000000000000000000000000000000000000000000000000000 DUP2 MSTORE PUSH1 0x4 ADD PUSH2 0x2AB4 SWAP1 PUSH2 0x605A JUMP JUMPDEST PUSH1 0x40 MLOAD DUP1 SWAP2 SUB SWAP1 REVERT JUMPDEST PUSH1 0x4 PUSH1 0xCA PUSH1 0x14 PUSH2 0x100 EXP DUP2 SLOAD DUP2 PUSH1 0xFF MUL NOT AND SWAP1 DUP4 PUSH1 0x4 DUP2 GT ISZERO PUSH2 0x2AE3 JUMPI PUSH2 0x2AE2 PUSH2 0x67C1 JUMP JUMPDEST JUMPDEST MUL OR SWAP1 SSTORE POP PUSH1 0x1 PUSH1 0xD4 PUSH1 0x0 PUSH2 0x100 EXP DUP2 SLOAD DUP2 PUSH1 0xFF MUL NOT AND SWAP1 DUP4 ISZERO ISZERO MUL OR SWAP1 SSTORE POP JUMP JUMPDEST PUSH1 0xD4 PUSH1 0x2 SWAP1 SLOAD SWAP1 PUSH2 0x100 EXP SWAP1 DIV PUSH1 0xFF AND DUP2 JUMP JUMPDEST PUSH2 0x2B20 PUSH2 0x3983 JUMP JUMPDEST PUSH20 0xFFFFFFFFFFFFFFFFFFFFFFFFFFFFFFFFFFFFFFFF AND PUSH2 0x2B3E PUSH2 0x274B JUMP JUMPDEST PUSH20 0xFFFFFFFFFFFFFFFFFFFFFFFFFFFFFFFFFFFFFFFF AND EQ PUSH2 0x2B94 JUMPI PUSH1 0x40 MLOAD PUSH32 0x8C379A000000000000000000000000000000000000000000000000000000000 DUP2 MSTORE PUSH1 0x4 ADD PUSH2 0x2B8B SWAP1 PUSH2 0x613A JUMP JUMPDEST PUSH1 0x40 MLOAD DUP1 SWAP2 SUB SWAP1 REVERT JUMPDEST PUSH2 0x2B9C PUSH2 0x2527 JUMP JUMPDEST ISZERO PUSH2 0x2BDC JUMPI PUSH1 0x40 MLOAD PUSH32 0x8C379A000000000000000000000000000000000000000000000000000000000 DUP2 MSTORE PUSH1 0x4 ADD PUSH2 0x2BD3 SWAP1 PUSH2 0x605A JUMP JUMPDEST PUSH1 0x40 MLOAD DUP1 SWAP2 SUB SWAP1 REVERT JUMPDEST PUSH1 0x1 PUSH1 0xCA PUSH1 0x14 PUSH2 0x100 EXP DUP2 SLOAD DUP2 PUSH1 0xFF MUL NOT AND SWAP1 DUP4 PUSH1 0x4 DUP2 GT ISZERO PUSH2 0x2C02 JUMPI PUSH2 0x2C01 PUSH2 0x67C1 JUMP JUMPDEST JUMPDEST MUL OR SWAP1 SSTORE POP JUMP JUMPDEST PUSH1 0x60 PUSH1 0x0 PUSH2 0x2C15 PUSH2 0x1763 JUMP JUMPDEST SWAP1 POP PUSH1 0x0 DUP2 PUSH8 0xFFFFFFFFFFFFFFFF DUP2 GT ISZERO PUSH2 0x2C33 JUMPI PUSH2 0x2C32 PUSH2 0x684E JUMP JUMPDEST JUMPDEST PUSH1 0x40 MLOAD SWAP1 DUP1 DUP3 MSTORE DUP1 PUSH1 0x20 MUL PUSH1 0x20 ADD DUP3 ADD PUSH1 0x40 MSTORE DUP1 ISZERO PUSH2 0x2C61 JUMPI DUP2 PUSH1 0x20 ADD PUSH1 0x20 DUP3 MUL DUP1 CALLDATASIZE DUP4 CALLDATACOPY DUP1 DUP3 ADD SWAP2 POP POP SWAP1 POP JUMPDEST POP SWAP1 POP PUSH1 0x0 DUP1 JUMPDEST DUP4 DUP2 LT ISZERO PUSH2 0x2D1C JUMPI DUP6 PUSH20 0xFFFFFFFFFFFFFFFFFFFFFFFFFFFFFFFFFFFFFFFF AND PUSH1 0xD6 PUSH1 0x0 DUP4 DUP2 MSTORE PUSH1 0x20 ADD SWAP1 DUP2 MSTORE PUSH1 0x20 ADD PUSH1 0x0 KECCAK256 PUSH1 0x2 ADD PUSH1 0x0 SWAP1 SLOAD SWAP1 PUSH2 0x100 EXP SWAP1 DIV PUSH20 0xFFFFFFFFFFFFFFFFFFFFFFFFFFFFFFFFFFFFFFFF AND PUSH20 0xFFFFFFFFFFFFFFFFFFFFFFFFFFFFFFFFFFFFFFFF AND EQ ISZERO PUSH2 0x2D09 JUMPI DUP1 DUP4 DUP4 DUP2 MLOAD DUP2 LT PUSH2 0x2CEE JUMPI PUSH2 0x2CED PUSH2 0x681F JUMP JUMPDEST JUMPDEST PUSH1 0x20 MUL PUSH1 0x20 ADD ADD DUP2 DUP2 MSTORE POP POP DUP2 DUP1 PUSH2 0x2D05 SWAP1 PUSH2 0x66BB JUMP JUMPDEST SWAP3 POP POP JUMPDEST DUP1 DUP1 PUSH2 0x2D14 SWAP1 PUSH2 0x66BB JUMP JUMPDEST SWAP2 POP POP PUSH2 0x2C68 JUMP JUMPDEST POP PUSH1 0x0 DUP2 PUSH8 0xFFFFFFFFFFFFFFFF DUP2 GT ISZERO PUSH2 0x2D39 JUMPI PUSH2 0x2D38 PUSH2 0x684E JUMP JUMPDEST JUMPDEST PUSH1 0x40 MLOAD SWAP1 DUP1 DUP3 MSTORE DUP1 PUSH1 0x20 MUL PUSH1 0x20 ADD DUP3 ADD PUSH1 0x40 MSTORE DUP1 ISZERO PUSH2 0x2D67 JUMPI DUP2 PUSH1 0x20 ADD PUSH1 0x20 DUP3 MUL DUP1 CALLDATASIZE DUP4 CALLDATACOPY DUP1 DUP3 ADD SWAP2 POP POP SWAP1 POP JUMPDEST POP SWAP1 POP PUSH1 0x0 JUMPDEST DUP3 DUP2 LT ISZERO PUSH2 0x2DC2 JUMPI DUP4 DUP2 DUP2 MLOAD DUP2 LT PUSH2 0x2D88 JUMPI PUSH2 0x2D87 PUSH2 0x681F JUMP JUMPDEST JUMPDEST PUSH1 0x20 MUL PUSH1 0x20 ADD ADD MLOAD DUP3 DUP3 DUP2 MLOAD DUP2 LT PUSH2 0x2DA3 JUMPI PUSH2 0x2DA2 PUSH2 0x681F JUMP JUMPDEST JUMPDEST PUSH1 0x20 MUL PUSH1 0x20 ADD ADD DUP2 DUP2 MSTORE POP POP DUP1 DUP1 PUSH2 0x2DBA SWAP1 PUSH2 0x66BB JUMP JUMPDEST SWAP2 POP POP PUSH2 0x2D6D JUMP JUMPDEST POP DUP1 SWAP5 POP POP POP POP POP SWAP2 SWAP1 POP JUMP JUMPDEST PUSH2 0x2DD7 PUSH2 0x3983 JUMP JUMPDEST PUSH20 0xFFFFFFFFFFFFFFFFFFFFFFFFFFFFFFFFFFFFFFFF AND PUSH2 0x2DF5 PUSH2 0x274B JUMP JUMPDEST PUSH20 0xFFFFFFFFFFFFFFFFFFFFFFFFFFFFFFFFFFFFFFFF AND EQ PUSH2 0x2E4B JUMPI PUSH1 0x40 MLOAD PUSH32 0x8C379A000000000000000000000000000000000000000000000000000000000 DUP2 MSTORE PUSH1 0x4 ADD PUSH2 0x2E42 SWAP1 PUSH2 0x613A JUMP JUMPDEST PUSH1 0x40 MLOAD DUP1 SWAP2 SUB SWAP1 REVERT JUMPDEST DUP1 PUSH1 0xCD DUP2 SWAP1 SSTORE POP POP JUMP JUMPDEST PUSH2 0x2E60 DUP5 DUP5 DUP5 PUSH2 0x178C JUMP JUMPDEST PUSH1 0x0 DUP4 PUSH20 0xFFFFFFFFFFFFFFFFFFFFFFFFFFFFFFFFFFFFFFFF AND EXTCODESIZE EQ PUSH2 0x2EC2 JUMPI PUSH2 0x2E8B DUP5 DUP5 DUP5 DUP5 PUSH2 0x3F33 JUMP JUMPDEST PUSH2 0x2EC1 JUMPI PUSH1 0x40 MLOAD PUSH32 0xD1A57ED600000000000000000000000000000000000000000000000000000000 DUP2 MSTORE PUSH1 0x4 ADD PUSH1 0x40 MLOAD DUP1 SWAP2 SUB SWAP1 REVERT JUMPDEST JUMPDEST POP POP POP POP JUMP JUMPDEST PUSH1 0xCE SLOAD DUP2 JUMP JUMPDEST PUSH1 0xD4 PUSH1 0x1 SWAP1 SLOAD SWAP1 PUSH2 0x100 EXP SWAP1 DIV PUSH1 0xFF AND DUP2 JUMP JUMPDEST PUSH1 0x60 PUSH2 0x2EEC DUP3 PUSH2 0x3730 JUMP JUMPDEST PUSH2 0x2F2B JUMPI PUSH1 0x40 MLOAD PUSH32 0x8C379A000000000000000000000000000000000000000000000000000000000 DUP2 MSTORE PUSH1 0x4 ADD PUSH2 0x2F22 SWAP1 PUSH2 0x615A JUMP JUMPDEST PUSH1 0x40 MLOAD DUP1 SWAP2 SUB SWAP1 REVERT JUMPDEST PUSH1 0x0 ISZERO ISZERO PUSH1 0xD4 PUSH1 0x0 SWAP1 SLOAD SWAP1 PUSH2 0x100 EXP SWAP1 DIV PUSH1 0xFF AND ISZERO ISZERO EQ ISZERO PUSH2 0x2FA5 JUMPI PUSH1 0x0 PUSH1 0xD1 DUP1 SLOAD PUSH2 0x2F56 SWAP1 PUSH2 0x6658 JUMP JUMPDEST SWAP1 POP GT PUSH2 0x2F72 JUMPI PUSH1 0x40 MLOAD DUP1 PUSH1 0x20 ADD PUSH1 0x40 MSTORE DUP1 PUSH1 0x0 DUP2 MSTORE POP PUSH2 0x2F9E JUMP JUMPDEST PUSH1 0xD1 PUSH2 0x2F7D DUP4 PUSH2 0x4093 JUMP JUMPDEST PUSH1 0x40 MLOAD PUSH1 0x20 ADD PUSH2 0x2F8E SWAP3 SWAP2 SWAP1 PUSH2 0x5D3A JUMP JUMPDEST PUSH1 0x40 MLOAD PUSH1 0x20 DUP2 DUP4 SUB SUB DUP2 MSTORE SWAP1 PUSH1 0x40 MSTORE JUMPDEST SWAP1 POP PUSH2 0x2FFE JUMP JUMPDEST PUSH1 0x0 PUSH2 0x2FAF PUSH2 0x41F4 JUMP JUMPDEST SWAP1 POP PUSH1 0x0 DUP2 MLOAD GT PUSH2 0x2FCF JUMPI PUSH1 0x40 MLOAD DUP1 PUSH1 0x20 ADD PUSH1 0x40 MSTORE DUP1 PUSH1 0x0 DUP2 MSTORE POP PUSH2 0x2FFA JUMP JUMPDEST DUP1 PUSH2 0x2FD9 DUP5 PUSH2 0x4093 JUMP JUMPDEST PUSH1 0x40 MLOAD PUSH1 0x20 ADD PUSH2 0x2FEA SWAP3 SWAP2 SWAP1 PUSH2 0x5D0B JUMP JUMPDEST PUSH1 0x40 MLOAD PUSH1 0x20 DUP2 DUP4 SUB SUB DUP2 MSTORE SWAP1 PUSH1 0x40 MSTORE JUMPDEST SWAP2 POP POP JUMPDEST SWAP2 SWAP1 POP JUMP JUMPDEST PUSH2 0x300B PUSH2 0x3983 JUMP JUMPDEST PUSH20 0xFFFFFFFFFFFFFFFFFFFFFFFFFFFFFFFFFFFFFFFF AND PUSH2 0x3029 PUSH2 0x274B JUMP JUMPDEST PUSH20 0xFFFFFFFFFFFFFFFFFFFFFFFFFFFFFFFFFFFFFFFF AND EQ PUSH2 0x307F JUMPI PUSH1 0x40 MLOAD PUSH32 0x8C379A000000000000000000000000000000000000000000000000000000000 DUP2 MSTORE PUSH1 0x4 ADD PUSH2 0x3076 SWAP1 PUSH2 0x613A JUMP JUMPDEST PUSH1 0x40 MLOAD DUP1 SWAP2 SUB SWAP1 REVERT JUMPDEST PUSH2 0x3087 PUSH2 0x2527 JUMP JUMPDEST ISZERO PUSH2 0x30C7 JUMPI PUSH1 0x40 MLOAD PUSH32 0x8C379A000000000000000000000000000000000000000000000000000000000 DUP2 MSTORE PUSH1 0x4 ADD PUSH2 0x30BE SWAP1 PUSH2 0x605A JUMP JUMPDEST PUSH1 0x40 MLOAD DUP1 SWAP2 SUB SWAP1 REVERT JUMPDEST PUSH1 0x2 PUSH1 0xCA PUSH1 0x14 PUSH2 0x100 EXP DUP2 SLOAD DUP2 PUSH1 0xFF MUL NOT AND SWAP1 DUP4 PUSH1 0x4 DUP2 GT ISZERO PUSH2 0x30ED JUMPI PUSH2 0x30EC PUSH2 0x67C1 JUMP JUMPDEST JUMPDEST MUL OR SWAP1 SSTORE POP JUMP JUMPDEST PUSH1 0xCA PUSH1 0x14 SWAP1 SLOAD SWAP1 PUSH2 0x100 EXP SWAP1 DIV PUSH1 0xFF AND DUP2 JUMP JUMPDEST PUSH1 0x0 PUSH2 0x3190 DUP4 DUP4 DUP1 DUP1 PUSH1 0x1F ADD PUSH1 0x20 DUP1 SWAP2 DIV MUL PUSH1 0x20 ADD PUSH1 0x40 MLOAD SWAP1 DUP2 ADD PUSH1 0x40 MSTORE DUP1 SWAP4 SWAP3 SWAP2 SWAP1 DUP2 DUP2 MSTORE PUSH1 0x20 ADD DUP4 DUP4 DUP1 DUP3 DUP5 CALLDATACOPY PUSH1 0x0 DUP2 DUP5 ADD MSTORE PUSH1 0x1F NOT PUSH1 0x1F DUP3 ADD AND SWAP1 POP DUP1 DUP4 ADD SWAP3 POP POP POP POP POP POP POP PUSH2 0x3182 ADDRESS CALLER PUSH1 0x40 MLOAD PUSH1 0x20 ADD PUSH2 0x3167 SWAP3 SWAP2 SWAP1 PUSH2 0x5CDF JUMP JUMPDEST PUSH1 0x40 MLOAD PUSH1 0x20 DUP2 DUP4 SUB SUB DUP2 MSTORE SWAP1 PUSH1 0x40 MSTORE DUP1 MLOAD SWAP1 PUSH1 0x20 ADD KECCAK256 PUSH2 0x398B JUMP JUMPDEST PUSH2 0x39BB SWAP1 SWAP2 SWAP1 PUSH4 0xFFFFFFFF AND JUMP JUMPDEST SWAP1 POP SWAP3 SWAP2 POP POP JUMP JUMPDEST PUSH1 0xCC SLOAD DUP2 JUMP JUMPDEST PUSH2 0x31AB CALLER DUP4 DUP4 PUSH1 0x1 PUSH2 0x3A92 JUMP JUMPDEST POP POP JUMP JUMPDEST PUSH1 0xD4 PUSH1 0x3 SWAP1 SLOAD SWAP1 PUSH2 0x100 EXP SWAP1 DIV PUSH1 0xFF AND DUP2 JUMP JUMPDEST PUSH1 0x0 PUSH2 0x31CC PUSH2 0x345E JUMP JUMPDEST PUSH1 0x7 ADD PUSH1 0x0 DUP5 PUSH20 0xFFFFFFFFFFFFFFFFFFFFFFFFFFFFFFFFFFFFFFFF AND PUSH20 0xFFFFFFFFFFFFFFFFFFFFFFFFFFFFFFFFFFFFFFFF AND DUP2 MSTORE PUSH1 0x20 ADD SWAP1 DUP2 MSTORE PUSH1 0x20 ADD PUSH1 0x0 KECCAK256 PUSH1 0x0 DUP4 PUSH20 0xFFFFFFFFFFFFFFFFFFFFFFFFFFFFFFFFFFFFFFFF AND PUSH20 0xFFFFFFFFFFFFFFFFFFFFFFFFFFFFFFFFFFFFFFFF AND DUP2 MSTORE PUSH1 0x20 ADD SWAP1 DUP2 MSTORE PUSH1 0x20 ADD PUSH1 0x0 KECCAK256 PUSH1 0x0 SWAP1 SLOAD SWAP1 PUSH2 0x100 EXP SWAP1 DIV PUSH1 0xFF AND SWAP1 POP SWAP3 SWAP2 POP POP JUMP JUMPDEST PUSH2 0x3267 PUSH2 0x3983 JUMP JUMPDEST PUSH20 0xFFFFFFFFFFFFFFFFFFFFFFFFFFFFFFFFFFFFFFFF AND PUSH2 0x3285 PUSH2 0x274B JUMP JUMPDEST PUSH20 0xFFFFFFFFFFFFFFFFFFFFFFFFFFFFFFFFFFFFFFFF AND EQ PUSH2 0x32DB JUMPI PUSH1 0x40 MLOAD PUSH32 0x8C379A000000000000000000000000000000000000000000000000000000000 DUP2 MSTORE PUSH1 0x4 ADD PUSH2 0x32D2 SWAP1 PUSH2 0x613A JUMP JUMPDEST PUSH1 0x40 MLOAD DUP1 SWAP2 SUB SWAP1 REVERT JUMPDEST PUSH1 0x1 ISZERO ISZERO PUSH1 0xD4 PUSH1 0x3 SWAP1 SLOAD SWAP1 PUSH2 0x100 EXP SWAP1 DIV PUSH1 0xFF AND ISZERO ISZERO EQ PUSH2 0x3331 JUMPI PUSH1 0x40 MLOAD PUSH32 0x8C379A000000000000000000000000000000000000000000000000000000000 DUP2 MSTORE PUSH1 0x4 ADD PUSH2 0x3328 SWAP1 PUSH2 0x617A JUMP JUMPDEST PUSH1 0x40 MLOAD DUP1 SWAP2 SUB SWAP1 REVERT JUMPDEST DUP1 PUSH1 0xD1 SWAP1 DUP1 MLOAD SWAP1 PUSH1 0x20 ADD SWAP1 PUSH2 0x3347 SWAP3 SWAP2 SWAP1 PUSH2 0x4F3F JUMP JUMPDEST POP PUSH1 0x0 PUSH1 0xD4 PUSH1 0x3 PUSH2 0x100 EXP DUP2 SLOAD DUP2 PUSH1 0xFF MUL NOT AND SWAP1 DUP4 ISZERO ISZERO MUL OR SWAP1 SSTORE POP POP JUMP JUMPDEST PUSH2 0x336E PUSH2 0x3983 JUMP JUMPDEST PUSH20 0xFFFFFFFFFFFFFFFFFFFFFFFFFFFFFFFFFFFFFFFF AND PUSH2 0x338C PUSH2 0x274B JUMP JUMPDEST PUSH20 0xFFFFFFFFFFFFFFFFFFFFFFFFFFFFFFFFFFFFFFFF AND EQ PUSH2 0x33E2 JUMPI PUSH1 0x40 MLOAD PUSH32 0x8C379A000000000000000000000000000000000000000000000000000000000 DUP2 MSTORE PUSH1 0x4 ADD PUSH2 0x33D9 SWAP1 PUSH2 0x613A JUMP JUMPDEST PUSH1 0x40 MLOAD DUP1 SWAP2 SUB SWAP1 REVERT JUMPDEST PUSH1 0x0 PUSH20 0xFFFFFFFFFFFFFFFFFFFFFFFFFFFFFFFFFFFFFFFF AND DUP2 PUSH20 0xFFFFFFFFFFFFFFFFFFFFFFFFFFFFFFFFFFFFFFFF AND EQ ISZERO PUSH2 0x3452 JUMPI PUSH1 0x40 MLOAD PUSH32 0x8C379A000000000000000000000000000000000000000000000000000000000 DUP2 MSTORE PUSH1 0x4 ADD PUSH2 0x3449 SWAP1 PUSH2 0x5FBA JUMP JUMPDEST PUSH1 0x40 MLOAD DUP1 SWAP2 SUB SWAP1 REVERT JUMPDEST PUSH2 0x345B DUP2 PUSH2 0x3DCA JUMP JUMPDEST POP JUMP JUMPDEST PUSH1 0x0 DUP1 PUSH32 0x2569078DFB4B0305704D3008E7403993AE9601B85F7AE5E742DE3DE8F8011C40 SWAP1 POP DUP1 SWAP2 POP POP SWAP1 JUMP JUMPDEST PUSH1 0x0 DUP1 PUSH32 0xEE151C8401928DC223602BB187AFF91B9A56C7CAE5476EF1B3287B085A16C85F SWAP1 POP DUP1 SWAP2 POP POP SWAP1 JUMP JUMPDEST PUSH1 0x0 DUP1 ADDRESS SWAP1 POP PUSH1 0x0 DUP2 EXTCODESIZE SWAP1 POP PUSH1 0x0 DUP2 EQ SWAP3 POP POP POP SWAP1 JUMP JUMPDEST PUSH1 0x0 DUP1 PUSH1 0x1 SWAP1 SLOAD SWAP1 PUSH2 0x100 EXP SWAP1 DIV PUSH1 0xFF AND ISZERO PUSH2 0x3546 JUMPI PUSH1 0x1 DUP3 PUSH1 0xFF AND EQ DUP1 ISZERO PUSH2 0x34FE JUMPI POP PUSH2 0x34FC ADDRESS PUSH2 0x4286 JUMP JUMPDEST ISZERO JUMPDEST PUSH2 0x353D JUMPI PUSH1 0x40 MLOAD PUSH32 0x8C379A000000000000000000000000000000000000000000000000000000000 DUP2 MSTORE PUSH1 0x4 ADD PUSH2 0x3534 SWAP1 PUSH2 0x60BA JUMP JUMPDEST PUSH1 0x40 MLOAD DUP1 SWAP2 SUB SWAP1 REVERT JUMPDEST PUSH1 0x0 SWAP1 POP PUSH2 0x35BA JUMP JUMPDEST DUP2 PUSH1 0xFF AND PUSH1 0x0 DUP1 SLOAD SWAP1 PUSH2 0x100 EXP SWAP1 DIV PUSH1 0xFF AND PUSH1 0xFF AND LT PUSH2 0x359B JUMPI PUSH1 0x40 MLOAD PUSH32 0x8C379A000000000000000000000000000000000000000000000000000000000 DUP2 MSTORE PUSH1 0x4 ADD PUSH2 0x3592 SWAP1 PUSH2 0x60BA JUMP JUMPDEST PUSH1 0x40 MLOAD DUP1 SWAP2 SUB SWAP1 REVERT JUMPDEST DUP2 PUSH1 0x0 DUP1 PUSH2 0x100 EXP DUP2 SLOAD DUP2 PUSH1 0xFF MUL NOT AND SWAP1 DUP4 PUSH1 0xFF AND MUL OR SWAP1 SSTORE POP PUSH1 0x1 SWAP1 POP JUMPDEST SWAP2 SWAP1 POP JUMP JUMPDEST PUSH2 0x35C7 PUSH2 0x348B JUMP JUMPDEST PUSH1 0x0 ADD PUSH1 0x1 SWAP1 SLOAD SWAP1 PUSH2 0x100 EXP SWAP1 DIV PUSH1 0xFF AND PUSH2 0x3617 JUMPI PUSH1 0x40 MLOAD PUSH32 0x8C379A000000000000000000000000000000000000000000000000000000000 DUP2 MSTORE PUSH1 0x4 ADD PUSH2 0x360E SWAP1 PUSH2 0x5F9A JUMP JUMPDEST PUSH1 0x40 MLOAD DUP1 SWAP2 SUB SWAP1 REVERT JUMPDEST PUSH2 0x3621 DUP3 DUP3 PUSH2 0x42A9 JUMP JUMPDEST POP POP JUMP JUMPDEST PUSH1 0x0 PUSH1 0x1 SWAP1 SLOAD SWAP1 PUSH2 0x100 EXP SWAP1 DIV PUSH1 0xFF AND PUSH2 0x3674 JUMPI PUSH1 0x40 MLOAD PUSH32 0x8C379A000000000000000000000000000000000000000000000000000000000 DUP2 MSTORE PUSH1 0x4 ADD PUSH2 0x366B SWAP1 PUSH2 0x61FA JUMP JUMPDEST PUSH1 0x40 MLOAD DUP1 SWAP2 SUB SWAP1 REVERT JUMPDEST PUSH2 0x367C PUSH2 0x435C JUMP JUMPDEST JUMP JUMPDEST PUSH1 0x0 PUSH1 0x1 SWAP1 SLOAD SWAP1 PUSH2 0x100 EXP SWAP1 DIV PUSH1 0xFF AND PUSH2 0x36CD JUMPI PUSH1 0x40 MLOAD PUSH32 0x8C379A000000000000000000000000000000000000000000000000000000000 DUP2 MSTORE PUSH1 0x4 ADD PUSH2 0x36C4 SWAP1 PUSH2 0x61FA JUMP JUMPDEST PUSH1 0x40 MLOAD DUP1 SWAP2 SUB SWAP1 REVERT JUMPDEST PUSH2 0x36D5 PUSH2 0x43BD JUMP JUMPDEST JUMP JUMPDEST PUSH1 0x0 PUSH1 0x1 SWAP1 SLOAD SWAP1 PUSH2 0x100 EXP SWAP1 DIV PUSH1 0xFF AND PUSH2 0x3726 JUMPI PUSH1 0x40 MLOAD PUSH32 0x8C379A000000000000000000000000000000000000000000000000000000000 DUP2 MSTORE PUSH1 0x4 ADD PUSH2 0x371D SWAP1 PUSH2 0x61FA JUMP JUMPDEST PUSH1 0x40 MLOAD DUP1 SWAP2 SUB SWAP1 REVERT JUMPDEST PUSH2 0x372E PUSH2 0x4429 JUMP JUMPDEST JUMP JUMPDEST PUSH1 0x0 DUP2 PUSH2 0x373B PUSH2 0x37C7 JUMP JUMPDEST GT ISZERO DUP1 ISZERO PUSH2 0x3753 JUMPI POP PUSH2 0x374C PUSH2 0x345E JUMP JUMPDEST PUSH1 0x0 ADD SLOAD DUP3 LT JUMPDEST DUP1 ISZERO PUSH2 0x379A JUMPI POP PUSH1 0x0 PUSH29 0x100000000000000000000000000000000000000000000000000000000 PUSH2 0x3782 PUSH2 0x345E JUMP JUMPDEST PUSH1 0x4 ADD PUSH1 0x0 DUP6 DUP2 MSTORE PUSH1 0x20 ADD SWAP1 DUP2 MSTORE PUSH1 0x20 ADD PUSH1 0x0 KECCAK256 SLOAD AND EQ JUMPDEST SWAP1 POP SWAP2 SWAP1 POP JUMP JUMPDEST PUSH1 0x0 CALLER SWAP1 POP SWAP1 JUMP JUMPDEST PUSH2 0x37C3 DUP3 DUP3 PUSH1 0x40 MLOAD DUP1 PUSH1 0x20 ADD PUSH1 0x40 MSTORE DUP1 PUSH1 0x0 DUP2 MSTORE POP PUSH2 0x4481 JUMP JUMPDEST POP POP JUMP JUMPDEST PUSH1 0x0 SWAP1 JUMP JUMPDEST PUSH1 0x0 DUP1 DUP3 SWAP1 POP DUP1 PUSH2 0x37DB PUSH2 0x37C7 JUMP JUMPDEST GT PUSH2 0x387E JUMPI PUSH2 0x37E8 PUSH2 0x345E JUMP JUMPDEST PUSH1 0x0 ADD SLOAD DUP2 LT ISZERO PUSH2 0x387D JUMPI PUSH1 0x0 PUSH2 0x37FD PUSH2 0x345E JUMP JUMPDEST PUSH1 0x4 ADD PUSH1 0x0 DUP4 DUP2 MSTORE PUSH1 0x20 ADD SWAP1 DUP2 MSTORE PUSH1 0x20 ADD PUSH1 0x0 KECCAK256 SLOAD SWAP1 POP PUSH1 0x0 PUSH29 0x100000000000000000000000000000000000000000000000000000000 DUP3 AND EQ ISZERO PUSH2 0x387B JUMPI JUMPDEST PUSH1 0x0 DUP2 EQ ISZERO PUSH2 0x3871 JUMPI PUSH2 0x384E PUSH2 0x345E JUMP JUMPDEST PUSH1 0x4 ADD PUSH1 0x0 DUP4 PUSH1 0x1 SWAP1 SUB SWAP4 POP DUP4 DUP2 MSTORE PUSH1 0x20 ADD SWAP1 DUP2 MSTORE PUSH1 0x20 ADD PUSH1 0x0 KECCAK256 SLOAD SWAP1 POP PUSH2 0x383D JUMP JUMPDEST DUP1 SWAP3 POP POP POP PUSH2 0x38B0 JUMP JUMPDEST POP JUMPDEST JUMPDEST PUSH1 0x40 MLOAD PUSH32 0xDF2D9B4200000000000000000000000000000000000000000000000000000000 DUP2 MSTORE PUSH1 0x4 ADD PUSH1 0x40 MLOAD DUP1 SWAP2 SUB SWAP1 REVERT JUMPDEST SWAP2 SWAP1 POP JUMP JUMPDEST PUSH1 0x0 DUP1 PUSH1 0x0 PUSH2 0x38C2 PUSH2 0x345E JUMP JUMPDEST PUSH1 0x6 ADD SWAP1 POP DUP4 PUSH1 0x0 MSTORE DUP1 PUSH1 0x20 MSTORE PUSH1 0x40 PUSH1 0x0 KECCAK256 SWAP3 POP DUP3 SLOAD SWAP2 POP POP SWAP2 POP SWAP2 JUMP JUMPDEST PUSH1 0x0 PUSH20 0xFFFFFFFFFFFFFFFFFFFFFFFFFFFFFFFFFFFFFFFF DUP4 AND SWAP3 POP PUSH20 0xFFFFFFFFFFFFFFFFFFFFFFFFFFFFFFFFFFFFFFFF DUP3 AND SWAP2 POP DUP4 DUP3 EQ DUP4 DUP4 EQ OR SWAP1 POP SWAP4 SWAP3 POP POP POP JUMP JUMPDEST POP POP POP POP JUMP JUMPDEST PUSH1 0x0 DUP1 PUSH1 0xE8 DUP4 SWAP1 SHR SWAP1 POP PUSH1 0xE8 PUSH2 0x3941 DUP7 DUP7 DUP5 PUSH2 0x4531 JUMP JUMPDEST PUSH3 0xFFFFFF AND SWAP1 SHL SWAP2 POP POP SWAP4 SWAP3 POP POP POP JUMP JUMPDEST PUSH1 0x0 PUSH20 0xFFFFFFFFFFFFFFFFFFFFFFFFFFFFFFFFFFFFFFFF DUP4 AND SWAP3 POP DUP2 TIMESTAMP PUSH1 0xA0 SHL OR DUP4 OR SWAP1 POP SWAP3 SWAP2 POP POP JUMP JUMPDEST POP POP POP POP JUMP JUMPDEST PUSH1 0x0 CALLER SWAP1 POP SWAP1 JUMP JUMPDEST PUSH1 0x0 DUP2 PUSH1 0x40 MLOAD PUSH1 0x20 ADD PUSH2 0x399E SWAP2 SWAP1 PUSH2 0x5D69 JUMP JUMPDEST PUSH1 0x40 MLOAD PUSH1 0x20 DUP2 DUP4 SUB SUB DUP2 MSTORE SWAP1 PUSH1 0x40 MSTORE DUP1 MLOAD SWAP1 PUSH1 0x20 ADD KECCAK256 SWAP1 POP SWAP2 SWAP1 POP JUMP JUMPDEST PUSH1 0x0 DUP1 PUSH1 0x0 PUSH2 0x39CA DUP6 DUP6 PUSH2 0x453A JUMP JUMPDEST SWAP2 POP SWAP2 POP PUSH2 0x39D7 DUP2 PUSH2 0x45BD JUMP JUMPDEST DUP2 SWAP3 POP POP POP SWAP3 SWAP2 POP POP JUMP JUMPDEST PUSH2 0x39ED DUP2 PUSH1 0x0 PUSH2 0x4792 JUMP JUMPDEST POP JUMP JUMPDEST PUSH2 0x39F8 PUSH2 0x2527 JUMP JUMPDEST PUSH2 0x3A37 JUMPI PUSH1 0x40 MLOAD PUSH32 0x8C379A000000000000000000000000000000000000000000000000000000000 DUP2 MSTORE PUSH1 0x4 ADD PUSH2 0x3A2E SWAP1 PUSH2 0x5F3A JUMP JUMPDEST PUSH1 0x40 MLOAD DUP1 SWAP2 SUB SWAP1 REVERT JUMPDEST PUSH1 0x0 PUSH1 0x97 PUSH1 0x0 PUSH2 0x100 EXP DUP2 SLOAD DUP2 PUSH1 0xFF MUL NOT AND SWAP1 DUP4 ISZERO ISZERO MUL OR SWAP1 SSTORE POP PUSH32 0x5DB9EE0A495BF2E6FF9C91A7834C1BA4FDD244A5E8AA4E537BD38AEAE4B073AA PUSH2 0x3A7B PUSH2 0x3983 JUMP JUMPDEST PUSH1 0x40 MLOAD PUSH2 0x3A88 SWAP2 SWAP1 PUSH2 0x5D8F JUMP JUMPDEST PUSH1 0x40 MLOAD DUP1 SWAP2 SUB SWAP1 LOG1 JUMP JUMPDEST PUSH1 0x0 DUP1 PUSH1 0x0 DUP1 PUSH1 0x0 SWAP1 POP JUMPDEST DUP7 DUP7 SWAP1 POP DUP2 LT ISZERO PUSH2 0x3CC5 JUMPI DUP7 DUP7 DUP3 DUP2 DUP2 LT PUSH2 0x3ABB JUMPI PUSH2 0x3ABA PUSH2 0x681F JUMP JUMPDEST JUMPDEST SWAP1 POP PUSH1 0x20 MUL ADD CALLDATALOAD SWAP4 POP PUSH1 0x0 PUSH1 0xD6 PUSH1 0x0 DUP7 DUP2 MSTORE PUSH1 0x20 ADD SWAP1 DUP2 MSTORE PUSH1 0x20 ADD PUSH1 0x0 KECCAK256 PUSH1 0x40 MLOAD DUP1 PUSH1 0x60 ADD PUSH1 0x40 MSTORE SWAP1 DUP2 PUSH1 0x0 DUP3 ADD SLOAD DUP2 MSTORE PUSH1 0x20 ADD PUSH1 0x1 DUP3 ADD SLOAD DUP2 MSTORE PUSH1 0x20 ADD PUSH1 0x2 DUP3 ADD PUSH1 0x0 SWAP1 SLOAD SWAP1 PUSH2 0x100 EXP SWAP1 DIV PUSH20 0xFFFFFFFFFFFFFFFFFFFFFFFFFFFFFFFFFFFFFFFF AND PUSH20 0xFFFFFFFFFFFFFFFFFFFFFFFFFFFFFFFFFFFFFFFF AND PUSH20 0xFFFFFFFFFFFFFFFFFFFFFFFFFFFFFFFFFFFFFFFF AND DUP2 MSTORE POP POP SWAP1 POP DUP9 PUSH20 0xFFFFFFFFFFFFFFFFFFFFFFFFFFFFFFFFFFFFFFFF AND DUP2 PUSH1 0x40 ADD MLOAD PUSH20 0xFFFFFFFFFFFFFFFFFFFFFFFFFFFFFFFFFFFFFFFF AND EQ PUSH2 0x3BC2 JUMPI PUSH1 0x40 MLOAD PUSH32 0x8C379A000000000000000000000000000000000000000000000000000000000 DUP2 MSTORE PUSH1 0x4 ADD PUSH2 0x3BB9 SWAP1 PUSH2 0x607A JUMP JUMPDEST PUSH1 0x40 MLOAD DUP1 SWAP2 SUB SWAP1 REVERT JUMPDEST PUSH1 0x0 DUP2 PUSH1 0x20 ADD MLOAD SWAP1 POP PUSH2 0xE10 PUSH1 0xD3 SLOAD DUP3 TIMESTAMP PUSH2 0x3BDD SWAP2 SWAP1 PUSH2 0x650E JUMP JUMPDEST PUSH2 0x3BE7 SWAP2 SWAP1 PUSH2 0x64B4 JUMP JUMPDEST PUSH2 0x3BF1 SWAP2 SWAP1 PUSH2 0x6483 JUMP JUMPDEST SWAP5 POP DUP5 DUP5 PUSH2 0x3BFF SWAP2 SWAP1 PUSH2 0x642D JUMP JUMPDEST SWAP4 POP PUSH1 0x40 MLOAD DUP1 PUSH1 0x60 ADD PUSH1 0x40 MSTORE DUP1 DUP8 PUSH3 0xFFFFFF AND DUP2 MSTORE PUSH1 0x20 ADD TIMESTAMP PUSH6 0xFFFFFFFFFFFF AND DUP2 MSTORE PUSH1 0x20 ADD DUP12 PUSH20 0xFFFFFFFFFFFFFFFFFFFFFFFFFFFFFFFFFFFFFFFF AND DUP2 MSTORE POP PUSH1 0xD6 PUSH1 0x0 DUP9 DUP2 MSTORE PUSH1 0x20 ADD SWAP1 DUP2 MSTORE PUSH1 0x20 ADD PUSH1 0x0 KECCAK256 PUSH1 0x0 DUP3 ADD MLOAD DUP2 PUSH1 0x0 ADD SSTORE PUSH1 0x20 DUP3 ADD MLOAD DUP2 PUSH1 0x1 ADD SSTORE PUSH1 0x40 DUP3 ADD MLOAD DUP2 PUSH1 0x2 ADD PUSH1 0x0 PUSH2 0x100 EXP DUP2 SLOAD DUP2 PUSH20 0xFFFFFFFFFFFFFFFFFFFFFFFFFFFFFFFFFFFFFFFF MUL NOT AND SWAP1 DUP4 PUSH20 0xFFFFFFFFFFFFFFFFFFFFFFFFFFFFFFFFFFFFFFFF AND MUL OR SWAP1 SSTORE POP SWAP1 POP POP POP POP DUP1 DUP1 PUSH2 0x3CBD SWAP1 PUSH2 0x66BB JUMP JUMPDEST SWAP2 POP POP PUSH2 0x3A9D JUMP JUMPDEST POP PUSH1 0x0 DUP2 GT ISZERO PUSH2 0x3D61 JUMPI PUSH1 0xCA PUSH1 0x0 SWAP1 SLOAD SWAP1 PUSH2 0x100 EXP SWAP1 DIV PUSH20 0xFFFFFFFFFFFFFFFFFFFFFFFFFFFFFFFFFFFFFFFF AND PUSH20 0xFFFFFFFFFFFFFFFFFFFFFFFFFFFFFFFFFFFFFFFF AND PUSH4 0x731133E9 DUP9 DUP6 DUP5 PUSH1 0x40 MLOAD DUP5 PUSH4 0xFFFFFFFF AND PUSH1 0xE0 SHL DUP2 MSTORE PUSH1 0x4 ADD PUSH2 0x3D2E SWAP4 SWAP3 SWAP2 SWAP1 PUSH2 0x5DF6 JUMP JUMPDEST PUSH1 0x0 PUSH1 0x40 MLOAD DUP1 DUP4 SUB DUP2 PUSH1 0x0 DUP8 DUP1 EXTCODESIZE ISZERO DUP1 ISZERO PUSH2 0x3D48 JUMPI PUSH1 0x0 DUP1 REVERT JUMPDEST POP GAS CALL ISZERO DUP1 ISZERO PUSH2 0x3D5C JUMPI RETURNDATASIZE PUSH1 0x0 DUP1 RETURNDATACOPY RETURNDATASIZE PUSH1 0x0 REVERT JUMPDEST POP POP POP POP JUMPDEST DUP4 ISZERO PUSH2 0x3D73 JUMPI PUSH2 0x3D72 DUP8 DUP8 DUP8 PUSH2 0x4A1C JUMP JUMPDEST JUMPDEST DUP7 PUSH20 0xFFFFFFFFFFFFFFFFFFFFFFFFFFFFFFFFFFFFFFFF AND PUSH32 0xD8138F8A3F377C5259CA548E70E4C2DE94F129F5A11036A15B69513CBA2B426A DUP3 PUSH1 0x40 MLOAD PUSH2 0x3DB9 SWAP2 SWAP1 PUSH2 0x629A JUMP JUMPDEST PUSH1 0x40 MLOAD DUP1 SWAP2 SUB SWAP1 LOG2 POP POP POP POP POP POP POP JUMP JUMPDEST PUSH1 0x0 PUSH1 0x65 PUSH1 0x0 SWAP1 SLOAD SWAP1 PUSH2 0x100 EXP SWAP1 DIV PUSH20 0xFFFFFFFFFFFFFFFFFFFFFFFFFFFFFFFFFFFFFFFF AND SWAP1 POP DUP2 PUSH1 0x65 PUSH1 0x0 PUSH2 0x100 EXP DUP2 SLOAD DUP2 PUSH20 0xFFFFFFFFFFFFFFFFFFFFFFFFFFFFFFFFFFFFFFFF MUL NOT AND SWAP1 DUP4 PUSH20 0xFFFFFFFFFFFFFFFFFFFFFFFFFFFFFFFFFFFFFFFF AND MUL OR SWAP1 SSTORE POP DUP2 PUSH20 0xFFFFFFFFFFFFFFFFFFFFFFFFFFFFFFFFFFFFFFFF AND DUP2 PUSH20 0xFFFFFFFFFFFFFFFFFFFFFFFFFFFFFFFFFFFFFFFF AND PUSH32 0x8BE0079C531659141344CD1FD0A4F28419497F9722A3DAAFE3B4186F6B6457E0 PUSH1 0x40 MLOAD PUSH1 0x40 MLOAD DUP1 SWAP2 SUB SWAP1 LOG3 POP POP JUMP JUMPDEST PUSH2 0x3E98 PUSH2 0x2527 JUMP JUMPDEST ISZERO PUSH2 0x3ED8 JUMPI PUSH1 0x40 MLOAD PUSH32 0x8C379A000000000000000000000000000000000000000000000000000000000 DUP2 MSTORE PUSH1 0x4 ADD PUSH2 0x3ECF SWAP1 PUSH2 0x605A JUMP JUMPDEST PUSH1 0x40 MLOAD DUP1 SWAP2 SUB SWAP1 REVERT JUMPDEST PUSH1 0x1 PUSH1 0x97 PUSH1 0x0 PUSH2 0x100 EXP DUP2 SLOAD DUP2 PUSH1 0xFF MUL NOT AND SWAP1 DUP4 ISZERO ISZERO MUL OR SWAP1 SSTORE POP PUSH32 0x62E78CEA01BEE320CD4E420270B5EA74000D11B0C9F74754EBDBFC544B05A258 PUSH2 0x3F1C PUSH2 0x3983 JUMP JUMPDEST PUSH1 0x40 MLOAD PUSH2 0x3F29 SWAP2 SWAP1 PUSH2 0x5D8F JUMP JUMPDEST PUSH1 0x40 MLOAD DUP1 SWAP2 SUB SWAP1 LOG1 JUMP JUMPDEST PUSH1 0x0 DUP4 PUSH20 0xFFFFFFFFFFFFFFFFFFFFFFFFFFFFFFFFFFFFFFFF AND PUSH4 0x150B7A02 PUSH2 0x3F59 PUSH2 0x37A1 JUMP JUMPDEST DUP8 DUP7 DUP7 PUSH1 0x40 MLOAD DUP6 PUSH4 0xFFFFFFFF AND PUSH1 0xE0 SHL DUP2 MSTORE PUSH1 0x4 ADD PUSH2 0x3F7B SWAP5 SWAP4 SWAP3 SWAP2 SWAP1 PUSH2 0x5DAA JUMP JUMPDEST PUSH1 0x20 PUSH1 0x40 MLOAD DUP1 DUP4 SUB DUP2 PUSH1 0x0 DUP8 DUP1 EXTCODESIZE ISZERO DUP1 ISZERO PUSH2 0x3F95 JUMPI PUSH1 0x0 DUP1 REVERT JUMPDEST POP GAS CALL SWAP3 POP POP POP DUP1 ISZERO PUSH2 0x3FC6 JUMPI POP PUSH1 0x40 MLOAD RETURNDATASIZE PUSH1 0x1F NOT PUSH1 0x1F DUP3 ADD AND DUP3 ADD DUP1 PUSH1 0x40 MSTORE POP DUP2 ADD SWAP1 PUSH2 0x3FC3 SWAP2 SWAP1 PUSH2 0x5489 JUMP JUMPDEST PUSH1 0x1 JUMPDEST PUSH2 0x4040 JUMPI RETURNDATASIZE DUP1 PUSH1 0x0 DUP2 EQ PUSH2 0x3FF6 JUMPI PUSH1 0x40 MLOAD SWAP2 POP PUSH1 0x1F NOT PUSH1 0x3F RETURNDATASIZE ADD AND DUP3 ADD PUSH1 0x40 MSTORE RETURNDATASIZE DUP3 MSTORE RETURNDATASIZE PUSH1 0x0 PUSH1 0x20 DUP5 ADD RETURNDATACOPY PUSH2 0x3FFB JUMP JUMPDEST PUSH1 0x60 SWAP2 POP JUMPDEST POP PUSH1 0x0 DUP2 MLOAD EQ ISZERO PUSH2 0x4038 JUMPI PUSH1 0x40 MLOAD PUSH32 0xD1A57ED600000000000000000000000000000000000000000000000000000000 DUP2 MSTORE PUSH1 0x4 ADD PUSH1 0x40 MLOAD DUP1 SWAP2 SUB SWAP1 REVERT JUMPDEST DUP1 MLOAD DUP2 PUSH1 0x20 ADD REVERT JUMPDEST PUSH4 0x150B7A02 PUSH1 0xE0 SHL PUSH28 0xFFFFFFFFFFFFFFFFFFFFFFFFFFFFFFFFFFFFFFFFFFFFFFFFFFFFFFFF NOT AND DUP2 PUSH28 0xFFFFFFFFFFFFFFFFFFFFFFFFFFFFFFFFFFFFFFFFFFFFFFFFFFFFFFFF NOT AND EQ SWAP2 POP POP SWAP5 SWAP4 POP POP POP POP JUMP JUMPDEST PUSH1 0x60 PUSH1 0x0 DUP3 EQ ISZERO PUSH2 0x40DB JUMPI PUSH1 0x40 MLOAD DUP1 PUSH1 0x40 ADD PUSH1 0x40 MSTORE DUP1 PUSH1 0x1 DUP2 MSTORE PUSH1 0x20 ADD PUSH32 0x3000000000000000000000000000000000000000000000000000000000000000 DUP2 MSTORE POP SWAP1 POP PUSH2 0x41EF JUMP JUMPDEST PUSH1 0x0 DUP3 SWAP1 POP PUSH1 0x0 JUMPDEST PUSH1 0x0 DUP3 EQ PUSH2 0x410D JUMPI DUP1 DUP1 PUSH2 0x40F6 SWAP1 PUSH2 0x66BB JUMP JUMPDEST SWAP2 POP POP PUSH1 0xA DUP3 PUSH2 0x4106 SWAP2 SWAP1 PUSH2 0x6483 JUMP JUMPDEST SWAP2 POP PUSH2 0x40E3 JUMP JUMPDEST PUSH1 0x0 DUP2 PUSH8 0xFFFFFFFFFFFFFFFF DUP2 GT ISZERO PUSH2 0x4129 JUMPI PUSH2 0x4128 PUSH2 0x684E JUMP JUMPDEST JUMPDEST PUSH1 0x40 MLOAD SWAP1 DUP1 DUP3 MSTORE DUP1 PUSH1 0x1F ADD PUSH1 0x1F NOT AND PUSH1 0x20 ADD DUP3 ADD PUSH1 0x40 MSTORE DUP1 ISZERO PUSH2 0x415B JUMPI DUP2 PUSH1 0x20 ADD PUSH1 0x1 DUP3 MUL DUP1 CALLDATASIZE DUP4 CALLDATACOPY DUP1 DUP3 ADD SWAP2 POP POP SWAP1 POP JUMPDEST POP SWAP1 POP JUMPDEST PUSH1 0x0 DUP6 EQ PUSH2 0x41E8 JUMPI PUSH1 0x1 DUP3 PUSH2 0x4174 SWAP2 SWAP1 PUSH2 0x650E JUMP JUMPDEST SWAP2 POP PUSH1 0xA DUP6 PUSH2 0x4183 SWAP2 SWAP1 PUSH2 0x6732 JUMP JUMPDEST PUSH1 0x30 PUSH2 0x418F SWAP2 SWAP1 PUSH2 0x642D JUMP JUMPDEST PUSH1 0xF8 SHL DUP2 DUP4 DUP2 MLOAD DUP2 LT PUSH2 0x41A5 JUMPI PUSH2 0x41A4 PUSH2 0x681F JUMP JUMPDEST JUMPDEST PUSH1 0x20 ADD ADD SWAP1 PUSH31 0xFFFFFFFFFFFFFFFFFFFFFFFFFFFFFFFFFFFFFFFFFFFFFFFFFFFFFFFFFFFFFF NOT AND SWAP1 DUP2 PUSH1 0x0 BYTE SWAP1 MSTORE8 POP PUSH1 0xA DUP6 PUSH2 0x41E1 SWAP2 SWAP1 PUSH2 0x6483 JUMP JUMPDEST SWAP5 POP PUSH2 0x415F JUMP JUMPDEST DUP1 SWAP4 POP POP POP POP JUMPDEST SWAP2 SWAP1 POP JUMP JUMPDEST PUSH1 0x60 PUSH1 0xD0 DUP1 SLOAD PUSH2 0x4203 SWAP1 PUSH2 0x6658 JUMP JUMPDEST DUP1 PUSH1 0x1F ADD PUSH1 0x20 DUP1 SWAP2 DIV MUL PUSH1 0x20 ADD PUSH1 0x40 MLOAD SWAP1 DUP2 ADD PUSH1 0x40 MSTORE DUP1 SWAP3 SWAP2 SWAP1 DUP2 DUP2 MSTORE PUSH1 0x20 ADD DUP3 DUP1 SLOAD PUSH2 0x422F SWAP1 PUSH2 0x6658 JUMP JUMPDEST DUP1 ISZERO PUSH2 0x427C JUMPI DUP1 PUSH1 0x1F LT PUSH2 0x4251 JUMPI PUSH2 0x100 DUP1 DUP4 SLOAD DIV MUL DUP4 MSTORE SWAP2 PUSH1 0x20 ADD SWAP2 PUSH2 0x427C JUMP JUMPDEST DUP3 ADD SWAP2 SWAP1 PUSH1 0x0 MSTORE PUSH1 0x20 PUSH1 0x0 KECCAK256 SWAP1 JUMPDEST DUP2 SLOAD DUP2 MSTORE SWAP1 PUSH1 0x1 ADD SWAP1 PUSH1 0x20 ADD DUP1 DUP4 GT PUSH2 0x425F JUMPI DUP3 SWAP1 SUB PUSH1 0x1F AND DUP3 ADD SWAP2 JUMPDEST POP POP POP POP POP SWAP1 POP SWAP1 JUMP JUMPDEST PUSH1 0x0 DUP1 DUP3 PUSH20 0xFFFFFFFFFFFFFFFFFFFFFFFFFFFFFFFFFFFFFFFF AND EXTCODESIZE GT SWAP1 POP SWAP2 SWAP1 POP JUMP JUMPDEST PUSH2 0x42B1 PUSH2 0x348B JUMP JUMPDEST PUSH1 0x0 ADD PUSH1 0x1 SWAP1 SLOAD SWAP1 PUSH2 0x100 EXP SWAP1 DIV PUSH1 0xFF AND PUSH2 0x4301 JUMPI PUSH1 0x40 MLOAD PUSH32 0x8C379A000000000000000000000000000000000000000000000000000000000 DUP2 MSTORE PUSH1 0x4 ADD PUSH2 0x42F8 SWAP1 PUSH2 0x5F9A JUMP JUMPDEST PUSH1 0x40 MLOAD DUP1 SWAP2 SUB SWAP1 REVERT JUMPDEST DUP2 PUSH2 0x430A PUSH2 0x345E JUMP JUMPDEST PUSH1 0x2 ADD SWAP1 DUP1 MLOAD SWAP1 PUSH1 0x20 ADD SWAP1 PUSH2 0x4320 SWAP3 SWAP2 SWAP1 PUSH2 0x4F3F JUMP JUMPDEST POP DUP1 PUSH2 0x432A PUSH2 0x345E JUMP JUMPDEST PUSH1 0x3 ADD SWAP1 DUP1 MLOAD SWAP1 PUSH1 0x20 ADD SWAP1 PUSH2 0x4340 SWAP3 SWAP2 SWAP1 PUSH2 0x4F3F JUMP JUMPDEST POP PUSH2 0x4349 PUSH2 0x37C7 JUMP JUMPDEST PUSH2 0x4351 PUSH2 0x345E JUMP JUMPDEST PUSH1 0x0 ADD DUP2 SWAP1 SSTORE POP POP POP JUMP JUMPDEST PUSH1 0x0 PUSH1 0x1 SWAP1 SLOAD SWAP1 PUSH2 0x100 EXP SWAP1 DIV PUSH1 0xFF AND PUSH2 0x43AB JUMPI PUSH1 0x40 MLOAD PUSH32 0x8C379A000000000000000000000000000000000000000000000000000000000 DUP2 MSTORE PUSH1 0x4 ADD PUSH2 0x43A2 SWAP1 PUSH2 0x61FA JUMP JUMPDEST PUSH1 0x40 MLOAD DUP1 SWAP2 SUB SWAP1 REVERT JUMPDEST PUSH2 0x43BB PUSH2 0x43B6 PUSH2 0x3983 JUMP JUMPDEST PUSH2 0x3DCA JUMP JUMPDEST JUMP JUMPDEST PUSH1 0x0 PUSH1 0x1 SWAP1 SLOAD SWAP1 PUSH2 0x100 EXP SWAP1 DIV PUSH1 0xFF AND PUSH2 0x440C JUMPI PUSH1 0x40 MLOAD PUSH32 0x8C379A000000000000000000000000000000000000000000000000000000000 DUP2 MSTORE PUSH1 0x4 ADD PUSH2 0x4403 SWAP1 PUSH2 0x61FA JUMP JUMPDEST PUSH1 0x40 MLOAD DUP1 SWAP2 SUB SWAP1 REVERT JUMPDEST PUSH1 0x0 PUSH1 0x97 PUSH1 0x0 PUSH2 0x100 EXP DUP2 SLOAD DUP2 PUSH1 0xFF MUL NOT AND SWAP1 DUP4 ISZERO ISZERO MUL OR SWAP1 SSTORE POP JUMP JUMPDEST PUSH1 0x0 PUSH1 0x1 SWAP1 SLOAD SWAP1 PUSH2 0x100 EXP SWAP1 DIV PUSH1 0xFF AND PUSH2 0x4478 JUMPI PUSH1 0x40 MLOAD PUSH32 0x8C379A000000000000000000000000000000000000000000000000000000000 DUP2 MSTORE PUSH1 0x4 ADD PUSH2 0x446F SWAP1 PUSH2 0x61FA JUMP JUMPDEST PUSH1 0x40 MLOAD DUP1 SWAP2 SUB SWAP1 REVERT JUMPDEST PUSH1 0x1 DUP1 DUP2 SWAP1 SSTORE POP JUMP JUMPDEST PUSH2 0x448B DUP4 DUP4 PUSH2 0x4BCA JUMP JUMPDEST PUSH1 0x0 DUP4 PUSH20 0xFFFFFFFFFFFFFFFFFFFFFFFFFFFFFFFFFFFFFFFF AND EXTCODESIZE EQ PUSH2 0x452C JUMPI PUSH1 0x0 PUSH2 0x44B4 PUSH2 0x345E JUMP JUMPDEST PUSH1 0x0 ADD SLOAD SWAP1 POP PUSH1 0x0 DUP4 DUP3 SUB SWAP1 POP JUMPDEST PUSH2 0x44D5 PUSH1 0x0 DUP7 DUP4 DUP1 PUSH1 0x1 ADD SWAP5 POP DUP7 PUSH2 0x3F33 JUMP JUMPDEST PUSH2 0x450B JUMPI PUSH1 0x40 MLOAD PUSH32 0xD1A57ED600000000000000000000000000000000000000000000000000000000 DUP2 MSTORE PUSH1 0x4 ADD PUSH1 0x40 MLOAD DUP1 SWAP2 SUB SWAP1 REVERT JUMPDEST DUP2 DUP2 LT PUSH2 0x44C2 JUMPI DUP2 PUSH2 0x451B PUSH2 0x345E JUMP JUMPDEST PUSH1 0x0 ADD SLOAD EQ PUSH2 0x4529 JUMPI PUSH1 0x0 DUP1 REVERT JUMPDEST POP POP JUMPDEST POP POP POP JUMP JUMPDEST PUSH1 0x0 SWAP4 SWAP3 POP POP POP JUMP JUMPDEST PUSH1 0x0 DUP1 PUSH1 0x41 DUP4 MLOAD EQ ISZERO PUSH2 0x457C JUMPI PUSH1 0x0 DUP1 PUSH1 0x0 PUSH1 0x20 DUP7 ADD MLOAD SWAP3 POP PUSH1 0x40 DUP7 ADD MLOAD SWAP2 POP PUSH1 0x60 DUP7 ADD MLOAD PUSH1 0x0 BYTE SWAP1 POP PUSH2 0x4570 DUP8 DUP3 DUP6 DUP6 PUSH2 0x4DC3 JUMP JUMPDEST SWAP5 POP SWAP5 POP POP POP POP PUSH2 0x45B6 JUMP JUMPDEST PUSH1 0x40 DUP4 MLOAD EQ ISZERO PUSH2 0x45AD JUMPI PUSH1 0x0 DUP1 PUSH1 0x20 DUP6 ADD MLOAD SWAP2 POP PUSH1 0x40 DUP6 ADD MLOAD SWAP1 POP PUSH2 0x45A2 DUP7 DUP4 DUP4 PUSH2 0x4ED0 JUMP JUMPDEST SWAP4 POP SWAP4 POP POP POP PUSH2 0x45B6 JUMP JUMPDEST PUSH1 0x0 PUSH1 0x2 SWAP2 POP SWAP2 POP JUMPDEST SWAP3 POP SWAP3 SWAP1 POP JUMP JUMPDEST PUSH1 0x0 PUSH1 0x4 DUP2 GT ISZERO PUSH2 0x45D1 JUMPI PUSH2 0x45D0 PUSH2 0x67C1 JUMP JUMPDEST JUMPDEST DUP2 PUSH1 0x4 DUP2 GT ISZERO PUSH2 0x45E4 JUMPI PUSH2 0x45E3 PUSH2 0x67C1 JUMP JUMPDEST JUMPDEST EQ ISZERO PUSH2 0x45EF JUMPI PUSH2 0x478F JUMP JUMPDEST PUSH1 0x1 PUSH1 0x4 DUP2 GT ISZERO PUSH2 0x4603 JUMPI PUSH2 0x4602 PUSH2 0x67C1 JUMP JUMPDEST JUMPDEST DUP2 PUSH1 0x4 DUP2 GT ISZERO PUSH2 0x4616 JUMPI PUSH2 0x4615 PUSH2 0x67C1 JUMP JUMPDEST JUMPDEST EQ ISZERO PUSH2 0x4657 JUMPI PUSH1 0x40 MLOAD PUSH32 0x8C379A000000000000000000000000000000000000000000000000000000000 DUP2 MSTORE PUSH1 0x4 ADD PUSH2 0x464E SWAP1 PUSH2 0x5F1A JUMP JUMPDEST PUSH1 0x40 MLOAD DUP1 SWAP2 SUB SWAP1 REVERT JUMPDEST PUSH1 0x2 PUSH1 0x4 DUP2 GT ISZERO PUSH2 0x466B JUMPI PUSH2 0x466A PUSH2 0x67C1 JUMP JUMPDEST JUMPDEST DUP2 PUSH1 0x4 DUP2 GT ISZERO PUSH2 0x467E JUMPI PUSH2 0x467D PUSH2 0x67C1 JUMP JUMPDEST JUMPDEST EQ ISZERO PUSH2 0x46BF JUMPI PUSH1 0x40 MLOAD PUSH32 0x8C379A000000000000000000000000000000000000000000000000000000000 DUP2 MSTORE PUSH1 0x4 ADD PUSH2 0x46B6 SWAP1 PUSH2 0x5F7A JUMP JUMPDEST PUSH1 0x40 MLOAD DUP1 SWAP2 SUB SWAP1 REVERT JUMPDEST PUSH1 0x3 PUSH1 0x4 DUP2 GT ISZERO PUSH2 0x46D3 JUMPI PUSH2 0x46D2 PUSH2 0x67C1 JUMP JUMPDEST JUMPDEST DUP2 PUSH1 0x4 DUP2 GT ISZERO PUSH2 0x46E6 JUMPI PUSH2 0x46E5 PUSH2 0x67C1 JUMP JUMPDEST JUMPDEST EQ ISZERO PUSH2 0x4727 JUMPI PUSH1 0x40 MLOAD PUSH32 0x8C379A000000000000000000000000000000000000000000000000000000000 DUP2 MSTORE PUSH1 0x4 ADD PUSH2 0x471E SWAP1 PUSH2 0x603A JUMP JUMPDEST PUSH1 0x40 MLOAD DUP1 SWAP2 SUB SWAP1 REVERT JUMPDEST PUSH1 0x4 DUP1 DUP2 GT ISZERO PUSH2 0x473A JUMPI PUSH2 0x4739 PUSH2 0x67C1 JUMP JUMPDEST JUMPDEST DUP2 PUSH1 0x4 DUP2 GT ISZERO PUSH2 0x474D JUMPI PUSH2 0x474C PUSH2 0x67C1 JUMP JUMPDEST JUMPDEST EQ ISZERO PUSH2 0x478E JUMPI PUSH1 0x40 MLOAD PUSH32 0x8C379A000000000000000000000000000000000000000000000000000000000 DUP2 MSTORE PUSH1 0x4 ADD PUSH2 0x4785 SWAP1 PUSH2 0x60FA JUMP JUMPDEST PUSH1 0x40 MLOAD DUP1 SWAP2 SUB SWAP1 REVERT JUMPDEST JUMPDEST POP JUMP JUMPDEST PUSH1 0x0 PUSH2 0x479D DUP4 PUSH2 0x37CC JUMP JUMPDEST SWAP1 POP PUSH1 0x0 DUP2 SWAP1 POP PUSH1 0x0 DUP1 PUSH2 0x47B0 DUP7 PUSH2 0x38B5 JUMP JUMPDEST SWAP2 POP SWAP2 POP DUP5 ISZERO PUSH2 0x4819 JUMPI PUSH2 0x47CC DUP2 DUP5 PUSH2 0x47C7 PUSH2 0x37A1 JUMP JUMPDEST PUSH2 0x38E0 JUMP JUMPDEST PUSH2 0x4818 JUMPI PUSH2 0x47E1 DUP4 PUSH2 0x47DC PUSH2 0x37A1 JUMP JUMPDEST PUSH2 0x31C2 JUMP JUMPDEST PUSH2 0x4817 JUMPI PUSH1 0x40 MLOAD PUSH32 0x59C896BE00000000000000000000000000000000000000000000000000000000 DUP2 MSTORE PUSH1 0x4 ADD PUSH1 0x40 MLOAD DUP1 SWAP2 SUB SWAP1 REVERT JUMPDEST JUMPDEST JUMPDEST PUSH2 0x4827 DUP4 PUSH1 0x0 DUP9 PUSH1 0x1 PUSH2 0x3924 JUMP JUMPDEST DUP1 ISZERO PUSH2 0x4832 JUMPI PUSH1 0x0 DUP3 SSTORE JUMPDEST PUSH1 0x1 PUSH1 0x80 PUSH1 0x1 SWAP1 SHL SUB PUSH2 0x4843 PUSH2 0x345E JUMP JUMPDEST PUSH1 0x5 ADD PUSH1 0x0 DUP6 PUSH20 0xFFFFFFFFFFFFFFFFFFFFFFFFFFFFFFFFFFFFFFFF AND PUSH20 0xFFFFFFFFFFFFFFFFFFFFFFFFFFFFFFFFFFFFFFFF AND DUP2 MSTORE PUSH1 0x20 ADD SWAP1 DUP2 MSTORE PUSH1 0x20 ADD PUSH1 0x0 KECCAK256 PUSH1 0x0 DUP3 DUP3 SLOAD ADD SWAP3 POP POP DUP2 SWAP1 SSTORE POP PUSH2 0x48E3 DUP4 PUSH2 0x48A0 DUP6 PUSH1 0x0 DUP9 PUSH2 0x392A JUMP JUMPDEST PUSH29 0x200000000000000000000000000000000000000000000000000000000 PUSH29 0x100000000000000000000000000000000000000000000000000000000 OR OR PUSH2 0x3952 JUMP JUMPDEST PUSH2 0x48EB PUSH2 0x345E JUMP JUMPDEST PUSH1 0x4 ADD PUSH1 0x0 DUP9 DUP2 MSTORE PUSH1 0x20 ADD SWAP1 DUP2 MSTORE PUSH1 0x20 ADD PUSH1 0x0 KECCAK256 DUP2 SWAP1 SSTORE POP PUSH1 0x0 PUSH29 0x200000000000000000000000000000000000000000000000000000000 DUP6 AND EQ ISZERO PUSH2 0x498F JUMPI PUSH1 0x0 PUSH1 0x1 DUP8 ADD SWAP1 POP PUSH1 0x0 PUSH2 0x493D PUSH2 0x345E JUMP JUMPDEST PUSH1 0x4 ADD PUSH1 0x0 DUP4 DUP2 MSTORE PUSH1 0x20 ADD SWAP1 DUP2 MSTORE PUSH1 0x20 ADD PUSH1 0x0 KECCAK256 SLOAD EQ ISZERO PUSH2 0x498D JUMPI PUSH2 0x4960 PUSH2 0x345E JUMP JUMPDEST PUSH1 0x0 ADD SLOAD DUP2 EQ PUSH2 0x498C JUMPI DUP5 PUSH2 0x4973 PUSH2 0x345E JUMP JUMPDEST PUSH1 0x4 ADD PUSH1 0x0 DUP4 DUP2 MSTORE PUSH1 0x20 ADD SWAP1 DUP2 MSTORE PUSH1 0x20 ADD PUSH1 0x0 KECCAK256 DUP2 SWAP1 SSTORE POP JUMPDEST JUMPDEST POP JUMPDEST DUP6 PUSH1 0x0 PUSH20 0xFFFFFFFFFFFFFFFFFFFFFFFFFFFFFFFFFFFFFFFF AND DUP5 PUSH20 0xFFFFFFFFFFFFFFFFFFFFFFFFFFFFFFFFFFFFFFFF AND PUSH32 0xDDF252AD1BE2C89B69C2B068FC378DAA952BA7F163C4A11628F55A4DF523B3EF PUSH1 0x40 MLOAD PUSH1 0x40 MLOAD DUP1 SWAP2 SUB SWAP1 LOG4 PUSH2 0x49F9 DUP4 PUSH1 0x0 DUP9 PUSH1 0x1 PUSH2 0x397D JUMP JUMPDEST PUSH2 0x4A01 PUSH2 0x345E JUMP JUMPDEST PUSH1 0x1 ADD PUSH1 0x0 DUP2 SLOAD DUP1 SWAP3 SWAP2 SWAP1 PUSH1 0x1 ADD SWAP2 SWAP1 POP SSTORE POP POP POP POP POP POP POP JUMP JUMPDEST PUSH1 0x0 DUP3 DUP3 SWAP1 POP PUSH1 0xCF PUSH1 0x0 DUP3 DUP3 SLOAD PUSH2 0x4A33 SWAP2 SWAP1 PUSH2 0x650E JUMP JUMPDEST SWAP3 POP POP DUP2 SWAP1 SSTORE POP PUSH1 0x0 JUMPDEST DUP4 DUP4 SWAP1 POP DUP2 LT ISZERO PUSH2 0x4BC3 JUMPI DUP4 DUP4 DUP3 DUP2 DUP2 LT PUSH2 0x4A5B JUMPI PUSH2 0x4A5A PUSH2 0x681F JUMP JUMPDEST JUMPDEST SWAP1 POP PUSH1 0x20 MUL ADD CALLDATALOAD SWAP2 POP CALLER PUSH20 0xFFFFFFFFFFFFFFFFFFFFFFFFFFFFFFFFFFFFFFFF AND PUSH1 0xD6 PUSH1 0x0 DUP5 DUP2 MSTORE PUSH1 0x20 ADD SWAP1 DUP2 MSTORE PUSH1 0x20 ADD PUSH1 0x0 KECCAK256 PUSH1 0x2 ADD PUSH1 0x0 SWAP1 SLOAD SWAP1 PUSH2 0x100 EXP SWAP1 DIV PUSH20 0xFFFFFFFFFFFFFFFFFFFFFFFFFFFFFFFFFFFFFFFF AND PUSH20 0xFFFFFFFFFFFFFFFFFFFFFFFFFFFFFFFFFFFFFFFF AND EQ PUSH2 0x4B08 JUMPI PUSH1 0x40 MLOAD PUSH32 0x8C379A000000000000000000000000000000000000000000000000000000000 DUP2 MSTORE PUSH1 0x4 ADD PUSH2 0x4AFF SWAP1 PUSH2 0x627A JUMP JUMPDEST PUSH1 0x40 MLOAD DUP1 SWAP2 SUB SWAP1 REVERT JUMPDEST DUP5 PUSH20 0xFFFFFFFFFFFFFFFFFFFFFFFFFFFFFFFFFFFFFFFF AND PUSH32 0x7FC4727E062E336010F2C282598EF5F14FACB3DE68CF8195C2F23E1454B2B74E DUP4 TIMESTAMP PUSH1 0x40 MLOAD PUSH2 0x4B50 SWAP3 SWAP2 SWAP1 PUSH2 0x62B5 JUMP JUMPDEST PUSH1 0x40 MLOAD DUP1 SWAP2 SUB SWAP1 LOG2 PUSH1 0xD6 PUSH1 0x0 DUP4 DUP2 MSTORE PUSH1 0x20 ADD SWAP1 DUP2 MSTORE PUSH1 0x20 ADD PUSH1 0x0 KECCAK256 PUSH1 0x0 DUP1 DUP3 ADD PUSH1 0x0 SWAP1 SSTORE PUSH1 0x1 DUP3 ADD PUSH1 0x0 SWAP1 SSTORE PUSH1 0x2 DUP3 ADD PUSH1 0x0 PUSH2 0x100 EXP DUP2 SLOAD SWAP1 PUSH20 0xFFFFFFFFFFFFFFFFFFFFFFFFFFFFFFFFFFFFFFFF MUL NOT AND SWAP1 SSTORE POP POP PUSH2 0x4BB0 ADDRESS DUP7 DUP5 PUSH2 0x178C JUMP JUMPDEST DUP1 DUP1 PUSH2 0x4BBB SWAP1 PUSH2 0x66BB JUMP JUMPDEST SWAP2 POP POP PUSH2 0x4A3D JUMP JUMPDEST POP POP POP POP POP JUMP JUMPDEST PUSH1 0x0 PUSH2 0x4BD4 PUSH2 0x345E JUMP JUMPDEST PUSH1 0x0 ADD SLOAD SWAP1 POP PUSH1 0x0 PUSH20 0xFFFFFFFFFFFFFFFFFFFFFFFFFFFFFFFFFFFFFFFF AND DUP4 PUSH20 0xFFFFFFFFFFFFFFFFFFFFFFFFFFFFFFFFFFFFFFFF AND EQ ISZERO PUSH2 0x4C41 JUMPI PUSH1 0x40 MLOAD PUSH32 0x2E07630000000000000000000000000000000000000000000000000000000000 DUP2 MSTORE PUSH1 0x4 ADD PUSH1 0x40 MLOAD DUP1 SWAP2 SUB SWAP1 REVERT JUMPDEST PUSH1 0x0 DUP3 EQ ISZERO PUSH2 0x4C7C JUMPI PUSH1 0x40 MLOAD PUSH32 0xB562E8DD00000000000000000000000000000000000000000000000000000000 DUP2 MSTORE PUSH1 0x4 ADD PUSH1 0x40 MLOAD DUP1 SWAP2 SUB SWAP1 REVERT JUMPDEST PUSH2 0x4C89 PUSH1 0x0 DUP5 DUP4 DUP6 PUSH2 0x3924 JUMP JUMPDEST PUSH1 0x1 PUSH1 0x40 PUSH1 0x1 SWAP1 SHL OR DUP3 MUL PUSH2 0x4C9C PUSH2 0x345E JUMP JUMPDEST PUSH1 0x5 ADD PUSH1 0x0 DUP6 PUSH20 0xFFFFFFFFFFFFFFFFFFFFFFFFFFFFFFFFFFFFFFFF AND PUSH20 0xFFFFFFFFFFFFFFFFFFFFFFFFFFFFFFFFFFFFFFFF AND DUP2 MSTORE PUSH1 0x20 ADD SWAP1 DUP2 MSTORE PUSH1 0x20 ADD PUSH1 0x0 KECCAK256 PUSH1 0x0 DUP3 DUP3 SLOAD ADD SWAP3 POP POP DUP2 SWAP1 SSTORE POP PUSH2 0x4D09 DUP4 PUSH2 0x4CFA PUSH1 0x0 DUP7 PUSH1 0x0 PUSH2 0x392A JUMP JUMPDEST PUSH2 0x4D03 DUP6 PUSH2 0x4F2F JUMP JUMPDEST OR PUSH2 0x3952 JUMP JUMPDEST PUSH2 0x4D11 PUSH2 0x345E JUMP JUMPDEST PUSH1 0x4 ADD PUSH1 0x0 DUP4 DUP2 MSTORE PUSH1 0x20 ADD SWAP1 DUP2 MSTORE PUSH1 0x20 ADD PUSH1 0x0 KECCAK256 DUP2 SWAP1 SSTORE POP PUSH1 0x0 DUP2 SWAP1 POP PUSH1 0x0 DUP4 DUP4 ADD SWAP1 POP JUMPDEST DUP2 DUP1 PUSH1 0x1 ADD SWAP3 POP DUP6 PUSH20 0xFFFFFFFFFFFFFFFFFFFFFFFFFFFFFFFFFFFFFFFF AND PUSH1 0x0 PUSH20 0xFFFFFFFFFFFFFFFFFFFFFFFFFFFFFFFFFFFFFFFF AND PUSH32 0xDDF252AD1BE2C89B69C2B068FC378DAA952BA7F163C4A11628F55A4DF523B3EF PUSH1 0x40 MLOAD PUSH1 0x40 MLOAD DUP1 SWAP2 SUB SWAP1 LOG4 DUP1 DUP3 LT PUSH2 0x4D36 JUMPI DUP1 PUSH2 0x4DA8 PUSH2 0x345E JUMP JUMPDEST PUSH1 0x0 ADD DUP2 SWAP1 SSTORE POP POP POP PUSH2 0x4DBE PUSH1 0x0 DUP5 DUP4 DUP6 PUSH2 0x397D JUMP JUMPDEST POP POP POP JUMP JUMPDEST PUSH1 0x0 DUP1 PUSH32 0x7FFFFFFFFFFFFFFFFFFFFFFFFFFFFFFF5D576E7357A4501DDFE92F46681B20A0 DUP4 PUSH1 0x0 SHR GT ISZERO PUSH2 0x4DFE JUMPI PUSH1 0x0 PUSH1 0x3 SWAP2 POP SWAP2 POP PUSH2 0x4EC7 JUMP JUMPDEST PUSH1 0x1B DUP6 PUSH1 0xFF AND EQ ISZERO DUP1 ISZERO PUSH2 0x4E16 JUMPI POP PUSH1 0x1C DUP6 PUSH1 0xFF AND EQ ISZERO JUMPDEST ISZERO PUSH2 0x4E28 JUMPI PUSH1 0x0 PUSH1 0x4 SWAP2 POP SWAP2 POP PUSH2 0x4EC7 JUMP JUMPDEST PUSH1 0x0 PUSH1 0x1 DUP8 DUP8 DUP8 DUP8 PUSH1 0x40 MLOAD PUSH1 0x0 DUP2 MSTORE PUSH1 0x20 ADD PUSH1 0x40 MSTORE PUSH1 0x40 MLOAD PUSH2 0x4E4D SWAP5 SWAP4 SWAP3 SWAP2 SWAP1 PUSH2 0x5E7D JUMP JUMPDEST PUSH1 0x20 PUSH1 0x40 MLOAD PUSH1 0x20 DUP2 SUB SWAP1 DUP1 DUP5 SUB SWAP1 DUP6 GAS STATICCALL ISZERO DUP1 ISZERO PUSH2 0x4E6F JUMPI RETURNDATASIZE PUSH1 0x0 DUP1 RETURNDATACOPY RETURNDATASIZE PUSH1 0x0 REVERT JUMPDEST POP POP POP PUSH1 0x20 PUSH1 0x40 MLOAD SUB MLOAD SWAP1 POP PUSH1 0x0 PUSH20 0xFFFFFFFFFFFFFFFFFFFFFFFFFFFFFFFFFFFFFFFF AND DUP2 PUSH20 0xFFFFFFFFFFFFFFFFFFFFFFFFFFFFFFFFFFFFFFFF AND EQ ISZERO PUSH2 0x4EBE JUMPI PUSH1 0x0 PUSH1 0x1 SWAP3 POP SWAP3 POP POP PUSH2 0x4EC7 JUMP JUMPDEST DUP1 PUSH1 0x0 SWAP3 POP SWAP3 POP POP JUMPDEST SWAP5 POP SWAP5 SWAP3 POP POP POP JUMP JUMPDEST PUSH1 0x0 DUP1 PUSH1 0x0 PUSH32 0x7FFFFFFFFFFFFFFFFFFFFFFFFFFFFFFFFFFFFFFFFFFFFFFFFFFFFFFFFFFFFFFF PUSH1 0x0 SHL DUP5 AND SWAP1 POP PUSH1 0x0 PUSH1 0x1B PUSH1 0xFF DUP7 PUSH1 0x0 SHR SWAP1 SHR PUSH2 0x4F13 SWAP2 SWAP1 PUSH2 0x642D JUMP JUMPDEST SWAP1 POP PUSH2 0x4F21 DUP8 DUP3 DUP9 DUP6 PUSH2 0x4DC3 JUMP JUMPDEST SWAP4 POP SWAP4 POP POP POP SWAP4 POP SWAP4 SWAP2 POP POP JUMP JUMPDEST PUSH1 0x0 PUSH1 0x1 DUP3 EQ PUSH1 0xE1 SHL SWAP1 POP SWAP2 SWAP1 POP JUMP JUMPDEST DUP3 DUP1 SLOAD PUSH2 0x4F4B SWAP1 PUSH2 0x6658 JUMP JUMPDEST SWAP1 PUSH1 0x0 MSTORE PUSH1 0x20 PUSH1 0x0 KECCAK256 SWAP1 PUSH1 0x1F ADD PUSH1 0x20 SWAP1 DIV DUP2 ADD SWAP3 DUP3 PUSH2 0x4F6D JUMPI PUSH1 0x0 DUP6 SSTORE PUSH2 0x4FB4 JUMP JUMPDEST DUP3 PUSH1 0x1F LT PUSH2 0x4F86 JUMPI DUP1 MLOAD PUSH1 0xFF NOT AND DUP4 DUP1 ADD OR DUP6 SSTORE PUSH2 0x4FB4 JUMP JUMPDEST DUP3 DUP1 ADD PUSH1 0x1 ADD DUP6 SSTORE DUP3 ISZERO PUSH2 0x4FB4 JUMPI SWAP2 DUP3 ADD JUMPDEST DUP3 DUP2 GT ISZERO PUSH2 0x4FB3 JUMPI DUP3 MLOAD DUP3 SSTORE SWAP2 PUSH1 0x20 ADD SWAP2 SWAP1 PUSH1 0x1 ADD SWAP1 PUSH2 0x4F98 JUMP JUMPDEST JUMPDEST POP SWAP1 POP PUSH2 0x4FC1 SWAP2 SWAP1 PUSH2 0x4FC5 JUMP JUMPDEST POP SWAP1 JUMP JUMPDEST JUMPDEST DUP1 DUP3 GT ISZERO PUSH2 0x4FDE JUMPI PUSH1 0x0 DUP2 PUSH1 0x0 SWAP1 SSTORE POP PUSH1 0x1 ADD PUSH2 0x4FC6 JUMP JUMPDEST POP SWAP1 JUMP JUMPDEST PUSH1 0x0 PUSH2 0x4FF5 PUSH2 0x4FF0 DUP5 PUSH2 0x633A JUMP JUMPDEST PUSH2 0x6315 JUMP JUMPDEST SWAP1 POP DUP3 DUP2 MSTORE PUSH1 0x20 DUP2 ADD DUP5 DUP5 DUP5 ADD GT ISZERO PUSH2 0x5011 JUMPI PUSH2 0x5010 PUSH2 0x688C JUMP JUMPDEST JUMPDEST PUSH2 0x501C DUP5 DUP3 DUP6 PUSH2 0x6616 JUMP JUMPDEST POP SWAP4 SWAP3 POP POP POP JUMP JUMPDEST PUSH1 0x0 PUSH2 0x5037 PUSH2 0x5032 DUP5 PUSH2 0x636B JUMP JUMPDEST PUSH2 0x6315 JUMP JUMPDEST SWAP1 POP DUP3 DUP2 MSTORE PUSH1 0x20 DUP2 ADD DUP5 DUP5 DUP5 ADD GT ISZERO PUSH2 0x5053 JUMPI PUSH2 0x5052 PUSH2 0x688C JUMP JUMPDEST JUMPDEST PUSH2 0x505E DUP5 DUP3 DUP6 PUSH2 0x6616 JUMP JUMPDEST POP SWAP4 SWAP3 POP POP POP JUMP JUMPDEST PUSH1 0x0 DUP2 CALLDATALOAD SWAP1 POP PUSH2 0x5075 DUP2 PUSH2 0x6F1A JUMP JUMPDEST SWAP3 SWAP2 POP POP JUMP JUMPDEST PUSH1 0x0 DUP1 DUP4 PUSH1 0x1F DUP5 ADD SLT PUSH2 0x5091 JUMPI PUSH2 0x5090 PUSH2 0x6882 JUMP JUMPDEST JUMPDEST DUP3 CALLDATALOAD SWAP1 POP PUSH8 0xFFFFFFFFFFFFFFFF DUP2 GT ISZERO PUSH2 0x50AE JUMPI PUSH2 0x50AD PUSH2 0x687D JUMP JUMPDEST JUMPDEST PUSH1 0x20 DUP4 ADD SWAP2 POP DUP4 PUSH1 0x20 DUP3 MUL DUP4 ADD GT ISZERO PUSH2 0x50CA JUMPI PUSH2 0x50C9 PUSH2 0x6887 JUMP JUMPDEST JUMPDEST SWAP3 POP SWAP3 SWAP1 POP JUMP JUMPDEST PUSH1 0x0 DUP2 CALLDATALOAD SWAP1 POP PUSH2 0x50E0 DUP2 PUSH2 0x6F31 JUMP JUMPDEST SWAP3 SWAP2 POP POP JUMP JUMPDEST PUSH1 0x0 DUP2 CALLDATALOAD SWAP1 POP PUSH2 0x50F5 DUP2 PUSH2 0x6F48 JUMP JUMPDEST SWAP3 SWAP2 POP POP JUMP JUMPDEST PUSH1 0x0 DUP2 MLOAD SWAP1 POP PUSH2 0x510A DUP2 PUSH2 0x6F48 JUMP JUMPDEST SWAP3 SWAP2 POP POP JUMP JUMPDEST PUSH1 0x0 DUP1 DUP4 PUSH1 0x1F DUP5 ADD SLT PUSH2 0x5126 JUMPI PUSH2 0x5125 PUSH2 0x6882 JUMP JUMPDEST JUMPDEST DUP3 CALLDATALOAD SWAP1 POP PUSH8 0xFFFFFFFFFFFFFFFF DUP2 GT ISZERO PUSH2 0x5143 JUMPI PUSH2 0x5142 PUSH2 0x687D JUMP JUMPDEST JUMPDEST PUSH1 0x20 DUP4 ADD SWAP2 POP DUP4 PUSH1 0x1 DUP3 MUL DUP4 ADD GT ISZERO PUSH2 0x515F JUMPI PUSH2 0x515E PUSH2 0x6887 JUMP JUMPDEST JUMPDEST SWAP3 POP SWAP3 SWAP1 POP JUMP JUMPDEST PUSH1 0x0 DUP3 PUSH1 0x1F DUP4 ADD SLT PUSH2 0x517B JUMPI PUSH2 0x517A PUSH2 0x6882 JUMP JUMPDEST JUMPDEST DUP2 CALLDATALOAD PUSH2 0x518B DUP5 DUP3 PUSH1 0x20 DUP7 ADD PUSH2 0x4FE2 JUMP JUMPDEST SWAP2 POP POP SWAP3 SWAP2 POP POP JUMP JUMPDEST PUSH1 0x0 DUP2 CALLDATALOAD SWAP1 POP PUSH2 0x51A3 DUP2 PUSH2 0x6F5F JUMP JUMPDEST SWAP3 SWAP2 POP POP JUMP JUMPDEST PUSH1 0x0 DUP3 PUSH1 0x1F DUP4 ADD SLT PUSH2 0x51BE JUMPI PUSH2 0x51BD PUSH2 0x6882 JUMP JUMPDEST JUMPDEST DUP2 CALLDATALOAD PUSH2 0x51CE DUP5 DUP3 PUSH1 0x20 DUP7 ADD PUSH2 0x5024 JUMP JUMPDEST SWAP2 POP POP SWAP3 SWAP2 POP POP JUMP JUMPDEST PUSH1 0x0 DUP2 CALLDATALOAD SWAP1 POP PUSH2 0x51E6 DUP2 PUSH2 0x6F76 JUMP JUMPDEST SWAP3 SWAP2 POP POP JUMP JUMPDEST PUSH1 0x0 PUSH1 0x20 DUP3 DUP5 SUB SLT ISZERO PUSH2 0x5202 JUMPI PUSH2 0x5201 PUSH2 0x6896 JUMP JUMPDEST JUMPDEST PUSH1 0x0 PUSH2 0x5210 DUP5 DUP3 DUP6 ADD PUSH2 0x5066 JUMP JUMPDEST SWAP2 POP POP SWAP3 SWAP2 POP POP JUMP JUMPDEST PUSH1 0x0 DUP1 PUSH1 0x40 DUP4 DUP6 SUB SLT ISZERO PUSH2 0x5230 JUMPI PUSH2 0x522F PUSH2 0x6896 JUMP JUMPDEST JUMPDEST PUSH1 0x0 PUSH2 0x523E DUP6 DUP3 DUP7 ADD PUSH2 0x5066 JUMP JUMPDEST SWAP3 POP POP PUSH1 0x20 PUSH2 0x524F DUP6 DUP3 DUP7 ADD PUSH2 0x5066 JUMP JUMPDEST SWAP2 POP POP SWAP3 POP SWAP3 SWAP1 POP JUMP JUMPDEST PUSH1 0x0 DUP1 PUSH1 0x0 PUSH1 0x60 DUP5 DUP7 SUB SLT ISZERO PUSH2 0x5272 JUMPI PUSH2 0x5271 PUSH2 0x6896 JUMP JUMPDEST JUMPDEST PUSH1 0x0 PUSH2 0x5280 DUP7 DUP3 DUP8 ADD PUSH2 0x5066 JUMP JUMPDEST SWAP4 POP POP PUSH1 0x20 PUSH2 0x5291 DUP7 DUP3 DUP8 ADD PUSH2 0x5066 JUMP JUMPDEST SWAP3 POP POP PUSH1 0x40 PUSH2 0x52A2 DUP7 DUP3 DUP8 ADD PUSH2 0x51D7 JUMP JUMPDEST SWAP2 POP POP SWAP3 POP SWAP3 POP SWAP3 JUMP JUMPDEST PUSH1 0x0 DUP1 PUSH1 0x0 DUP1 PUSH1 0x80 DUP6 DUP8 SUB SLT ISZERO PUSH2 0x52C6 JUMPI PUSH2 0x52C5 PUSH2 0x6896 JUMP JUMPDEST JUMPDEST PUSH1 0x0 PUSH2 0x52D4 DUP8 DUP3 DUP9 ADD PUSH2 0x5066 JUMP JUMPDEST SWAP5 POP POP PUSH1 0x20 PUSH2 0x52E5 DUP8 DUP3 DUP9 ADD PUSH2 0x5066 JUMP JUMPDEST SWAP4 POP POP PUSH1 0x40 PUSH2 0x52F6 DUP8 DUP3 DUP9 ADD PUSH2 0x51D7 JUMP JUMPDEST SWAP3 POP POP PUSH1 0x60 DUP6 ADD CALLDATALOAD PUSH8 0xFFFFFFFFFFFFFFFF DUP2 GT ISZERO PUSH2 0x5317 JUMPI PUSH2 0x5316 PUSH2 0x6891 JUMP JUMPDEST JUMPDEST PUSH2 0x5323 DUP8 DUP3 DUP9 ADD PUSH2 0x5166 JUMP JUMPDEST SWAP2 POP POP SWAP3 SWAP6 SWAP2 SWAP5 POP SWAP3 POP JUMP JUMPDEST PUSH1 0x0 DUP1 PUSH1 0x0 PUSH1 0x40 DUP5 DUP7 SUB SLT ISZERO PUSH2 0x5348 JUMPI PUSH2 0x5347 PUSH2 0x6896 JUMP JUMPDEST JUMPDEST PUSH1 0x0 PUSH2 0x5356 DUP7 DUP3 DUP8 ADD PUSH2 0x5066 JUMP JUMPDEST SWAP4 POP POP PUSH1 0x20 DUP5 ADD CALLDATALOAD PUSH8 0xFFFFFFFFFFFFFFFF DUP2 GT ISZERO PUSH2 0x5377 JUMPI PUSH2 0x5376 PUSH2 0x6891 JUMP JUMPDEST JUMPDEST PUSH2 0x5383 DUP7 DUP3 DUP8 ADD PUSH2 0x507B JUMP JUMPDEST SWAP3 POP SWAP3 POP POP SWAP3 POP SWAP3 POP SWAP3 JUMP JUMPDEST PUSH1 0x0 DUP1 PUSH1 0x40 DUP4 DUP6 SUB SLT ISZERO PUSH2 0x53A6 JUMPI PUSH2 0x53A5 PUSH2 0x6896 JUMP JUMPDEST JUMPDEST PUSH1 0x0 PUSH2 0x53B4 DUP6 DUP3 DUP7 ADD PUSH2 0x5066 JUMP JUMPDEST SWAP3 POP POP PUSH1 0x20 PUSH2 0x53C5 DUP6 DUP3 DUP7 ADD PUSH2 0x50D1 JUMP JUMPDEST SWAP2 POP POP SWAP3 POP SWAP3 SWAP1 POP JUMP JUMPDEST PUSH1 0x0 DUP1 PUSH1 0x40 DUP4 DUP6 SUB SLT ISZERO PUSH2 0x53E6 JUMPI PUSH2 0x53E5 PUSH2 0x6896 JUMP JUMPDEST JUMPDEST PUSH1 0x0 PUSH2 0x53F4 DUP6 DUP3 DUP7 ADD PUSH2 0x5066 JUMP JUMPDEST SWAP3 POP POP PUSH1 0x20 PUSH2 0x5405 DUP6 DUP3 DUP7 ADD PUSH2 0x51D7 JUMP JUMPDEST SWAP2 POP POP SWAP3 POP SWAP3 SWAP1 POP JUMP JUMPDEST PUSH1 0x0 DUP1 PUSH1 0x20 DUP4 DUP6 SUB SLT ISZERO PUSH2 0x5426 JUMPI PUSH2 0x5425 PUSH2 0x6896 JUMP JUMPDEST JUMPDEST PUSH1 0x0 DUP4 ADD CALLDATALOAD PUSH8 0xFFFFFFFFFFFFFFFF DUP2 GT ISZERO PUSH2 0x5444 JUMPI PUSH2 0x5443 PUSH2 0x6891 JUMP JUMPDEST JUMPDEST PUSH2 0x5450 DUP6 DUP3 DUP7 ADD PUSH2 0x507B JUMP JUMPDEST SWAP3 POP SWAP3 POP POP SWAP3 POP SWAP3 SWAP1 POP JUMP JUMPDEST PUSH1 0x0 PUSH1 0x20 DUP3 DUP5 SUB SLT ISZERO PUSH2 0x5472 JUMPI PUSH2 0x5471 PUSH2 0x6896 JUMP JUMPDEST JUMPDEST PUSH1 0x0 PUSH2 0x5480 DUP5 DUP3 DUP6 ADD PUSH2 0x50E6 JUMP JUMPDEST SWAP2 POP POP SWAP3 SWAP2 POP POP JUMP JUMPDEST PUSH1 0x0 PUSH1 0x20 DUP3 DUP5 SUB SLT ISZERO PUSH2 0x549F JUMPI PUSH2 0x549E PUSH2 0x6896 JUMP JUMPDEST JUMPDEST PUSH1 0x0 PUSH2 0x54AD DUP5 DUP3 DUP6 ADD PUSH2 0x50FB JUMP JUMPDEST SWAP2 POP POP SWAP3 SWAP2 POP POP JUMP JUMPDEST PUSH1 0x0 DUP1 PUSH1 0x20 DUP4 DUP6 SUB SLT ISZERO PUSH2 0x54CD JUMPI PUSH2 0x54CC PUSH2 0x6896 JUMP JUMPDEST JUMPDEST PUSH1 0x0 DUP4 ADD CALLDATALOAD PUSH8 0xFFFFFFFFFFFFFFFF DUP2 GT ISZERO PUSH2 0x54EB JUMPI PUSH2 0x54EA PUSH2 0x6891 JUMP JUMPDEST JUMPDEST PUSH2 0x54F7 DUP6 DUP3 DUP7 ADD PUSH2 0x5110 JUMP JUMPDEST SWAP3 POP SWAP3 POP POP SWAP3 POP SWAP3 SWAP1 POP JUMP JUMPDEST PUSH1 0x0 PUSH1 0x20 DUP3 DUP5 SUB SLT ISZERO PUSH2 0x5519 JUMPI PUSH2 0x5518 PUSH2 0x6896 JUMP JUMPDEST JUMPDEST PUSH1 0x0 DUP3 ADD CALLDATALOAD PUSH8 0xFFFFFFFFFFFFFFFF DUP2 GT ISZERO PUSH2 0x5537 JUMPI PUSH2 0x5536 PUSH2 0x6891 JUMP JUMPDEST JUMPDEST PUSH2 0x5543 DUP5 DUP3 DUP6 ADD PUSH2 0x51A9 JUMP JUMPDEST SWAP2 POP POP SWAP3 SWAP2 POP POP JUMP JUMPDEST PUSH1 0x0 DUP1 PUSH1 0x0 PUSH1 0x60 DUP5 DUP7 SUB SLT ISZERO PUSH2 0x5565 JUMPI PUSH2 0x5564 PUSH2 0x6896 JUMP JUMPDEST JUMPDEST PUSH1 0x0 DUP5 ADD CALLDATALOAD PUSH8 0xFFFFFFFFFFFFFFFF DUP2 GT ISZERO PUSH2 0x5583 JUMPI PUSH2 0x5582 PUSH2 0x6891 JUMP JUMPDEST JUMPDEST PUSH2 0x558F DUP7 DUP3 DUP8 ADD PUSH2 0x51A9 JUMP JUMPDEST SWAP4 POP POP PUSH1 0x20 DUP5 ADD CALLDATALOAD PUSH8 0xFFFFFFFFFFFFFFFF DUP2 GT ISZERO PUSH2 0x55B0 JUMPI PUSH2 0x55AF PUSH2 0x6891 JUMP JUMPDEST JUMPDEST PUSH2 0x55BC DUP7 DUP3 DUP8 ADD PUSH2 0x51A9 JUMP JUMPDEST SWAP3 POP POP PUSH1 0x40 PUSH2 0x55CD DUP7 DUP3 DUP8 ADD PUSH2 0x5194 JUMP JUMPDEST SWAP2 POP POP SWAP3 POP SWAP3 POP SWAP3 JUMP JUMPDEST PUSH1 0x0 PUSH1 0x20 DUP3 DUP5 SUB SLT ISZERO PUSH2 0x55ED JUMPI PUSH2 0x55EC PUSH2 0x6896 JUMP JUMPDEST JUMPDEST PUSH1 0x0 PUSH2 0x55FB DUP5 DUP3 DUP6 ADD PUSH2 0x51D7 JUMP JUMPDEST SWAP2 POP POP SWAP3 SWAP2 POP POP JUMP JUMPDEST PUSH1 0x0 DUP1 PUSH1 0x0 PUSH1 0x40 DUP5 DUP7 SUB SLT ISZERO PUSH2 0x561D JUMPI PUSH2 0x561C PUSH2 0x6896 JUMP JUMPDEST JUMPDEST PUSH1 0x0 PUSH2 0x562B DUP7 DUP3 DUP8 ADD PUSH2 0x51D7 JUMP JUMPDEST SWAP4 POP POP PUSH1 0x20 DUP5 ADD CALLDATALOAD PUSH8 0xFFFFFFFFFFFFFFFF DUP2 GT ISZERO PUSH2 0x564C JUMPI PUSH2 0x564B PUSH2 0x6891 JUMP JUMPDEST JUMPDEST PUSH2 0x5658 DUP7 DUP3 DUP8 ADD PUSH2 0x5110 JUMP JUMPDEST SWAP3 POP SWAP3 POP POP SWAP3 POP SWAP3 POP SWAP3 JUMP JUMPDEST PUSH1 0x0 PUSH2 0x5670 DUP4 DUP4 PUSH2 0x5CB2 JUMP JUMPDEST PUSH1 0x20 DUP4 ADD SWAP1 POP SWAP3 SWAP2 POP POP JUMP JUMPDEST PUSH2 0x5685 DUP2 PUSH2 0x6542 JUMP JUMPDEST DUP3 MSTORE POP POP JUMP JUMPDEST PUSH2 0x569C PUSH2 0x5697 DUP3 PUSH2 0x6542 JUMP JUMPDEST PUSH2 0x6704 JUMP JUMPDEST DUP3 MSTORE POP POP JUMP JUMPDEST PUSH1 0x0 PUSH2 0x56AD DUP3 PUSH2 0x63C1 JUMP JUMPDEST PUSH2 0x56B7 DUP2 DUP6 PUSH2 0x63EF JUMP JUMPDEST SWAP4 POP PUSH2 0x56C2 DUP4 PUSH2 0x639C JUMP JUMPDEST DUP1 PUSH1 0x0 JUMPDEST DUP4 DUP2 LT ISZERO PUSH2 0x56F3 JUMPI DUP2 MLOAD PUSH2 0x56DA DUP9 DUP3 PUSH2 0x5664 JUMP JUMPDEST SWAP8 POP PUSH2 0x56E5 DUP4 PUSH2 0x63E2 JUMP JUMPDEST SWAP3 POP POP PUSH1 0x1 DUP2 ADD SWAP1 POP PUSH2 0x56C6 JUMP JUMPDEST POP DUP6 SWAP4 POP POP POP POP SWAP3 SWAP2 POP POP JUMP JUMPDEST PUSH2 0x5709 DUP2 PUSH2 0x6554 JUMP JUMPDEST DUP3 MSTORE POP POP JUMP JUMPDEST PUSH2 0x5718 DUP2 PUSH2 0x6560 JUMP JUMPDEST DUP3 MSTORE POP POP JUMP JUMPDEST PUSH2 0x572F PUSH2 0x572A DUP3 PUSH2 0x6560 JUMP JUMPDEST PUSH2 0x6716 JUMP JUMPDEST DUP3 MSTORE POP POP JUMP JUMPDEST PUSH1 0x0 PUSH2 0x5740 DUP3 PUSH2 0x63CC JUMP JUMPDEST PUSH2 0x574A DUP2 DUP6 PUSH2 0x6400 JUMP JUMPDEST SWAP4 POP PUSH2 0x575A DUP2 DUP6 PUSH1 0x20 DUP7 ADD PUSH2 0x6625 JUMP JUMPDEST PUSH2 0x5763 DUP2 PUSH2 0x689B JUMP JUMPDEST DUP5 ADD SWAP2 POP POP SWAP3 SWAP2 POP POP JUMP JUMPDEST PUSH2 0x5777 DUP2 PUSH2 0x65F2 JUMP JUMPDEST DUP3 MSTORE POP POP JUMP JUMPDEST PUSH2 0x5786 DUP2 PUSH2 0x6604 JUMP JUMPDEST DUP3 MSTORE POP POP JUMP JUMPDEST PUSH1 0x0 PUSH2 0x5797 DUP3 PUSH2 0x63D7 JUMP JUMPDEST PUSH2 0x57A1 DUP2 DUP6 PUSH2 0x6411 JUMP JUMPDEST SWAP4 POP PUSH2 0x57B1 DUP2 DUP6 PUSH1 0x20 DUP7 ADD PUSH2 0x6625 JUMP JUMPDEST PUSH2 0x57BA DUP2 PUSH2 0x689B JUMP JUMPDEST DUP5 ADD SWAP2 POP POP SWAP3 SWAP2 POP POP JUMP JUMPDEST PUSH1 0x0 PUSH2 0x57D0 DUP3 PUSH2 0x63D7 JUMP JUMPDEST PUSH2 0x57DA DUP2 DUP6 PUSH2 0x6422 JUMP JUMPDEST SWAP4 POP PUSH2 0x57EA DUP2 DUP6 PUSH1 0x20 DUP7 ADD PUSH2 0x6625 JUMP JUMPDEST DUP1 DUP5 ADD SWAP2 POP POP SWAP3 SWAP2 POP POP JUMP JUMPDEST PUSH1 0x0 DUP2 SLOAD PUSH2 0x5803 DUP2 PUSH2 0x6658 JUMP JUMPDEST PUSH2 0x580D DUP2 DUP7 PUSH2 0x6422 JUMP JUMPDEST SWAP5 POP PUSH1 0x1 DUP3 AND PUSH1 0x0 DUP2 EQ PUSH2 0x5828 JUMPI PUSH1 0x1 DUP2 EQ PUSH2 0x5839 JUMPI PUSH2 0x586C JUMP JUMPDEST PUSH1 0xFF NOT DUP4 AND DUP7 MSTORE DUP2 DUP7 ADD SWAP4 POP PUSH2 0x586C JUMP JUMPDEST PUSH2 0x5842 DUP6 PUSH2 0x63AC JUMP JUMPDEST PUSH1 0x0 JUMPDEST DUP4 DUP2 LT ISZERO PUSH2 0x5864 JUMPI DUP2 SLOAD DUP2 DUP10 ADD MSTORE PUSH1 0x1 DUP3 ADD SWAP2 POP PUSH1 0x20 DUP2 ADD SWAP1 POP PUSH2 0x5845 JUMP JUMPDEST DUP4 DUP9 ADD SWAP6 POP POP POP JUMPDEST POP POP POP SWAP3 SWAP2 POP POP JUMP JUMPDEST PUSH1 0x0 PUSH2 0x5882 PUSH1 0x18 DUP4 PUSH2 0x6411 JUMP JUMPDEST SWAP2 POP PUSH2 0x588D DUP3 PUSH2 0x68B9 JUMP JUMPDEST PUSH1 0x20 DUP3 ADD SWAP1 POP SWAP2 SWAP1 POP JUMP JUMPDEST PUSH1 0x0 PUSH2 0x58A5 PUSH1 0x14 DUP4 PUSH2 0x6411 JUMP JUMPDEST SWAP2 POP PUSH2 0x58B0 DUP3 PUSH2 0x68E2 JUMP JUMPDEST PUSH1 0x20 DUP3 ADD SWAP1 POP SWAP2 SWAP1 POP JUMP JUMPDEST PUSH1 0x0 PUSH2 0x58C8 PUSH1 0x18 DUP4 PUSH2 0x6411 JUMP JUMPDEST SWAP2 POP PUSH2 0x58D3 DUP3 PUSH2 0x690B JUMP JUMPDEST PUSH1 0x20 DUP3 ADD SWAP1 POP SWAP2 SWAP1 POP JUMP JUMPDEST PUSH1 0x0 PUSH2 0x58EB PUSH1 0x1F DUP4 PUSH2 0x6411 JUMP JUMPDEST SWAP2 POP PUSH2 0x58F6 DUP3 PUSH2 0x6934 JUMP JUMPDEST PUSH1 0x20 DUP3 ADD SWAP1 POP SWAP2 SWAP1 POP JUMP JUMPDEST PUSH1 0x0 PUSH2 0x590E PUSH1 0x1C DUP4 PUSH2 0x6422 JUMP JUMPDEST SWAP2 POP PUSH2 0x5919 DUP3 PUSH2 0x695D JUMP JUMPDEST PUSH1 0x1C DUP3 ADD SWAP1 POP SWAP2 SWAP1 POP JUMP JUMPDEST PUSH1 0x0 PUSH2 0x5931 PUSH1 0x34 DUP4 PUSH2 0x6411 JUMP JUMPDEST SWAP2 POP PUSH2 0x593C DUP3 PUSH2 0x6986 JUMP JUMPDEST PUSH1 0x40 DUP3 ADD SWAP1 POP SWAP2 SWAP1 POP JUMP JUMPDEST PUSH1 0x0 PUSH2 0x5954 PUSH1 0x26 DUP4 PUSH2 0x6411 JUMP JUMPDEST SWAP2 POP PUSH2 0x595F DUP3 PUSH2 0x69D5 JUMP JUMPDEST PUSH1 0x40 DUP3 ADD SWAP1 POP SWAP2 SWAP1 POP JUMP JUMPDEST PUSH1 0x0 PUSH2 0x5977 PUSH1 0x1F DUP4 PUSH2 0x6411 JUMP JUMPDEST SWAP2 POP PUSH2 0x5982 DUP3 PUSH2 0x6A24 JUMP JUMPDEST PUSH1 0x20 DUP3 ADD SWAP1 POP SWAP2 SWAP1 POP JUMP JUMPDEST PUSH1 0x0 PUSH2 0x599A PUSH1 0x14 DUP4 PUSH2 0x6411 JUMP JUMPDEST SWAP2 POP PUSH2 0x59A5 DUP3 PUSH2 0x6A4D JUMP JUMPDEST PUSH1 0x20 DUP3 ADD SWAP1 POP SWAP2 SWAP1 POP JUMP JUMPDEST PUSH1 0x0 PUSH2 0x59BD PUSH1 0xD DUP4 PUSH2 0x6411 JUMP JUMPDEST SWAP2 POP PUSH2 0x59C8 DUP3 PUSH2 0x6A76 JUMP JUMPDEST PUSH1 0x20 DUP3 ADD SWAP1 POP SWAP2 SWAP1 POP JUMP JUMPDEST PUSH1 0x0 PUSH2 0x59E0 PUSH1 0x22 DUP4 PUSH2 0x6411 JUMP JUMPDEST SWAP2 POP PUSH2 0x59EB DUP3 PUSH2 0x6A9F JUMP JUMPDEST PUSH1 0x40 DUP3 ADD SWAP1 POP SWAP2 SWAP1 POP JUMP JUMPDEST PUSH1 0x0 PUSH2 0x5A03 PUSH1 0x10 DUP4 PUSH2 0x6411 JUMP JUMPDEST SWAP2 POP PUSH2 0x5A0E DUP3 PUSH2 0x6AEE JUMP JUMPDEST PUSH1 0x20 DUP3 ADD SWAP1 POP SWAP2 SWAP1 POP JUMP JUMPDEST PUSH1 0x0 PUSH2 0x5A26 PUSH1 0x1B DUP4 PUSH2 0x6411 JUMP JUMPDEST SWAP2 POP PUSH2 0x5A31 DUP3 PUSH2 0x6B17 JUMP JUMPDEST PUSH1 0x20 DUP3 ADD SWAP1 POP SWAP2 SWAP1 POP JUMP JUMPDEST PUSH1 0x0 PUSH2 0x5A49 PUSH1 0xD DUP4 PUSH2 0x6411 JUMP JUMPDEST SWAP2 POP PUSH2 0x5A54 DUP3 PUSH2 0x6B40 JUMP JUMPDEST PUSH1 0x20 DUP3 ADD SWAP1 POP SWAP2 SWAP1 POP JUMP JUMPDEST PUSH1 0x0 PUSH2 0x5A6C PUSH1 0x2E DUP4 PUSH2 0x6411 JUMP JUMPDEST SWAP2 POP PUSH2 0x5A77 DUP3 PUSH2 0x6B69 JUMP JUMPDEST PUSH1 0x40 DUP3 ADD SWAP1 POP SWAP2 SWAP1 POP JUMP JUMPDEST PUSH1 0x0 PUSH2 0x5A8F PUSH1 0x37 DUP4 PUSH2 0x6411 JUMP JUMPDEST SWAP2 POP PUSH2 0x5A9A DUP3 PUSH2 0x6BB8 JUMP JUMPDEST PUSH1 0x40 DUP3 ADD SWAP1 POP SWAP2 SWAP1 POP JUMP JUMPDEST PUSH1 0x0 PUSH2 0x5AB2 PUSH1 0x22 DUP4 PUSH2 0x6411 JUMP JUMPDEST SWAP2 POP PUSH2 0x5ABD DUP3 PUSH2 0x6C07 JUMP JUMPDEST PUSH1 0x40 DUP3 ADD SWAP1 POP SWAP2 SWAP1 POP JUMP JUMPDEST PUSH1 0x0 PUSH2 0x5AD5 PUSH1 0x5 DUP4 PUSH2 0x6422 JUMP JUMPDEST SWAP2 POP PUSH2 0x5AE0 DUP3 PUSH2 0x6C56 JUMP JUMPDEST PUSH1 0x5 DUP3 ADD SWAP1 POP SWAP2 SWAP1 POP JUMP JUMPDEST PUSH1 0x0 PUSH2 0x5AF8 PUSH1 0x38 DUP4 PUSH2 0x6411 JUMP JUMPDEST SWAP2 POP PUSH2 0x5B03 DUP3 PUSH2 0x6C7F JUMP JUMPDEST PUSH1 0x40 DUP3 ADD SWAP1 POP SWAP2 SWAP1 POP JUMP JUMPDEST PUSH1 0x0 PUSH2 0x5B1B PUSH1 0x20 DUP4 PUSH2 0x6411 JUMP JUMPDEST SWAP2 POP PUSH2 0x5B26 DUP3 PUSH2 0x6CCE JUMP JUMPDEST PUSH1 0x20 DUP3 ADD SWAP1 POP SWAP2 SWAP1 POP JUMP JUMPDEST PUSH1 0x0 PUSH2 0x5B3E PUSH1 0x2F DUP4 PUSH2 0x6411 JUMP JUMPDEST SWAP2 POP PUSH2 0x5B49 DUP3 PUSH2 0x6CF7 JUMP JUMPDEST PUSH1 0x40 DUP3 ADD SWAP1 POP SWAP2 SWAP1 POP JUMP JUMPDEST PUSH1 0x0 PUSH2 0x5B61 PUSH1 0x20 DUP4 PUSH2 0x6411 JUMP JUMPDEST SWAP2 POP PUSH2 0x5B6C DUP3 PUSH2 0x6D46 JUMP JUMPDEST PUSH1 0x20 DUP3 ADD SWAP1 POP SWAP2 SWAP1 POP JUMP JUMPDEST PUSH1 0x0 PUSH2 0x5B84 PUSH1 0x19 DUP4 PUSH2 0x6411 JUMP JUMPDEST SWAP2 POP PUSH2 0x5B8F DUP3 PUSH2 0x6D6F JUMP JUMPDEST PUSH1 0x20 DUP3 ADD SWAP1 POP SWAP2 SWAP1 POP JUMP JUMPDEST PUSH1 0x0 PUSH2 0x5BA7 PUSH1 0xE DUP4 PUSH2 0x6411 JUMP JUMPDEST SWAP2 POP PUSH2 0x5BB2 DUP3 PUSH2 0x6D98 JUMP JUMPDEST PUSH1 0x20 DUP3 ADD SWAP1 POP SWAP2 SWAP1 POP JUMP JUMPDEST PUSH1 0x0 PUSH2 0x5BCA PUSH1 0x0 DUP4 PUSH2 0x6400 JUMP JUMPDEST SWAP2 POP PUSH2 0x5BD5 DUP3 PUSH2 0x6DC1 JUMP JUMPDEST PUSH1 0x0 DUP3 ADD SWAP1 POP SWAP2 SWAP1 POP JUMP JUMPDEST PUSH1 0x0 PUSH2 0x5BED PUSH1 0x1C DUP4 PUSH2 0x6411 JUMP JUMPDEST SWAP2 POP PUSH2 0x5BF8 DUP3 PUSH2 0x6DC4 JUMP JUMPDEST PUSH1 0x20 DUP3 ADD SWAP1 POP SWAP2 SWAP1 POP JUMP JUMPDEST PUSH1 0x0 PUSH2 0x5C10 PUSH1 0x2B DUP4 PUSH2 0x6411 JUMP JUMPDEST SWAP2 POP PUSH2 0x5C1B DUP3 PUSH2 0x6DED JUMP JUMPDEST PUSH1 0x40 DUP3 ADD SWAP1 POP SWAP2 SWAP1 POP JUMP JUMPDEST PUSH1 0x0 PUSH2 0x5C33 PUSH1 0x24 DUP4 PUSH2 0x6411 JUMP JUMPDEST SWAP2 POP PUSH2 0x5C3E DUP3 PUSH2 0x6E3C JUMP JUMPDEST PUSH1 0x40 DUP3 ADD SWAP1 POP SWAP2 SWAP1 POP JUMP JUMPDEST PUSH1 0x0 PUSH2 0x5C56 PUSH1 0x1F DUP4 PUSH2 0x6411 JUMP JUMPDEST SWAP2 POP PUSH2 0x5C61 DUP3 PUSH2 0x6E8B JUMP JUMPDEST PUSH1 0x20 DUP3 ADD SWAP1 POP SWAP2 SWAP1 POP JUMP JUMPDEST PUSH1 0x0 PUSH2 0x5C79 PUSH1 0x1B DUP4 PUSH2 0x6411 JUMP JUMPDEST SWAP2 POP PUSH2 0x5C84 DUP3 PUSH2 0x6EB4 JUMP JUMPDEST PUSH1 0x20 DUP3 ADD SWAP1 POP SWAP2 SWAP1 POP JUMP JUMPDEST PUSH1 0x0 PUSH2 0x5C9C PUSH1 0x9 DUP4 PUSH2 0x6411 JUMP JUMPDEST SWAP2 POP PUSH2 0x5CA7 DUP3 PUSH2 0x6EDD JUMP JUMPDEST PUSH1 0x20 DUP3 ADD SWAP1 POP SWAP2 SWAP1 POP JUMP JUMPDEST PUSH2 0x5CBB DUP2 PUSH2 0x65DB JUMP JUMPDEST DUP3 MSTORE POP POP JUMP JUMPDEST PUSH2 0x5CCA DUP2 PUSH2 0x65DB JUMP JUMPDEST DUP3 MSTORE POP POP JUMP JUMPDEST PUSH2 0x5CD9 DUP2 PUSH2 0x65E5 JUMP JUMPDEST DUP3 MSTORE POP POP JUMP JUMPDEST PUSH1 0x0 PUSH2 0x5CEB DUP3 DUP6 PUSH2 0x568B JUMP JUMPDEST PUSH1 0x14 DUP3 ADD SWAP2 POP PUSH2 0x5CFB DUP3 DUP5 PUSH2 0x568B JUMP JUMPDEST PUSH1 0x14 DUP3 ADD SWAP2 POP DUP2 SWAP1 POP SWAP4 SWAP3 POP POP POP JUMP JUMPDEST PUSH1 0x0 PUSH2 0x5D17 DUP3 DUP6 PUSH2 0x57C5 JUMP JUMPDEST SWAP2 POP PUSH2 0x5D23 DUP3 DUP5 PUSH2 0x57C5 JUMP JUMPDEST SWAP2 POP PUSH2 0x5D2E DUP3 PUSH2 0x5AC8 JUMP JUMPDEST SWAP2 POP DUP2 SWAP1 POP SWAP4 SWAP3 POP POP POP JUMP JUMPDEST PUSH1 0x0 PUSH2 0x5D46 DUP3 DUP6 PUSH2 0x57F6 JUMP JUMPDEST SWAP2 POP PUSH2 0x5D52 DUP3 DUP5 PUSH2 0x57C5 JUMP JUMPDEST SWAP2 POP PUSH2 0x5D5D DUP3 PUSH2 0x5AC8 JUMP JUMPDEST SWAP2 POP DUP2 SWAP1 POP SWAP4 SWAP3 POP POP POP JUMP JUMPDEST PUSH1 0x0 PUSH2 0x5D74 DUP3 PUSH2 0x5901 JUMP JUMPDEST SWAP2 POP PUSH2 0x5D80 DUP3 DUP5 PUSH2 0x571E JUMP JUMPDEST PUSH1 0x20 DUP3 ADD SWAP2 POP DUP2 SWAP1 POP SWAP3 SWAP2 POP POP JUMP JUMPDEST PUSH1 0x0 PUSH1 0x20 DUP3 ADD SWAP1 POP PUSH2 0x5DA4 PUSH1 0x0 DUP4 ADD DUP5 PUSH2 0x567C JUMP JUMPDEST SWAP3 SWAP2 POP POP JUMP JUMPDEST PUSH1 0x0 PUSH1 0x80 DUP3 ADD SWAP1 POP PUSH2 0x5DBF PUSH1 0x0 DUP4 ADD DUP8 PUSH2 0x567C JUMP JUMPDEST PUSH2 0x5DCC PUSH1 0x20 DUP4 ADD DUP7 PUSH2 0x567C JUMP JUMPDEST PUSH2 0x5DD9 PUSH1 0x40 DUP4 ADD DUP6 PUSH2 0x5CC1 JUMP JUMPDEST DUP2 DUP2 SUB PUSH1 0x60 DUP4 ADD MSTORE PUSH2 0x5DEB DUP2 DUP5 PUSH2 0x5735 JUMP JUMPDEST SWAP1 POP SWAP6 SWAP5 POP POP POP POP POP JUMP JUMPDEST PUSH1 0x0 PUSH1 0x80 DUP3 ADD SWAP1 POP PUSH2 0x5E0B PUSH1 0x0 DUP4 ADD DUP7 PUSH2 0x567C JUMP JUMPDEST PUSH2 0x5E18 PUSH1 0x20 DUP4 ADD DUP6 PUSH2 0x5CC1 JUMP JUMPDEST PUSH2 0x5E25 PUSH1 0x40 DUP4 ADD DUP5 PUSH2 0x5CC1 JUMP JUMPDEST DUP2 DUP2 SUB PUSH1 0x60 DUP4 ADD MSTORE PUSH2 0x5E36 DUP2 PUSH2 0x5BBD JUMP JUMPDEST SWAP1 POP SWAP5 SWAP4 POP POP POP POP JUMP JUMPDEST PUSH1 0x0 PUSH1 0x20 DUP3 ADD SWAP1 POP DUP2 DUP2 SUB PUSH1 0x0 DUP4 ADD MSTORE PUSH2 0x5E5A DUP2 DUP5 PUSH2 0x56A2 JUMP JUMPDEST SWAP1 POP SWAP3 SWAP2 POP POP JUMP JUMPDEST PUSH1 0x0 PUSH1 0x20 DUP3 ADD SWAP1 POP PUSH2 0x5E77 PUSH1 0x0 DUP4 ADD DUP5 PUSH2 0x5700 JUMP JUMPDEST SWAP3 SWAP2 POP POP JUMP JUMPDEST PUSH1 0x0 PUSH1 0x80 DUP3 ADD SWAP1 POP PUSH2 0x5E92 PUSH1 0x0 DUP4 ADD DUP8 PUSH2 0x570F JUMP JUMPDEST PUSH2 0x5E9F PUSH1 0x20 DUP4 ADD DUP7 PUSH2 0x5CD0 JUMP JUMPDEST PUSH2 0x5EAC PUSH1 0x40 DUP4 ADD DUP6 PUSH2 0x570F JUMP JUMPDEST PUSH2 0x5EB9 PUSH1 0x60 DUP4 ADD DUP5 PUSH2 0x570F JUMP JUMPDEST SWAP6 SWAP5 POP POP POP POP POP JUMP JUMPDEST PUSH1 0x0 PUSH1 0x20 DUP3 ADD SWAP1 POP PUSH2 0x5ED7 PUSH1 0x0 DUP4 ADD DUP5 PUSH2 0x576E JUMP JUMPDEST SWAP3 SWAP2 POP POP JUMP JUMPDEST PUSH1 0x0 PUSH1 0x20 DUP3 ADD SWAP1 POP PUSH2 0x5EF2 PUSH1 0x0 DUP4 ADD DUP5 PUSH2 0x577D JUMP JUMPDEST SWAP3 SWAP2 POP POP JUMP JUMPDEST PUSH1 0x0 PUSH1 0x20 DUP3 ADD SWAP1 POP DUP2 DUP2 SUB PUSH1 0x0 DUP4 ADD MSTORE PUSH2 0x5F12 DUP2 DUP5 PUSH2 0x578C JUMP JUMPDEST SWAP1 POP SWAP3 SWAP2 POP POP JUMP JUMPDEST PUSH1 0x0 PUSH1 0x20 DUP3 ADD SWAP1 POP DUP2 DUP2 SUB PUSH1 0x0 DUP4 ADD MSTORE PUSH2 0x5F33 DUP2 PUSH2 0x5875 JUMP JUMPDEST SWAP1 POP SWAP2 SWAP1 POP JUMP JUMPDEST PUSH1 0x0 PUSH1 0x20 DUP3 ADD SWAP1 POP DUP2 DUP2 SUB PUSH1 0x0 DUP4 ADD MSTORE PUSH2 0x5F53 DUP2 PUSH2 0x5898 JUMP JUMPDEST SWAP1 POP SWAP2 SWAP1 POP JUMP JUMPDEST PUSH1 0x0 PUSH1 0x20 DUP3 ADD SWAP1 POP DUP2 DUP2 SUB PUSH1 0x0 DUP4 ADD MSTORE PUSH2 0x5F73 DUP2 PUSH2 0x58BB JUMP JUMPDEST SWAP1 POP SWAP2 SWAP1 POP JUMP JUMPDEST PUSH1 0x0 PUSH1 0x20 DUP3 ADD SWAP1 POP DUP2 DUP2 SUB PUSH1 0x0 DUP4 ADD MSTORE PUSH2 0x5F93 DUP2 PUSH2 0x58DE JUMP JUMPDEST SWAP1 POP SWAP2 SWAP1 POP JUMP JUMPDEST PUSH1 0x0 PUSH1 0x20 DUP3 ADD SWAP1 POP DUP2 DUP2 SUB PUSH1 0x0 DUP4 ADD MSTORE PUSH2 0x5FB3 DUP2 PUSH2 0x5924 JUMP JUMPDEST SWAP1 POP SWAP2 SWAP1 POP JUMP JUMPDEST PUSH1 0x0 PUSH1 0x20 DUP3 ADD SWAP1 POP DUP2 DUP2 SUB PUSH1 0x0 DUP4 ADD MSTORE PUSH2 0x5FD3 DUP2 PUSH2 0x5947 JUMP JUMPDEST SWAP1 POP SWAP2 SWAP1 POP JUMP JUMPDEST PUSH1 0x0 PUSH1 0x20 DUP3 ADD SWAP1 POP DUP2 DUP2 SUB PUSH1 0x0 DUP4 ADD MSTORE PUSH2 0x5FF3 DUP2 PUSH2 0x596A JUMP JUMPDEST SWAP1 POP SWAP2 SWAP1 POP JUMP JUMPDEST PUSH1 0x0 PUSH1 0x20 DUP3 ADD SWAP1 POP DUP2 DUP2 SUB PUSH1 0x0 DUP4 ADD MSTORE PUSH2 0x6013 DUP2 PUSH2 0x598D JUMP JUMPDEST SWAP1 POP SWAP2 SWAP1 POP JUMP JUMPDEST PUSH1 0x0 PUSH1 0x20 DUP3 ADD SWAP1 POP DUP2 DUP2 SUB PUSH1 0x0 DUP4 ADD MSTORE PUSH2 0x6033 DUP2 PUSH2 0x59B0 JUMP JUMPDEST SWAP1 POP SWAP2 SWAP1 POP JUMP JUMPDEST PUSH1 0x0 PUSH1 0x20 DUP3 ADD SWAP1 POP DUP2 DUP2 SUB PUSH1 0x0 DUP4 ADD MSTORE PUSH2 0x6053 DUP2 PUSH2 0x59D3 JUMP JUMPDEST SWAP1 POP SWAP2 SWAP1 POP JUMP JUMPDEST PUSH1 0x0 PUSH1 0x20 DUP3 ADD SWAP1 POP DUP2 DUP2 SUB PUSH1 0x0 DUP4 ADD MSTORE PUSH2 0x6073 DUP2 PUSH2 0x59F6 JUMP JUMPDEST SWAP1 POP SWAP2 SWAP1 POP JUMP JUMPDEST PUSH1 0x0 PUSH1 0x20 DUP3 ADD SWAP1 POP DUP2 DUP2 SUB PUSH1 0x0 DUP4 ADD MSTORE PUSH2 0x6093 DUP2 PUSH2 0x5A19 JUMP JUMPDEST SWAP1 POP SWAP2 SWAP1 POP JUMP JUMPDEST PUSH1 0x0 PUSH1 0x20 DUP3 ADD SWAP1 POP DUP2 DUP2 SUB PUSH1 0x0 DUP4 ADD MSTORE PUSH2 0x60B3 DUP2 PUSH2 0x5A3C JUMP JUMPDEST SWAP1 POP SWAP2 SWAP1 POP JUMP JUMPDEST PUSH1 0x0 PUSH1 0x20 DUP3 ADD SWAP1 POP DUP2 DUP2 SUB PUSH1 0x0 DUP4 ADD MSTORE PUSH2 0x60D3 DUP2 PUSH2 0x5A5F JUMP JUMPDEST SWAP1 POP SWAP2 SWAP1 POP JUMP JUMPDEST PUSH1 0x0 PUSH1 0x20 DUP3 ADD SWAP1 POP DUP2 DUP2 SUB PUSH1 0x0 DUP4 ADD MSTORE PUSH2 0x60F3 DUP2 PUSH2 0x5A82 JUMP JUMPDEST SWAP1 POP SWAP2 SWAP1 POP JUMP JUMPDEST PUSH1 0x0 PUSH1 0x20 DUP3 ADD SWAP1 POP DUP2 DUP2 SUB PUSH1 0x0 DUP4 ADD MSTORE PUSH2 0x6113 DUP2 PUSH2 0x5AA5 JUMP JUMPDEST SWAP1 POP SWAP2 SWAP1 POP JUMP JUMPDEST PUSH1 0x0 PUSH1 0x20 DUP3 ADD SWAP1 POP DUP2 DUP2 SUB PUSH1 0x0 DUP4 ADD MSTORE PUSH2 0x6133 DUP2 PUSH2 0x5AEB JUMP JUMPDEST SWAP1 POP SWAP2 SWAP1 POP JUMP JUMPDEST PUSH1 0x0 PUSH1 0x20 DUP3 ADD SWAP1 POP DUP2 DUP2 SUB PUSH1 0x0 DUP4 ADD MSTORE PUSH2 0x6153 DUP2 PUSH2 0x5B0E JUMP JUMPDEST SWAP1 POP SWAP2 SWAP1 POP JUMP JUMPDEST PUSH1 0x0 PUSH1 0x20 DUP3 ADD SWAP1 POP DUP2 DUP2 SUB PUSH1 0x0 DUP4 ADD MSTORE PUSH2 0x6173 DUP2 PUSH2 0x5B31 JUMP JUMPDEST SWAP1 POP SWAP2 SWAP1 POP JUMP JUMPDEST PUSH1 0x0 PUSH1 0x20 DUP3 ADD SWAP1 POP DUP2 DUP2 SUB PUSH1 0x0 DUP4 ADD MSTORE PUSH2 0x6193 DUP2 PUSH2 0x5B54 JUMP JUMPDEST SWAP1 POP SWAP2 SWAP1 POP JUMP JUMPDEST PUSH1 0x0 PUSH1 0x20 DUP3 ADD SWAP1 POP DUP2 DUP2 SUB PUSH1 0x0 DUP4 ADD MSTORE PUSH2 0x61B3 DUP2 PUSH2 0x5B77 JUMP JUMPDEST SWAP1 POP SWAP2 SWAP1 POP JUMP JUMPDEST PUSH1 0x0 PUSH1 0x20 DUP3 ADD SWAP1 POP DUP2 DUP2 SUB PUSH1 0x0 DUP4 ADD MSTORE PUSH2 0x61D3 DUP2 PUSH2 0x5B9A JUMP JUMPDEST SWAP1 POP SWAP2 SWAP1 POP JUMP JUMPDEST PUSH1 0x0 PUSH1 0x20 DUP3 ADD SWAP1 POP DUP2 DUP2 SUB PUSH1 0x0 DUP4 ADD MSTORE PUSH2 0x61F3 DUP2 PUSH2 0x5BE0 JUMP JUMPDEST SWAP1 POP SWAP2 SWAP1 POP JUMP JUMPDEST PUSH1 0x0 PUSH1 0x20 DUP3 ADD SWAP1 POP DUP2 DUP2 SUB PUSH1 0x0 DUP4 ADD MSTORE PUSH2 0x6213 DUP2 PUSH2 0x5C03 JUMP JUMPDEST SWAP1 POP SWAP2 SWAP1 POP JUMP JUMPDEST PUSH1 0x0 PUSH1 0x20 DUP3 ADD SWAP1 POP DUP2 DUP2 SUB PUSH1 0x0 DUP4 ADD MSTORE PUSH2 0x6233 DUP2 PUSH2 0x5C26 JUMP JUMPDEST SWAP1 POP SWAP2 SWAP1 POP JUMP JUMPDEST PUSH1 0x0 PUSH1 0x20 DUP3 ADD SWAP1 POP DUP2 DUP2 SUB PUSH1 0x0 DUP4 ADD MSTORE PUSH2 0x6253 DUP2 PUSH2 0x5C49 JUMP JUMPDEST SWAP1 POP SWAP2 SWAP1 POP JUMP JUMPDEST PUSH1 0x0 PUSH1 0x20 DUP3 ADD SWAP1 POP DUP2 DUP2 SUB PUSH1 0x0 DUP4 ADD MSTORE PUSH2 0x6273 DUP2 PUSH2 0x5C6C JUMP JUMPDEST SWAP1 POP SWAP2 SWAP1 POP JUMP JUMPDEST PUSH1 0x0 PUSH1 0x20 DUP3 ADD SWAP1 POP DUP2 DUP2 SUB PUSH1 0x0 DUP4 ADD MSTORE PUSH2 0x6293 DUP2 PUSH2 0x5C8F JUMP JUMPDEST SWAP1 POP SWAP2 SWAP1 POP JUMP JUMPDEST PUSH1 0x0 PUSH1 0x20 DUP3 ADD SWAP1 POP PUSH2 0x62AF PUSH1 0x0 DUP4 ADD DUP5 PUSH2 0x5CC1 JUMP JUMPDEST SWAP3 SWAP2 POP POP JUMP JUMPDEST PUSH1 0x0 PUSH1 0x40 DUP3 ADD SWAP1 POP PUSH2 0x62CA PUSH1 0x0 DUP4 ADD DUP6 PUSH2 0x5CC1 JUMP JUMPDEST PUSH2 0x62D7 PUSH1 0x20 DUP4 ADD DUP5 PUSH2 0x5CC1 JUMP JUMPDEST SWAP4 SWAP3 POP POP POP JUMP JUMPDEST PUSH1 0x0 PUSH1 0x60 DUP3 ADD SWAP1 POP PUSH2 0x62F3 PUSH1 0x0 DUP4 ADD DUP7 PUSH2 0x5CC1 JUMP JUMPDEST PUSH2 0x6300 PUSH1 0x20 DUP4 ADD DUP6 PUSH2 0x5CC1 JUMP JUMPDEST PUSH2 0x630D PUSH1 0x40 DUP4 ADD DUP5 PUSH2 0x567C JUMP JUMPDEST SWAP5 SWAP4 POP POP POP POP JUMP JUMPDEST PUSH1 0x0 PUSH2 0x631F PUSH2 0x6330 JUMP JUMPDEST SWAP1 POP PUSH2 0x632B DUP3 DUP3 PUSH2 0x668A JUMP JUMPDEST SWAP2 SWAP1 POP JUMP JUMPDEST PUSH1 0x0 PUSH1 0x40 MLOAD SWAP1 POP SWAP1 JUMP JUMPDEST PUSH1 0x0 PUSH8 0xFFFFFFFFFFFFFFFF DUP3 GT ISZERO PUSH2 0x6355 JUMPI PUSH2 0x6354 PUSH2 0x684E JUMP JUMPDEST JUMPDEST PUSH2 0x635E DUP3 PUSH2 0x689B JUMP JUMPDEST SWAP1 POP PUSH1 0x20 DUP2 ADD SWAP1 POP SWAP2 SWAP1 POP JUMP JUMPDEST PUSH1 0x0 PUSH8 0xFFFFFFFFFFFFFFFF DUP3 GT ISZERO PUSH2 0x6386 JUMPI PUSH2 0x6385 PUSH2 0x684E JUMP JUMPDEST JUMPDEST PUSH2 0x638F DUP3 PUSH2 0x689B JUMP JUMPDEST SWAP1 POP PUSH1 0x20 DUP2 ADD SWAP1 POP SWAP2 SWAP1 POP JUMP JUMPDEST PUSH1 0x0 DUP2 SWAP1 POP PUSH1 0x20 DUP3 ADD SWAP1 POP SWAP2 SWAP1 POP JUMP JUMPDEST PUSH1 0x0 DUP2 SWAP1 POP DUP2 PUSH1 0x0 MSTORE PUSH1 0x20 PUSH1 0x0 KECCAK256 SWAP1 POP SWAP2 SWAP1 POP JUMP JUMPDEST PUSH1 0x0 DUP2 MLOAD SWAP1 POP SWAP2 SWAP1 POP JUMP JUMPDEST PUSH1 0x0 DUP2 MLOAD SWAP1 POP SWAP2 SWAP1 POP JUMP JUMPDEST PUSH1 0x0 DUP2 MLOAD SWAP1 POP SWAP2 SWAP1 POP JUMP JUMPDEST PUSH1 0x0 PUSH1 0x20 DUP3 ADD SWAP1 POP SWAP2 SWAP1 POP JUMP JUMPDEST PUSH1 0x0 DUP3 DUP3 MSTORE PUSH1 0x20 DUP3 ADD SWAP1 POP SWAP3 SWAP2 POP POP JUMP JUMPDEST PUSH1 0x0 DUP3 DUP3 MSTORE PUSH1 0x20 DUP3 ADD SWAP1 POP SWAP3 SWAP2 POP POP JUMP JUMPDEST PUSH1 0x0 DUP3 DUP3 MSTORE PUSH1 0x20 DUP3 ADD SWAP1 POP SWAP3 SWAP2 POP POP JUMP JUMPDEST PUSH1 0x0 DUP2 SWAP1 POP SWAP3 SWAP2 POP POP JUMP JUMPDEST PUSH1 0x0 PUSH2 0x6438 DUP3 PUSH2 0x65DB JUMP JUMPDEST SWAP2 POP PUSH2 0x6443 DUP4 PUSH2 0x65DB JUMP JUMPDEST SWAP3 POP DUP3 PUSH32 0xFFFFFFFFFFFFFFFFFFFFFFFFFFFFFFFFFFFFFFFFFFFFFFFFFFFFFFFFFFFFFFFF SUB DUP3 GT ISZERO PUSH2 0x6478 JUMPI PUSH2 0x6477 PUSH2 0x6763 JUMP JUMPDEST JUMPDEST DUP3 DUP3 ADD SWAP1 POP SWAP3 SWAP2 POP POP JUMP JUMPDEST PUSH1 0x0 PUSH2 0x648E DUP3 PUSH2 0x65DB JUMP JUMPDEST SWAP2 POP PUSH2 0x6499 DUP4 PUSH2 0x65DB JUMP JUMPDEST SWAP3 POP DUP3 PUSH2 0x64A9 JUMPI PUSH2 0x64A8 PUSH2 0x6792 JUMP JUMPDEST JUMPDEST DUP3 DUP3 DIV SWAP1 POP SWAP3 SWAP2 POP POP JUMP JUMPDEST PUSH1 0x0 PUSH2 0x64BF DUP3 PUSH2 0x65DB JUMP JUMPDEST SWAP2 POP PUSH2 0x64CA DUP4 PUSH2 0x65DB JUMP JUMPDEST SWAP3 POP DUP2 PUSH32 0xFFFFFFFFFFFFFFFFFFFFFFFFFFFFFFFFFFFFFFFFFFFFFFFFFFFFFFFFFFFFFFFF DIV DUP4 GT DUP3 ISZERO ISZERO AND ISZERO PUSH2 0x6503 JUMPI PUSH2 0x6502 PUSH2 0x6763 JUMP JUMPDEST JUMPDEST DUP3 DUP3 MUL SWAP1 POP SWAP3 SWAP2 POP POP JUMP JUMPDEST PUSH1 0x0 PUSH2 0x6519 DUP3 PUSH2 0x65DB JUMP JUMPDEST SWAP2 POP PUSH2 0x6524 DUP4 PUSH2 0x65DB JUMP JUMPDEST SWAP3 POP DUP3 DUP3 LT ISZERO PUSH2 0x6537 JUMPI PUSH2 0x6536 PUSH2 0x6763 JUMP JUMPDEST JUMPDEST DUP3 DUP3 SUB SWAP1 POP SWAP3 SWAP2 POP POP JUMP JUMPDEST PUSH1 0x0 PUSH2 0x654D DUP3 PUSH2 0x65BB JUMP JUMPDEST SWAP1 POP SWAP2 SWAP1 POP JUMP JUMPDEST PUSH1 0x0 DUP2 ISZERO ISZERO SWAP1 POP SWAP2 SWAP1 POP JUMP JUMPDEST PUSH1 0x0 DUP2 SWAP1 POP SWAP2 SWAP1 POP JUMP JUMPDEST PUSH1 0x0 PUSH32 0xFFFFFFFF00000000000000000000000000000000000000000000000000000000 DUP3 AND SWAP1 POP SWAP2 SWAP1 POP JUMP JUMPDEST PUSH1 0x0 PUSH2 0x65A1 DUP3 PUSH2 0x6542 JUMP JUMPDEST SWAP1 POP SWAP2 SWAP1 POP JUMP JUMPDEST PUSH1 0x0 DUP2 SWAP1 POP PUSH2 0x65B6 DUP3 PUSH2 0x6F06 JUMP JUMPDEST SWAP2 SWAP1 POP JUMP JUMPDEST PUSH1 0x0 PUSH20 0xFFFFFFFFFFFFFFFFFFFFFFFFFFFFFFFFFFFFFFFF DUP3 AND SWAP1 POP SWAP2 SWAP1 POP JUMP JUMPDEST PUSH1 0x0 DUP2 SWAP1 POP SWAP2 SWAP1 POP JUMP JUMPDEST PUSH1 0x0 PUSH1 0xFF DUP3 AND SWAP1 POP SWAP2 SWAP1 POP JUMP JUMPDEST PUSH1 0x0 PUSH2 0x65FD DUP3 PUSH2 0x65A8 JUMP JUMPDEST SWAP1 POP SWAP2 SWAP1 POP JUMP JUMPDEST PUSH1 0x0 PUSH2 0x660F DUP3 PUSH2 0x65E5 JUMP JUMPDEST SWAP1 POP SWAP2 SWAP1 POP JUMP JUMPDEST DUP3 DUP2 DUP4 CALLDATACOPY PUSH1 0x0 DUP4 DUP4 ADD MSTORE POP POP POP JUMP JUMPDEST PUSH1 0x0 JUMPDEST DUP4 DUP2 LT ISZERO PUSH2 0x6643 JUMPI DUP1 DUP3 ADD MLOAD DUP2 DUP5 ADD MSTORE PUSH1 0x20 DUP2 ADD SWAP1 POP PUSH2 0x6628 JUMP JUMPDEST DUP4 DUP2 GT ISZERO PUSH2 0x6652 JUMPI PUSH1 0x0 DUP5 DUP5 ADD MSTORE JUMPDEST POP POP POP POP JUMP JUMPDEST PUSH1 0x0 PUSH1 0x2 DUP3 DIV SWAP1 POP PUSH1 0x1 DUP3 AND DUP1 PUSH2 0x6670 JUMPI PUSH1 0x7F DUP3 AND SWAP2 POP JUMPDEST PUSH1 0x20 DUP3 LT DUP2 EQ ISZERO PUSH2 0x6684 JUMPI PUSH2 0x6683 PUSH2 0x67F0 JUMP JUMPDEST JUMPDEST POP SWAP2 SWAP1 POP JUMP JUMPDEST PUSH2 0x6693 DUP3 PUSH2 0x689B JUMP JUMPDEST DUP2 ADD DUP2 DUP2 LT PUSH8 0xFFFFFFFFFFFFFFFF DUP3 GT OR ISZERO PUSH2 0x66B2 JUMPI PUSH2 0x66B1 PUSH2 0x684E JUMP JUMPDEST JUMPDEST DUP1 PUSH1 0x40 MSTORE POP POP POP JUMP JUMPDEST PUSH1 0x0 PUSH2 0x66C6 DUP3 PUSH2 0x65DB JUMP JUMPDEST SWAP2 POP PUSH32 0xFFFFFFFFFFFFFFFFFFFFFFFFFFFFFFFFFFFFFFFFFFFFFFFFFFFFFFFFFFFFFFFF DUP3 EQ ISZERO PUSH2 0x66F9 JUMPI PUSH2 0x66F8 PUSH2 0x6763 JUMP JUMPDEST JUMPDEST PUSH1 0x1 DUP3 ADD SWAP1 POP SWAP2 SWAP1 POP JUMP JUMPDEST PUSH1 0x0 PUSH2 0x670F DUP3 PUSH2 0x6720 JUMP JUMPDEST SWAP1 POP SWAP2 SWAP1 POP JUMP JUMPDEST PUSH1 0x0 DUP2 SWAP1 POP SWAP2 SWAP1 POP JUMP JUMPDEST PUSH1 0x0 PUSH2 0x672B DUP3 PUSH2 0x68AC JUMP JUMPDEST SWAP1 POP SWAP2 SWAP1 POP JUMP JUMPDEST PUSH1 0x0 PUSH2 0x673D DUP3 PUSH2 0x65DB JUMP JUMPDEST SWAP2 POP PUSH2 0x6748 DUP4 PUSH2 0x65DB JUMP JUMPDEST SWAP3 POP DUP3 PUSH2 0x6758 JUMPI PUSH2 0x6757 PUSH2 0x6792 JUMP JUMPDEST JUMPDEST DUP3 DUP3 MOD SWAP1 POP SWAP3 SWAP2 POP POP JUMP JUMPDEST PUSH32 0x4E487B7100000000000000000000000000000000000000000000000000000000 PUSH1 0x0 MSTORE PUSH1 0x11 PUSH1 0x4 MSTORE PUSH1 0x24 PUSH1 0x0 REVERT JUMPDEST PUSH32 0x4E487B7100000000000000000000000000000000000000000000000000000000 PUSH1 0x0 MSTORE PUSH1 0x12 PUSH1 0x4 MSTORE PUSH1 0x24 PUSH1 0x0 REVERT JUMPDEST PUSH32 0x4E487B7100000000000000000000000000000000000000000000000000000000 PUSH1 0x0 MSTORE PUSH1 0x21 PUSH1 0x4 MSTORE PUSH1 0x24 PUSH1 0x0 REVERT JUMPDEST PUSH32 0x4E487B7100000000000000000000000000000000000000000000000000000000 PUSH1 0x0 MSTORE PUSH1 0x22 PUSH1 0x4 MSTORE PUSH1 0x24 PUSH1 0x0 REVERT JUMPDEST PUSH32 0x4E487B7100000000000000000000000000000000000000000000000000000000 PUSH1 0x0 MSTORE PUSH1 0x32 PUSH1 0x4 MSTORE PUSH1 0x24 PUSH1 0x0 REVERT JUMPDEST PUSH32 0x4E487B7100000000000000000000000000000000000000000000000000000000 PUSH1 0x0 MSTORE PUSH1 0x41 PUSH1 0x4 MSTORE PUSH1 0x24 PUSH1 0x0 REVERT JUMPDEST PUSH1 0x0 DUP1 REVERT JUMPDEST PUSH1 0x0 DUP1 REVERT JUMPDEST PUSH1 0x0 DUP1 REVERT JUMPDEST PUSH1 0x0 DUP1 REVERT JUMPDEST PUSH1 0x0 DUP1 REVERT JUMPDEST PUSH1 0x0 DUP1 REVERT JUMPDEST PUSH1 0x0 PUSH1 0x1F NOT PUSH1 0x1F DUP4 ADD AND SWAP1 POP SWAP2 SWAP1 POP JUMP JUMPDEST PUSH1 0x0 DUP2 PUSH1 0x60 SHL SWAP1 POP SWAP2 SWAP1 POP JUMP JUMPDEST PUSH32 0x45434453413A20696E76616C6964207369676E61747572650000000000000000 PUSH1 0x0 DUP3 ADD MSTORE POP JUMP JUMPDEST PUSH32 0x5061757361626C653A206E6F7420706175736564000000000000000000000000 PUSH1 0x0 DUP3 ADD MSTORE POP JUMP JUMPDEST PUSH32 0x5369676E65722061646472657373206D69736D617463682E0000000000000000 PUSH1 0x0 DUP3 ADD MSTORE POP JUMP JUMPDEST PUSH32 0x45434453413A20696E76616C6964207369676E6174757265206C656E67746800 PUSH1 0x0 DUP3 ADD MSTORE POP JUMP JUMPDEST PUSH32 0x19457468657265756D205369676E6564204D6573736167653A0A333200000000 PUSH1 0x0 DUP3 ADD MSTORE POP JUMP JUMPDEST PUSH32 0x455243373231415F5F496E697469616C697A61626C653A20636F6E7472616374 PUSH1 0x0 DUP3 ADD MSTORE PUSH32 0x206973206E6F7420696E697469616C697A696E67000000000000000000000000 PUSH1 0x20 DUP3 ADD MSTORE POP JUMP JUMPDEST PUSH32 0x4F776E61626C653A206E6577206F776E657220697320746865207A65726F2061 PUSH1 0x0 DUP3 ADD MSTORE PUSH32 0x6464726573730000000000000000000000000000000000000000000000000000 PUSH1 0x20 DUP3 ADD MSTORE POP JUMP JUMPDEST PUSH32 0x596F752063616E2774206D696E74206D6F7265207468616E2058206E66747300 PUSH1 0x0 DUP3 ADD MSTORE POP JUMP JUMPDEST PUSH32 0x536F7272792C206E6F206E667473206C6566742E000000000000000000000000 PUSH1 0x0 DUP3 ADD MSTORE POP JUMP JUMPDEST PUSH32 0x4D6178204E4654206C696D697400000000000000000000000000000000000000 PUSH1 0x0 DUP3 ADD MSTORE POP JUMP JUMPDEST PUSH32 0x45434453413A20696E76616C6964207369676E6174757265202773272076616C PUSH1 0x0 DUP3 ADD MSTORE PUSH32 0x7565000000000000000000000000000000000000000000000000000000000000 PUSH1 0x20 DUP3 ADD MSTORE POP JUMP JUMPDEST PUSH32 0x5061757361626C653A2070617573656400000000000000000000000000000000 PUSH1 0x0 DUP3 ADD MSTORE POP JUMP JUMPDEST PUSH32 0x6E6F74206F776E65722063616E7420636C61696D207265776172640000000000 PUSH1 0x0 DUP3 ADD MSTORE POP JUMP JUMPDEST PUSH32 0x4E6F7420746865206F776E657200000000000000000000000000000000000000 PUSH1 0x0 DUP3 ADD MSTORE POP JUMP JUMPDEST PUSH32 0x496E697469616C697A61626C653A20636F6E747261637420697320616C726561 PUSH1 0x0 DUP3 ADD MSTORE PUSH32 0x647920696E697469616C697A6564000000000000000000000000000000000000 PUSH1 0x20 DUP3 ADD MSTORE POP JUMP JUMPDEST PUSH32 0x455243373231415F5F496E697469616C697A61626C653A20636F6E7472616374 PUSH1 0x0 DUP3 ADD MSTORE PUSH32 0x20697320616C726561647920696E697469616C697A6564000000000000000000 PUSH1 0x20 DUP3 ADD MSTORE POP JUMP JUMPDEST PUSH32 0x45434453413A20696E76616C6964207369676E6174757265202776272076616C PUSH1 0x0 DUP3 ADD MSTORE PUSH32 0x7565000000000000000000000000000000000000000000000000000000000000 PUSH1 0x20 DUP3 ADD MSTORE POP JUMP JUMPDEST PUSH32 0x2E6A736F6E000000000000000000000000000000000000000000000000000000 PUSH1 0x0 DUP3 ADD MSTORE POP JUMP JUMPDEST PUSH32 0x53616C6520697320616C6D6F737420646F6E6520616E6420776520646F6E2774 PUSH1 0x0 DUP3 ADD MSTORE PUSH32 0x206861766520656E6F75676874204E465473206C6566742E0000000000000000 PUSH1 0x20 DUP3 ADD MSTORE POP JUMP JUMPDEST PUSH32 0x4F776E61626C653A2063616C6C6572206973206E6F7420746865206F776E6572 PUSH1 0x0 DUP3 ADD MSTORE POP JUMP JUMPDEST PUSH32 0x4552433732314D657461646174613A2055524920717565727920666F72206E6F PUSH1 0x0 DUP3 ADD MSTORE PUSH32 0x6E6578697374656E7420746F6B656E0000000000000000000000000000000000 PUSH1 0x20 DUP3 ADD MSTORE POP JUMP JUMPDEST PUSH32 0x596F752063616E206368616E67652074686520757269206F6E6C79206F6E6365 PUSH1 0x0 DUP3 ADD MSTORE POP JUMP JUMPDEST PUSH32 0x53616C6520686173206E6F742073746172746564207965742E00000000000000 PUSH1 0x0 DUP3 ADD MSTORE POP JUMP JUMPDEST PUSH32 0x416C7265616479205374616B6564000000000000000000000000000000000000 PUSH1 0x0 DUP3 ADD MSTORE POP JUMP JUMPDEST POP JUMP JUMPDEST PUSH32 0x596F7520646F6E2774206861766520656E6F7567682066756E64732E00000000 PUSH1 0x0 DUP3 ADD MSTORE POP JUMP JUMPDEST PUSH32 0x496E697469616C697A61626C653A20636F6E7472616374206973206E6F742069 PUSH1 0x0 DUP3 ADD MSTORE PUSH32 0x6E697469616C697A696E67000000000000000000000000000000000000000000 PUSH1 0x20 DUP3 ADD MSTORE POP JUMP JUMPDEST PUSH32 0x57686974656C697374656453616C6520686173206E6F74207374617274656420 PUSH1 0x0 DUP3 ADD MSTORE PUSH32 0x7965742E00000000000000000000000000000000000000000000000000000000 PUSH1 0x20 DUP3 ADD MSTORE POP JUMP JUMPDEST PUSH32 0x5265656E7472616E637947756172643A207265656E7472616E742063616C6C00 PUSH1 0x0 DUP3 ADD MSTORE POP JUMP JUMPDEST PUSH32 0x4E65656420746F206D696E74206174206C656173742031204E46540000000000 PUSH1 0x0 DUP3 ADD MSTORE POP JUMP JUMPDEST PUSH32 0x6E6F74206F776E65720000000000000000000000000000000000000000000000 PUSH1 0x0 DUP3 ADD MSTORE POP JUMP JUMPDEST PUSH1 0x5 DUP2 LT PUSH2 0x6F17 JUMPI PUSH2 0x6F16 PUSH2 0x67C1 JUMP JUMPDEST JUMPDEST POP JUMP JUMPDEST PUSH2 0x6F23 DUP2 PUSH2 0x6542 JUMP JUMPDEST DUP2 EQ PUSH2 0x6F2E JUMPI PUSH1 0x0 DUP1 REVERT JUMPDEST POP JUMP JUMPDEST PUSH2 0x6F3A DUP2 PUSH2 0x6554 JUMP JUMPDEST DUP2 EQ PUSH2 0x6F45 JUMPI PUSH1 0x0 DUP1 REVERT JUMPDEST POP JUMP JUMPDEST PUSH2 0x6F51 DUP2 PUSH2 0x656A JUMP JUMPDEST DUP2 EQ PUSH2 0x6F5C JUMPI PUSH1 0x0 DUP1 REVERT JUMPDEST POP JUMP JUMPDEST PUSH2 0x6F68 DUP2 PUSH2 0x6596 JUMP JUMPDEST DUP2 EQ PUSH2 0x6F73 JUMPI PUSH1 0x0 DUP1 REVERT JUMPDEST POP JUMP JUMPDEST PUSH2 0x6F7F DUP2 PUSH2 0x65DB JUMP JUMPDEST DUP2 EQ PUSH2 0x6F8A JUMPI PUSH1 0x0 DUP1 REVERT JUMPDEST POP JUMP INVALID LOG2 PUSH5 0x6970667358 0x22 SLT KECCAK256 ADD KECCAK256 0xB8 ADD LT 0xA8 PUSH2 0x4A30 DUP7 0x25 SWAP3 0xB1 SWAP11 PUSH11 0xAE1C97811573C61E5A4481 PUSH12 0x4535E12FDE64736F6C634300 ADDMOD SMOD STOP CALLER "
		},
		"gasEstimates": {
			"creation": {
				"codeDepositCost": "5722200",
				"executionCost": "6985",
				"totalCost": "5729185"
			},
			"external": {
				"MAX_SUPPLY_NFT()": "2498",
				"airdropNfts(address,uint256)": "infinite",
				"approve(address,uint256)": "infinite",
				"balanceOf(address)": "3050",
				"burnNft(uint256)": "infinite",
				"canChangeBaseURI()": "2610",
				"canChangeNotRevealURI()": "2587",
				"changePublicSaleNftPrice(uint256)": "24850",
				"changeWhitelisteSaleNftPrice(uint256)": "24828",
				"claim(uint256[])": "infinite",
				"getApproved(uint256)": "infinite",
				"getInitialTotalSupply()": "2504",
				"getPublicSaleNftPrice()": "2506",
				"getRewardAmount(address,uint256[])": "infinite",
				"getSignerRecovery(bytes)": "infinite",
				"getWhitelistSaleNftPrice()": "2505",
				"initialize(string,string,address)": "infinite",
				"isApprovedForAll(address,address)": "infinite",
				"isRevealed()": "2613",
				"launchPublicSale()": "29023",
				"launchWhitelistedSale()": "29023",
				"maxNftPurchase()": "2541",
				"name()": "infinite",
				"nftsPerWallet(address)": "2970",
				"nftsStaked(uint256)": "infinite",
				"owner()": "2634",
				"ownerOf(uint256)": "infinite",
				"pause()": "infinite",
				"paused()": "2569",
				"publicMintNft(uint256)": "infinite",
				"publicSaleNftPrice()": "2518",
				"renounceOwnership()": "30507",
				"reveal()": "53246",
				"revealed()": "2583",
				"safeTransferFrom(address,address,uint256)": "infinite",
				"safeTransferFrom(address,address,uint256,bytes)": "infinite",
				"sellingStep()": "2743",
				"setApprovalForAll(address,bool)": "infinite",
				"setBaseURI(string)": "infinite",
				"setNotRevealedURI(string)": "infinite",
				"stacking()": "2588",
				"stake(uint256[])": "infinite",
				"supportsInterface(bytes4)": "768",
				"symbol()": "infinite",
				"tokenStakedByOwner(address)": "infinite",
				"tokenURI(uint256)": "infinite",
				"totalStaked()": "2475",
				"totalSupply()": "infinite",
				"transferFrom(address,address,uint256)": "infinite",
				"transferOwnership(address)": "30855",
				"unpause()": "infinite",
				"unstake(uint256[])": "infinite",
				"whitelistMintNft(uint256,bytes)": "infinite",
				"whitelistSaleNftPrice()": "2563"
			},
			"internal": {
				"_baseURI()": "infinite",
				"_claim(address,uint256[] calldata,bool)": "infinite",
				"_unstakeMany(address,uint256[] calldata)": "infinite"
			}
		},
		"methodIdentifiers": {
			"MAX_SUPPLY_NFT()": "3f0c3135",
			"airdropNfts(address,uint256)": "3f355476",
			"approve(address,uint256)": "095ea7b3",
			"balanceOf(address)": "70a08231",
			"burnNft(uint256)": "3d5efefe",
			"canChangeBaseURI()": "a84894b8",
			"canChangeNotRevealURI()": "e631e346",
			"changePublicSaleNftPrice(uint256)": "2e8781e3",
			"changeWhitelisteSaleNftPrice(uint256)": "b0c07972",
			"claim(uint256[])": "6ba4c138",
			"getApproved(uint256)": "081812fc",
			"getInitialTotalSupply()": "6ae29de9",
			"getPublicSaleNftPrice()": "144b3cb8",
			"getRewardAmount(address,uint256[])": "4c7d857d",
			"getSignerRecovery(bytes)": "cc351d00",
			"getWhitelistSaleNftPrice()": "82698af2",
			"initialize(string,string,address)": "077f224a",
			"isApprovedForAll(address,address)": "e985e9c5",
			"isRevealed()": "54214f69",
			"launchPublicSale()": "cadd3e0c",
			"launchWhitelistedSale()": "aaee8813",
			"maxNftPurchase()": "bde708f4",
			"name()": "06fdde03",
			"nftsPerWallet(address)": "949fb49c",
			"nftsStaked(uint256)": "97c0ffbf",
			"owner()": "8da5cb5b",
			"ownerOf(uint256)": "6352211e",
			"pause()": "8456cb59",
			"paused()": "5c975abb",
			"publicMintNft(uint256)": "15b448f2",
			"publicSaleNftPrice()": "e3f34a3d",
			"renounceOwnership()": "715018a6",
			"reveal()": "a475b5dd",
			"revealed()": "51830227",
			"safeTransferFrom(address,address,uint256)": "42842e0e",
			"safeTransferFrom(address,address,uint256,bytes)": "b88d4fde",
			"sellingStep()": "cbccefb2",
			"setApprovalForAll(address,bool)": "a22cb465",
			"setBaseURI(string)": "55f804b3",
			"setNotRevealedURI(string)": "f2c4ce1e",
			"stacking()": "c62bfd8f",
			"stake(uint256[])": "0fbf0a93",
			"supportsInterface(bytes4)": "01ffc9a7",
			"symbol()": "95d89b41",
			"tokenStakedByOwner(address)": "ab5d2ce6",
			"tokenURI(uint256)": "c87b56dd",
			"totalStaked()": "817b1cd2",
			"totalSupply()": "18160ddd",
			"transferFrom(address,address,uint256)": "23b872dd",
			"transferOwnership(address)": "f2fde38b",
			"unpause()": "3f4ba83a",
			"unstake(uint256[])": "e449f341",
			"whitelistMintNft(uint256,bytes)": "32eae8a4",
			"whitelistSaleNftPrice()": "8f5e2e44"
		}
	},
	"abi": [
		{
			"inputs": [],
			"name": "ApprovalCallerNotOwnerNorApproved",
			"type": "error"
		},
		{
			"inputs": [],
			"name": "ApprovalQueryForNonexistentToken",
			"type": "error"
		},
		{
			"inputs": [],
			"name": "ApproveToCaller",
			"type": "error"
		},
		{
			"inputs": [],
			"name": "BalanceQueryForZeroAddress",
			"type": "error"
		},
		{
			"inputs": [],
			"name": "MintERC2309QuantityExceedsLimit",
			"type": "error"
		},
		{
			"inputs": [],
			"name": "MintToZeroAddress",
			"type": "error"
		},
		{
			"inputs": [],
			"name": "MintZeroQuantity",
			"type": "error"
		},
		{
			"inputs": [],
			"name": "OwnerQueryForNonexistentToken",
			"type": "error"
		},
		{
			"inputs": [],
			"name": "OwnershipNotInitializedForExtraData",
			"type": "error"
		},
		{
			"inputs": [],
			"name": "TransferCallerNotOwnerNorApproved",
			"type": "error"
		},
		{
			"inputs": [],
			"name": "TransferFromIncorrectOwner",
			"type": "error"
		},
		{
			"inputs": [],
			"name": "TransferToNonERC721ReceiverImplementer",
			"type": "error"
		},
		{
			"inputs": [],
			"name": "TransferToZeroAddress",
			"type": "error"
		},
		{
			"inputs": [],
			"name": "URIQueryForNonexistentToken",
			"type": "error"
		},
		{
			"anonymous": false,
			"inputs": [
				{
					"indexed": true,
					"internalType": "address",
					"name": "owner",
					"type": "address"
				},
				{
					"indexed": true,
					"internalType": "address",
					"name": "approved",
					"type": "address"
				},
				{
					"indexed": true,
					"internalType": "uint256",
					"name": "tokenId",
					"type": "uint256"
				}
			],
			"name": "Approval",
			"type": "event"
		},
		{
			"anonymous": false,
			"inputs": [
				{
					"indexed": true,
					"internalType": "address",
					"name": "owner",
					"type": "address"
				},
				{
					"indexed": true,
					"internalType": "address",
					"name": "operator",
					"type": "address"
				},
				{
					"indexed": false,
					"internalType": "bool",
					"name": "approved",
					"type": "bool"
				}
			],
			"name": "ApprovalForAll",
			"type": "event"
		},
		{
			"anonymous": false,
			"inputs": [
				{
					"indexed": true,
					"internalType": "address",
					"name": "owner",
					"type": "address"
				},
				{
					"indexed": false,
					"internalType": "uint256",
					"name": "amount",
					"type": "uint256"
				}
			],
			"name": "Claimed",
			"type": "event"
		},
		{
			"anonymous": false,
			"inputs": [
				{
					"indexed": true,
					"internalType": "uint256",
					"name": "fromTokenId",
					"type": "uint256"
				},
				{
					"indexed": false,
					"internalType": "uint256",
					"name": "toTokenId",
					"type": "uint256"
				},
				{
					"indexed": true,
					"internalType": "address",
					"name": "from",
					"type": "address"
				},
				{
					"indexed": true,
					"internalType": "address",
					"name": "to",
					"type": "address"
				}
			],
			"name": "ConsecutiveTransfer",
			"type": "event"
		},
		{
			"anonymous": false,
			"inputs": [
				{
					"indexed": false,
					"internalType": "uint8",
					"name": "version",
					"type": "uint8"
				}
			],
			"name": "Initialized",
			"type": "event"
		},
		{
			"anonymous": false,
			"inputs": [
				{
					"indexed": true,
					"internalType": "address",
					"name": "previousOwner",
					"type": "address"
				},
				{
					"indexed": true,
					"internalType": "address",
					"name": "newOwner",
					"type": "address"
				}
			],
			"name": "OwnershipTransferred",
			"type": "event"
		},
		{
			"anonymous": false,
			"inputs": [
				{
					"indexed": false,
					"internalType": "address",
					"name": "account",
					"type": "address"
				}
			],
			"name": "Paused",
			"type": "event"
		},
		{
			"anonymous": false,
			"inputs": [
				{
					"indexed": true,
					"internalType": "address",
					"name": "owner",
					"type": "address"
				},
				{
					"indexed": false,
					"internalType": "uint256",
					"name": "tokenId",
					"type": "uint256"
				},
				{
					"indexed": false,
					"internalType": "uint256",
					"name": "value",
					"type": "uint256"
				}
			],
			"name": "Staked",
			"type": "event"
		},
		{
			"anonymous": false,
			"inputs": [
				{
					"indexed": true,
					"internalType": "address",
					"name": "from",
					"type": "address"
				},
				{
					"indexed": true,
					"internalType": "address",
					"name": "to",
					"type": "address"
				},
				{
					"indexed": true,
					"internalType": "uint256",
					"name": "tokenId",
					"type": "uint256"
				}
			],
			"name": "Transfer",
			"type": "event"
		},
		{
			"anonymous": false,
			"inputs": [
				{
					"indexed": false,
					"internalType": "address",
					"name": "account",
					"type": "address"
				}
			],
			"name": "Unpaused",
			"type": "event"
		},
		{
			"anonymous": false,
			"inputs": [
				{
					"indexed": true,
					"internalType": "address",
					"name": "owner",
					"type": "address"
				},
				{
					"indexed": false,
					"internalType": "uint256",
					"name": "tokenId",
					"type": "uint256"
				},
				{
					"indexed": false,
					"internalType": "uint256",
					"name": "value",
					"type": "uint256"
				}
			],
			"name": "Unstaked",
			"type": "event"
		},
		{
			"inputs": [],
			"name": "MAX_SUPPLY_NFT",
			"outputs": [
				{
					"internalType": "uint256",
					"name": "",
					"type": "uint256"
				}
			],
			"stateMutability": "view",
			"type": "function"
		},
		{
			"inputs": [
				{
					"internalType": "address",
					"name": "_recipient",
					"type": "address"
				},
				{
					"internalType": "uint256",
					"name": "_mintAmount",
					"type": "uint256"
				}
			],
			"name": "airdropNfts",
			"outputs": [],
			"stateMutability": "payable",
			"type": "function"
		},
		{
			"inputs": [
				{
					"internalType": "address",
					"name": "to",
					"type": "address"
				},
				{
					"internalType": "uint256",
					"name": "tokenId",
					"type": "uint256"
				}
			],
			"name": "approve",
			"outputs": [],
			"stateMutability": "nonpayable",
			"type": "function"
		},
		{
			"inputs": [
				{
					"internalType": "address",
					"name": "owner",
					"type": "address"
				}
			],
			"name": "balanceOf",
			"outputs": [
				{
					"internalType": "uint256",
					"name": "",
					"type": "uint256"
				}
			],
			"stateMutability": "view",
			"type": "function"
		},
		{
			"inputs": [
				{
					"internalType": "uint256",
					"name": "_tokenId",
					"type": "uint256"
				}
			],
			"name": "burnNft",
			"outputs": [],
			"stateMutability": "nonpayable",
			"type": "function"
		},
		{
			"inputs": [],
			"name": "canChangeBaseURI",
			"outputs": [
				{
					"internalType": "bool",
					"name": "",
					"type": "bool"
				}
			],
			"stateMutability": "view",
			"type": "function"
		},
		{
			"inputs": [],
			"name": "canChangeNotRevealURI",
			"outputs": [
				{
					"internalType": "bool",
					"name": "",
					"type": "bool"
				}
			],
			"stateMutability": "view",
			"type": "function"
		},
		{
			"inputs": [
				{
					"internalType": "uint256",
					"name": "_publicSaleNftPrice",
					"type": "uint256"
				}
			],
			"name": "changePublicSaleNftPrice",
			"outputs": [],
			"stateMutability": "nonpayable",
			"type": "function"
		},
		{
			"inputs": [
				{
					"internalType": "uint256",
					"name": "_whitelistSaleNftPrice",
					"type": "uint256"
				}
			],
			"name": "changeWhitelisteSaleNftPrice",
			"outputs": [],
			"stateMutability": "nonpayable",
			"type": "function"
		},
		{
			"inputs": [
				{
					"internalType": "uint256[]",
					"name": "nftIds",
					"type": "uint256[]"
				}
			],
			"name": "claim",
			"outputs": [],
			"stateMutability": "nonpayable",
			"type": "function"
		},
		{
			"inputs": [
				{
					"internalType": "uint256",
					"name": "tokenId",
					"type": "uint256"
				}
			],
			"name": "getApproved",
			"outputs": [
				{
					"internalType": "address",
					"name": "",
					"type": "address"
				}
			],
			"stateMutability": "view",
			"type": "function"
		},
		{
			"inputs": [],
			"name": "getInitialTotalSupply",
			"outputs": [
				{
					"internalType": "uint256",
					"name": "",
					"type": "uint256"
				}
			],
			"stateMutability": "view",
			"type": "function"
		},
		{
			"inputs": [],
			"name": "getPublicSaleNftPrice",
			"outputs": [
				{
					"internalType": "uint256",
					"name": "",
					"type": "uint256"
				}
			],
			"stateMutability": "view",
			"type": "function"
		},
		{
			"inputs": [
				{
					"internalType": "address",
					"name": "owner",
					"type": "address"
				},
				{
					"internalType": "uint256[]",
					"name": "nftIds",
					"type": "uint256[]"
				}
			],
			"name": "getRewardAmount",
			"outputs": [
				{
					"internalType": "uint256",
					"name": "",
					"type": "uint256"
				}
			],
			"stateMutability": "view",
			"type": "function"
		},
		{
			"inputs": [
				{
					"internalType": "bytes",
					"name": "signature",
					"type": "bytes"
				}
			],
			"name": "getSignerRecovery",
			"outputs": [
				{
					"internalType": "address",
					"name": "",
					"type": "address"
				}
			],
			"stateMutability": "view",
			"type": "function"
		},
		{
			"inputs": [],
			"name": "getWhitelistSaleNftPrice",
			"outputs": [
				{
					"internalType": "uint256",
					"name": "",
					"type": "uint256"
				}
			],
			"stateMutability": "view",
			"type": "function"
		},
		{
			"inputs": [
				{
					"internalType": "string",
					"name": "_name",
					"type": "string"
				},
				{
					"internalType": "string",
					"name": "_symbol",
					"type": "string"
				},
				{
					"internalType": "contract HybridToken",
					"name": "_hybridToken",
					"type": "address"
				}
			],
			"name": "initialize",
			"outputs": [],
			"stateMutability": "nonpayable",
			"type": "function"
		},
		{
			"inputs": [
				{
					"internalType": "address",
					"name": "owner",
					"type": "address"
				},
				{
					"internalType": "address",
					"name": "operator",
					"type": "address"
				}
			],
			"name": "isApprovedForAll",
			"outputs": [
				{
					"internalType": "bool",
					"name": "",
					"type": "bool"
				}
			],
			"stateMutability": "view",
			"type": "function"
		},
		{
			"inputs": [],
			"name": "isRevealed",
			"outputs": [
				{
					"internalType": "bool",
					"name": "",
					"type": "bool"
				}
			],
			"stateMutability": "view",
			"type": "function"
		},
		{
			"inputs": [],
			"name": "launchPublicSale",
			"outputs": [],
			"stateMutability": "nonpayable",
			"type": "function"
		},
		{
			"inputs": [],
			"name": "launchWhitelistedSale",
			"outputs": [],
			"stateMutability": "nonpayable",
			"type": "function"
		},
		{
			"inputs": [],
			"name": "maxNftPurchase",
			"outputs": [
				{
					"internalType": "uint256",
					"name": "",
					"type": "uint256"
				}
			],
			"stateMutability": "view",
			"type": "function"
		},
		{
			"inputs": [],
			"name": "name",
			"outputs": [
				{
					"internalType": "string",
					"name": "",
					"type": "string"
				}
			],
			"stateMutability": "view",
			"type": "function"
		},
		{
			"inputs": [
				{
					"internalType": "address",
					"name": "",
					"type": "address"
				}
			],
			"name": "nftsPerWallet",
			"outputs": [
				{
					"internalType": "uint256",
					"name": "",
					"type": "uint256"
				}
			],
			"stateMutability": "view",
			"type": "function"
		},
		{
			"inputs": [
				{
					"internalType": "uint256",
					"name": "",
					"type": "uint256"
				}
			],
			"name": "nftsStaked",
			"outputs": [
				{
					"internalType": "uint256",
					"name": "nftId",
					"type": "uint256"
				},
				{
					"internalType": "uint256",
					"name": "stakingStartTime",
					"type": "uint256"
				},
				{
					"internalType": "address",
					"name": "owner",
					"type": "address"
				}
			],
			"stateMutability": "view",
			"type": "function"
		},
		{
			"inputs": [],
			"name": "owner",
			"outputs": [
				{
					"internalType": "address",
					"name": "",
					"type": "address"
				}
			],
			"stateMutability": "view",
			"type": "function"
		},
		{
			"inputs": [
				{
					"internalType": "uint256",
					"name": "tokenId",
					"type": "uint256"
				}
			],
			"name": "ownerOf",
			"outputs": [
				{
					"internalType": "address",
					"name": "",
					"type": "address"
				}
			],
			"stateMutability": "view",
			"type": "function"
		},
		{
			"inputs": [],
			"name": "pause",
			"outputs": [],
			"stateMutability": "nonpayable",
			"type": "function"
		},
		{
			"inputs": [],
			"name": "paused",
			"outputs": [
				{
					"internalType": "bool",
					"name": "",
					"type": "bool"
				}
			],
			"stateMutability": "view",
			"type": "function"
		},
		{
			"inputs": [
				{
					"internalType": "uint256",
					"name": "_ammount",
					"type": "uint256"
				}
			],
			"name": "publicMintNft",
			"outputs": [],
			"stateMutability": "payable",
			"type": "function"
		},
		{
			"inputs": [],
			"name": "publicSaleNftPrice",
			"outputs": [
				{
					"internalType": "uint256",
					"name": "",
					"type": "uint256"
				}
			],
			"stateMutability": "view",
			"type": "function"
		},
		{
			"inputs": [],
			"name": "renounceOwnership",
			"outputs": [],
			"stateMutability": "nonpayable",
			"type": "function"
		},
		{
			"inputs": [],
			"name": "reveal",
			"outputs": [],
			"stateMutability": "nonpayable",
			"type": "function"
		},
		{
			"inputs": [],
			"name": "revealed",
			"outputs": [
				{
					"internalType": "bool",
					"name": "",
					"type": "bool"
				}
			],
			"stateMutability": "view",
			"type": "function"
		},
		{
			"inputs": [
				{
					"internalType": "address",
					"name": "from",
					"type": "address"
				},
				{
					"internalType": "address",
					"name": "to",
					"type": "address"
				},
				{
					"internalType": "uint256",
					"name": "tokenId",
					"type": "uint256"
				}
			],
			"name": "safeTransferFrom",
			"outputs": [],
			"stateMutability": "nonpayable",
			"type": "function"
		},
		{
			"inputs": [
				{
					"internalType": "address",
					"name": "from",
					"type": "address"
				},
				{
					"internalType": "address",
					"name": "to",
					"type": "address"
				},
				{
					"internalType": "uint256",
					"name": "tokenId",
					"type": "uint256"
				},
				{
					"internalType": "bytes",
					"name": "_data",
					"type": "bytes"
				}
			],
			"name": "safeTransferFrom",
			"outputs": [],
			"stateMutability": "nonpayable",
			"type": "function"
		},
		{
			"inputs": [],
			"name": "sellingStep",
			"outputs": [
				{
					"internalType": "enum NftCollectionV2.Steps",
					"name": "",
					"type": "uint8"
				}
			],
			"stateMutability": "view",
			"type": "function"
		},
		{
			"inputs": [
				{
					"internalType": "address",
					"name": "operator",
					"type": "address"
				},
				{
					"internalType": "bool",
					"name": "approved",
					"type": "bool"
				}
			],
			"name": "setApprovalForAll",
			"outputs": [],
			"stateMutability": "nonpayable",
			"type": "function"
		},
		{
			"inputs": [
				{
					"internalType": "string",
					"name": "_newBaseURI",
					"type": "string"
				}
			],
			"name": "setBaseURI",
			"outputs": [],
			"stateMutability": "nonpayable",
			"type": "function"
		},
		{
			"inputs": [
				{
					"internalType": "string",
					"name": "_notRevealedURI",
					"type": "string"
				}
			],
			"name": "setNotRevealedURI",
			"outputs": [],
			"stateMutability": "nonpayable",
			"type": "function"
		},
		{
			"inputs": [],
			"name": "stacking",
			"outputs": [
				{
					"internalType": "bool",
					"name": "",
					"type": "bool"
				}
			],
			"stateMutability": "view",
			"type": "function"
		},
		{
			"inputs": [
				{
					"internalType": "uint256[]",
					"name": "nftIds",
					"type": "uint256[]"
				}
			],
			"name": "stake",
			"outputs": [],
			"stateMutability": "nonpayable",
			"type": "function"
		},
		{
			"inputs": [
				{
					"internalType": "bytes4",
					"name": "interfaceId",
					"type": "bytes4"
				}
			],
			"name": "supportsInterface",
			"outputs": [
				{
					"internalType": "bool",
					"name": "",
					"type": "bool"
				}
			],
			"stateMutability": "view",
			"type": "function"
		},
		{
			"inputs": [],
			"name": "symbol",
			"outputs": [
				{
					"internalType": "string",
					"name": "",
					"type": "string"
				}
			],
			"stateMutability": "view",
			"type": "function"
		},
		{
			"inputs": [
				{
					"internalType": "address",
					"name": "owner",
					"type": "address"
				}
			],
			"name": "tokenStakedByOwner",
			"outputs": [
				{
					"internalType": "uint256[]",
					"name": "",
					"type": "uint256[]"
				}
			],
			"stateMutability": "view",
			"type": "function"
		},
		{
			"inputs": [
				{
					"internalType": "uint256",
					"name": "tokenId",
					"type": "uint256"
				}
			],
			"name": "tokenURI",
			"outputs": [
				{
					"internalType": "string",
					"name": "",
					"type": "string"
				}
			],
			"stateMutability": "view",
			"type": "function"
		},
		{
			"inputs": [],
			"name": "totalStaked",
			"outputs": [
				{
					"internalType": "uint256",
					"name": "",
					"type": "uint256"
				}
			],
			"stateMutability": "view",
			"type": "function"
		},
		{
			"inputs": [],
			"name": "totalSupply",
			"outputs": [
				{
					"internalType": "uint256",
					"name": "",
					"type": "uint256"
				}
			],
			"stateMutability": "view",
			"type": "function"
		},
		{
			"inputs": [
				{
					"internalType": "address",
					"name": "from",
					"type": "address"
				},
				{
					"internalType": "address",
					"name": "to",
					"type": "address"
				},
				{
					"internalType": "uint256",
					"name": "tokenId",
					"type": "uint256"
				}
			],
			"name": "transferFrom",
			"outputs": [],
			"stateMutability": "nonpayable",
			"type": "function"
		},
		{
			"inputs": [
				{
					"internalType": "address",
					"name": "newOwner",
					"type": "address"
				}
			],
			"name": "transferOwnership",
			"outputs": [],
			"stateMutability": "nonpayable",
			"type": "function"
		},
		{
			"inputs": [],
			"name": "unpause",
			"outputs": [],
			"stateMutability": "nonpayable",
			"type": "function"
		},
		{
			"inputs": [
				{
					"internalType": "uint256[]",
					"name": "nftIds",
					"type": "uint256[]"
				}
			],
			"name": "unstake",
			"outputs": [],
			"stateMutability": "nonpayable",
			"type": "function"
		},
		{
			"inputs": [
				{
					"internalType": "uint256",
					"name": "_ammount",
					"type": "uint256"
				},
				{
					"internalType": "bytes",
					"name": "signature",
					"type": "bytes"
				}
			],
			"name": "whitelistMintNft",
			"outputs": [],
			"stateMutability": "payable",
			"type": "function"
		},
		{
			"inputs": [],
			"name": "whitelistSaleNftPrice",
			"outputs": [
				{
					"internalType": "uint256",
					"name": "",
					"type": "uint256"
				}
			],
			"stateMutability": "view",
			"type": "function"
		}
	]
}